:020000040800F2
:1000000000040020553700086134000865340008FA
:10001000693400086D3400087134000800000000E5
:10002000000000000000000000000000753400081F
:1000300079340008000000007D3400088134000895
:10004000F1360008F1360008F1360008F1360008F4
:10005000F1360008F1360008F1360008F1360008E4
:10006000F1360008F1360008F1360008F1360008D4
:10007000F1360008F1360008F1360008F1360008C4
:10008000F1360008F1360008F1360008C9340008DE
:10009000CD340008F1360008F1360008F1360008CA
:1000A000F1360008F1360008F1360008F136000894
:1000B000D5340008F1360008F1360008F1360008A2
:1000C000F1360008F1360008F1360008F136000874
:1000D000F1360008F1360008F1360008F136000864
:1000E000F1360008F1360008F1360008F136000854
:1000F000F1360008F1360008F1360008F136000844
:10010000F1360008D1340008F1360008F136000855
:10011000F1360008F1360008F1360008F136000823
:10012000F1360008F1360008F1360008F136000813
:1001300000000000000000000000000000000000BF
:1001400000000000000000000000000000000000AF
:10015000000000000000000000000000000000009F
:10016000000000000000000000000000000000008F
:10017000000000000000000000000000000000007F
:10018000000000000000000000000000000000006F
:10019000000000000000000000000000000000005F
:1001A000000000000000000000000000000000004F
:1001B000000000000000000000000000000000003F
:1001C000000000000000000000000000000000002F
:1001D000000000000000000000000000000000001F
:0401E0005FF8E0F1F3
:0801E400CCBF00000100000087
:1001F0000A2815D0154BDB68D90110D54FF06041A6
:10020000D1F8803EDA070AD5D1F8003EDB0706D5E3
:100210000B684FF06042002BFAD0C3B213707047E6
:100220000A4BDB68D901E5D54FF06041D1F8803E3B
:10023000DA07DFD5D1F8003EDB07DBD50B684FF0DE
:100240006042002BFAD00D231370D3E7F0ED00E0ED
:10025000054A06481368022101331360DB0701D405
:1002600005F042B805F042B800070020000C01403C
:1002700010B5082082B0012105F07CFC0224102278
:100280000323064801A9ADF804408DF807208DF836
:10029000063004F0ABFF02B010BD00BF000C0140FF
:1002A00010B5102082B0012105F064FC0422032364
:1002B000302406480DEB0201ADF804408DF807200C
:1002C0008DF8063004F092FF02B010BD001001401E
:1002D000704700BF10B5042082B0012105F04AFC30
:1002E000802410220323064801A9ADF804408DF8AC
:1002F00007208DF8063004F079FF02B010BD00BF72
:100300000008014010B5082082B0012105F032FC40
:10031000012410220323064801A9ADF804408DF8FA
:1003200007208DF8063004F061FF02B010BD00BF59
:10033000000C014010B5042082B0012105F01AFC28
:10034000012448220323064801A9ADF804408DF892
:1003500007208DF8063004F049FF02B010BD00BF41
:100360000008014010B5012084B0014605F00EFCE4
:1003700000244FF4E153092201A94FF08040ADF869
:100380000430ADF80820ADF80A40ADF8064006F09C
:100390002BF84FF08040012106F0ECFA01210A46CB
:1003A0004FF0804006F004FB1C22012368468DF8C4
:1003B00001408DF802408DF800208DF8033003F0E5
:1003C0000FFA04B010BD00BF0148012104F078BF4E
:1003D0000008014001284FF08001034801D004F0DB
:1003E00083BF04F083BF00BF00080140012803D091
:1003F0000348012104F07ABF0146014804F074BFAC
:10040000000C0140024B1A7810441870704700BF6E
:100410001007002008B5002005F01CFBBDE80840CF
:100420004FF40000012105F0B1BB00BF014B0322D6
:100430001A607047F42B0020054B1B689B7A1BB990
:10044000044B01221A607047024B05221A60704764
:1004500008300020F42B002030B54FF4C06083B08A
:1004600003F0B4F9012401A8142300258DF8043009
:100470008DF805408DF806408DF8074003F0B0F97F
:1004800001A813238DF804308DF805408DF807403E
:100490008DF8065003F0A4F9312301A88DF8074028
:1004A0008DF805508DF806508DF8043003F098F95A
:1004B00003B030BD20B905484FF4004104F016BF29
:1004C00002484FF4004104F00FBF00BF0008014094
:1004D000092894BF30303730C0B2704770B501F092
:1004E00023FC0A2001F04CFC04460B2001F048FCE0
:1004F00005460C2001F044FC06460D2001F040FCAE
:1005000000EB062000EB0540314B00EB0460586027
:1005100000285CD02F4B010F3022092998BF891881
:1005200083F8302083F82E2083F82C2083F82A20AB
:1005300083F8282083F8262083F8242083F82220BB
:1005400083F820209A771A779A761A769A751A7510
:100550009A74C0F3036288BF3731092A997094BF37
:1005600002F1300102F13701C0F30352092A197177
:1005700094BF02F1300102F13701C0F30342092AAE
:10058000997194BF02F1300102F13701C0F30332D7
:10059000092A197294BF02F1300102F13701C0F348
:1005A0000322092A997294BF02F1300102F1370146
:1005B000C0F30312092A00F00F0094BF3032373223
:1005C000092894BF3030373019739A73187470BD8E
:1005D00010070020B000002003F00EB84FF4807028
:1005E000012105F0BBBA00BF10B5042082B0012183
:1005F00005F0C0FA4FF400440322102301A9074874
:100600008DF806208DF80730ADF8044004F0EEFDBB
:100610000020FFF74FFF02B010BD00BF00080140EF
:1006200008B502F0E9FFFFF7DFFFFFF739FEFFF73C
:1006300051FEFFF767FE4020012105F08FFAFFF71A
:1006400091FEFFF777FE00F033F8BDE80840012087
:1006500002F0D0BE704700BF704700BF704700BFB8
:100660004278037803EB022080B2704700231A46D9
:10067000C118C978013B01EB0222191DF8D11046BF
:10068000704700BFF0B400210746002600200B028F
:10069000B919CC79020243EA1063013EA0184FF069
:1006A000000545EB030116F1080FF0D1F0BC7047CF
:1006B00030B40648064D0023064C074A07492B7004
:1006C00003702370116030BC704700BFF92D00200B
:1006D000902C0020F52D002020070020942C0020D5
:1006E00038B50A4A0A4D10790A4C0B4900230128F3
:1006F000156023700B7003D10B7843F008030B7067
:1007000000F0B8FC054B00221A7038BD200700200D
:10071000942C0020F52D0020902C0020F92D002095
:1007200038B50A4A0A4D10790A4C0B4900230128B2
:10073000156023700B7003D10B7843F008030B7026
:1007400000F098FC054B00221A7038BD20070020ED
:10075000942C0020F52D0020902C0020F92D002055
:10076000012810B5044613D00CD3022809D110215A
:1007700007F0A6FC20464FF48051BDE8104007F07A
:10078000B5BC10BD02201021BDE8104007F098BC98
:1007900002204FF48051BDE8104007F0A7BC00BF15
:1007A00010B5022007F06CFE044C0346024623807D
:1007B0000348D821BDE8104007F012BC5C3400208B
:1007C00078340020F8B5494D494C2B7813B9494A83
:1007D000A3602260022007F053FEC6B232462068B2
:1007E000D82107F0FDFBA3682268297833443244FE
:1007F000A36022603E4869B1C268961B002EE66085
:100800001BDD02232B7002204FF44051BDE8F8405D
:1008100007F06CBC374A517892F802C00A31D77899
:1008200001EB0C21C1609FB10A46961B324F042098
:10083000002E27602870E660E3DC11D107232B70BF
:100840002E4B00211A78A16042F001021A70F8BD07
:100850001279002AE8D1B1F58D7FE5DA0A46CCE7B6
:1008600008DA06232B70234BFF225A709A70DA7035
:100870001A71E5E72A78911E0529E1D801A050F800
:1008800021F000BF070800089D080008C7080008FD
:100890009D0800086708000841080008B3B9032A4A
:1008A0000CBF072206222A70F61A002EE6601049B5
:1008B0000FDD2A780D48032AC9D10A68022413449F
:1008C00004700B60F8BD05232B70F8BDFF2BEBD136
:1008D000BDE707D12A78054B032A0CBF0722062261
:1008E0001A70F8BDB3DA06232B70F8BDF52D002081
:1008F00020070020942C00209E2C0020902C00200B
:10090000F8B5384C2078092834D00A2821D0082896
:1009100000D0F8BD3448354D8278437843EA02224E
:100920000A32B2F5977F4EDD4FF497732860EB6083
:100930002D484FF48C71402207F034FB2A68EB6895
:100940004032403B0926022040212A60EB6026709D
:1009500022E0274B274D1F780022032647F002078D
:1009600002204FF440511F702E70227007F0BEFB22
:100970002078F8BD1D4DEA683F2A15DC92B2286840
:100980004FF48C7107F00EFBEB682A6899B20A26C7
:10099000134402202B60267007F01EFD0220302138
:1009A00007F08EFB2078F8BD28684FF48C71402248
:1009B00007F0F8FA2A68EB684032403B02204021F9
:1009C0002A60EB60E8E73F2AEA602860B0DC4FF479
:1009D0008C7192B207F0E6FA0A23A98902202370EB
:1009E000DAE700BFF52D0020942C0020200700201E
:1009F000902C00205E34002010B5294C2378DB07B2
:100A00001AD5284B1B78613B112B45D8DFE803F042
:100A1000151A21443A44444444443F262B3035447B
:100A2000440900F0CDFD00F013FE21781E4B01F0CB
:100A3000FE01082221701A7010BD00F017FD00F0B1
:100A40002BFEF2E700F026FC812818D100F0B4FA62
:100A500015E000F041FC00F015FEE6E700F0A6FC12
:100A600000F01AFEE1E700F0CDFC00F015FEDCE737
:100A700000F07AFD00F0ECFDD7E700F055FC00F047
:100A8000CFFDD2E700F02AFC00F0E2FDCDE700F058
:100A900029FD00F023FEC8E700F038FEC5E700BFDF
:100AA000902C0020942C0020F52D002038B5364CD9
:100AB0002378180717D42378334CDB0612D500F0BF
:100AC00043FE04223148982107F06CFA01200421EA
:100AD00007F082FC0120302107F0F2FA237803F0BE
:100AE000EF03237038BD00F021FE294B1B7C13BBA4
:100AF00026484578022D06D0032D2CD0237803F00C
:100B0000F7032370D7E723785907F7D52A469821AA
:100B100007F048FA2946012007F05EFC0120302149
:100B200007F0CEFA237803F0F7032370237803F05D
:100B3000FB032370BFE700F0F9FD02221348982160
:100B400007F030FA0120022107F046FC0120302195
:100B500007F0B6FAD2E723785A07CFD402229821B9
:100B600007F020FA0120022107F036FC0120302195
:100B700007F0A6FA237803F0F7032370237843F0F5
:100B80000403237097E700BF902C00208C2C0020DA
:100B900020070020704700BF704700BF704700BFAC
:100BA000054B1A7842F008021A701A7802F0FB021C
:100BB0001A70FFF77BBF00BF902C002008B5FFF72D
:100BC0001BFF054B1B7803F0FD03082B00D008BD6D
:100BD000BDE80840FFF794BEF52D0020014B1871C9
:100BE000704700BF20070020014B1879704700BFF5
:100BF0002007002010B5114C00232278112102F0AB
:100C0000F90222702278637002F0FE026371217192
:100C1000227000F037FA637960B143F00203637128
:100C200000230A2003212022A371A372E071217204
:100C3000627210BD23F002036371F1E734070020F4
:100C400038B51E4C1E4B2279110903EB8101086C4B
:100C500002F00F0253F82250C001B0FBF5F010F083
:100C600001011CBF01300121400800F011FAE0B978
:100C7000124B6279A07912F0100F1A7814BF42F06B
:100C8000010202F0FE02FF281A700C4B0FD00C304C
:100C900000F006FAE379C3EB031305FB03F52846DE
:100CA000E56000F0FFF9812038BD0A2038BD1B78CF
:100CB00013F0010F14BF0B200C20E9E734070020CC
:100CC00024CC000808B500F0DDF9054B5A7918B1BD
:100CD00042F002025A7108BD22F002025A7108BDA8
:100CE0003407002004290AD005290AD003795A1DA7
:100CF0008A4204D006338B4206D00020704702207F
:100D00007047007902307047805C0230704700BF46
:100D1000F0B5254D83B06C780F46D4B1012C15D1B8
:100D20000B68002B33D13AB16E69F45CC4540133C3
:100D30009342FAD116446E612B691B499A421ED226
:100D40009B1A81200B613A6003B0F0BD812003B093
:100D5000F0BD0968F1B1042917D005291DD0037928
:100D60005A1D914211D00633994219D0224601AB47
:100D700001F082FE019B81203B6003B0F0BD0022A8
:100D800081203B604A7003B0F0BD0222EFE72046AD
:100D900003B0F0BD012003B0F0BD02790232E6E7F6
:100DA000825C0232E3E700BF34070020F8B5234C31
:100DB000074623780E4613F0060F154602D00AB1F7
:100DC0000820F8BD23781D4A13F0060F1AD08120A1
:100DD00022781A4912F0060F02D10A78D30726D4D6
:100DE0002278164902F00602022A14D0227813490A
:100DF00002F00602022AE4D10A7812F0010F18BFAD
:100E0000F620F8BD1378DA07E1D4384631462A4691
:100E1000FFF77EFFDCE70A78084912F0010F22781D
:100E200008BFF62002F00602022ACAD1E4E73846DB
:100E300031462A46FFF76CFFD2E700BF3407002097
:100E4000F6207047F6207047F6207047F0B4094B43
:100E50001F795E799D79DC79197A5A7A9B7A0770C5
:100E600046708570C470017142718371F0BC0120BD
:100E7000704700BF340700202DE9F84301290378AB
:100E800018BF0024457890F80290C778067906BF0D
:100E900090F805808479A046234A181C18BF0120C9
:100EA00052F8200010B90A20BDE8F883180952F85A
:100EB0002020002AF7D029B915F0FD0F04D00B200F
:100EC000BDE8F883012910D09F2F04D9EA0602D586
:100ED0000D20BDE8F88326B1032E02D00E20BDE818
:100EE000F8833CB11020BDE8F883A5F11002032A75
:100EF000E5D8E9E70D4C2371657100F0C3F863791B
:100F000070B923F002036371002384F80690E7713F
:100F1000267284F80980A372BDE8F843FFF790BEFB
:100F200043F002036371EFE724CC0008340700208C
:100F3000F0B4094C05460E460FCCA778B4F800C0B3
:100F4000286012246960AA60EB60A5F810C0AF7435
:100F50003460F0BC704700BFF4CF00080B6800227B
:100F6000012BF0B40C4605460A6002D0F0BC81208B
:100F700070470378022BF9D1074E12270FCEB6F82F
:100F800000C0B67828606960AA60EB60A5F810C060
:100F9000AE742760EAE700BFF4CF0008054B1B7A68
:100FA0002BB108B900F072B8184600F06FB81846B7
:100FB000704700BF34070020F0B4154A137823B3FC
:100FC00092F82B5092F82C60124CAF19507891780F
:100FD000002302376770A072E172A370E37023717F
:100FE00035B1D118C878E1180133AB420873F8DB8A
:100FF00046B12C440023D118C87DE1180133B34217
:101000000873F8DB8120F0BC70470720F0BC704704
:10101000342E0020942C0020014B00221A707047BF
:10102000F92D00200023094A0370137803F004030C
:1010300003701278920704D543F008030370FB2075
:101040007047002B14BFFB2081207047F92D002032
:10105000064B1A781B78520701D5FB20704713F016
:10106000020F14BFFB208120704700BFF92D002024
:10107000704700BF704700BF704700BF704700BF98
:101080000020704700207047002070478120704783
:1010900040F2F4730C3898428CBFFF200020704758
:1010A000704700BF704700BF024B1A7802F0F7028A
:1010B0001A707047F92D0020704700BF044A13785A
:1010C00003F0F703137013781B07FCD5704700BFBC
:1010D000F92D0020F0B4074B074E1F78074D07F09D
:1010E000EF07074A00241F70316028601460F0BCCD
:1010F000704700BFF92D0020042E0020FC2D002099
:10110000082E0020704700BF024B1A7802F0FE0242
:101110001A707047F92D0020014B1868704700BF06
:10112000082E002030B4064B064C1D78064A05F008
:10113000EF0501311D702160106030BC704700BFA9
:10114000F92D0020042E0020082E0020014B1868E5
:10115000704700BF082E0020014B1868704700BF81
:10116000082E002030B4084A08481578084B05F0CE
:10117000F7050124032115700470197013781B07FB
:10118000FCD530BC704700BFF92D0020F82D0020A1
:10119000002E002070B41C4C23782ABB03F0DF0320
:1011A0000529237027D02378184E03F0EF0323700E
:1011B0002578174B013005F0F705134A306025708C
:1011C000196005E013781D0705D41378D80602D4FA
:1011D0002378DE07F6D52378DB0709D470BC002915
:1011E0000CBF8120FE20704743F020032370DAE714
:1011F000FD2070BC7047074A074B15781A78954256
:10120000D1D042781A70CEE7F92D0020042E0020AC
:10121000082E0020002E0020F82D0020F0B4194CDC
:10122000D1F800C02378184F43F04003237023788F
:10123000164E03F0EF0323702278154B02F0F702ED
:1012400000252270C7F800C0224630601D6005E00E
:1012500013781D0705D41378D80602D42378DE0747
:10126000F6D500230B602378064ADB0707D4F0BCD1
:10127000137813F0100F0CBFFE20FC207047FD20E8
:10128000F0BC7047F92D0020FC2D0020042E00201A
:10129000082E002008B50E4B5A790AB1052008BD6A
:1012A0005A785AB99A784AB9DA783AB91B792BB987
:1012B000084B1B789B0603D5FF2008BD012008BD05
:1012C00001F0E6FC002814BF8120FB2008BD00BF10
:1012D000942C0020902C00208120704700B5114BE9
:1012E00083B05A791AB1052003B05DF804FB5A782F
:1012F0004AB99A783AB9DA782AB91A791AB9DA79F8
:101300002AB10720F0E7012003B05DF804FB1A7A48
:10131000002AF6D15B7A002BF3D10DF10700FFF71D
:1013200081FEE1E7942C002030B51E4C83B0637938
:1013300013B1052003B030BDA1786378E27843EAA9
:10134000012301935AB922794AB90A33B3F58D7F43
:1013500005D2154D2B789B0604D5FF20EAE7012026
:1013600003B030BD0DF10300FFF75CFE8128E1D131
:10137000237A627A04F10A0043EA022201A9FFF704
:1013800015FD2B7803F0200303F0FF02002BE4D1BE
:101390008128CFD1019BE270190A22716370A1707C
:1013A000C8E700BF942C0020902C002000B5144802
:1013B00083B043791BB1052003B05DF804FB43788B
:1013C0004BB983783BB9C3782BB903791BB9C3797F
:1013D0002BB10720F0E7012003B05DF804FB037A8E
:1013E000002BF6D1417A0029F3D10A30FFF744FDF2
:1013F0008128E1D10DF10700FFF714FEDCE700BF03
:10140000942C002070B5184B82B05A7912B1052087
:1014100002B070BD5A784AB99A783AB9DA782AB9DE
:101420001A791AB9DA7922B10720F1E7012002B05E
:1014300070BD1A7A002AF7D15A7A002AF4D10A2507
:101440001146112603245819DA721A73DA731A74C2
:101450009E725D739C73FFF70FFD8128D8D10DF14B
:101460000700FFF7DFFDD3E7942C002030B51C4BBD
:1014700083B05A7912B1052003B030BD9A7842B9D1
:10148000DA7832B91A7922B95A78052A0CD0072AA3
:1014900002D0012003B030BDDA79012A06D005213F
:1014A00059701AB10720E7E7DA79FAE71B7A0C4C92
:1014B0000BB10820E0E7657A002DFAD18223237072
:1014C000FFF7DEFD0722E07101230DEB020025721C
:1014D000A570E570257162706372FFF7A3FDCBE71D
:1014E000942C002030B51E4C83B0637913B10520D5
:1014F00003B030BDA1786378E27843EA0123019319
:101500004AB922793AB90A33B3F58D7F03D2E37928
:1015100023B10720ECE7012003B030BD237A002B74
:10152000F7D1637A002BF4D10E4D2B789A0601D5B2
:10153000FF20DDE704F10A0001A9FFF70FFD2B787A
:101540009B06F5D48128D3D1019A0023110A0DF10D
:1015500003006270A170E3702371FFF763FDC7E7BA
:10156000942C0020902C002000B5144B83B05A79A5
:101570001AB1052003B05DF804FB5A7852B99A7885
:1015800042B9DA7832B91A7922B9D879012805D95D
:101590000720EFE7012003B05DF804FB1A7A0AB1D7
:1015A0000820E7E75B7A002BFAD1FFF7F7FC8128E8
:1015B000E0D10DF10700FFF735FDDBE7942C0020AB
:1015C000144B5A790AB1052070475A784AB99A786B
:1015D0003AB9DA782AB91A791AB9DA791AB1072038
:1015E0007047012070471A7A002AF8D15A7A002AE7
:1015F000F5D1094A1178890601D4FF2070470748C0
:10160000997903789942F8D11378812003F0DF03A8
:1016100013707047942C0020902C0020F42D002093
:1016200038B50A4C802305462370FFF729FD0023B7
:10163000812DE071237206D04030E0716370A37099
:10164000E370237125720023637238BD942C00204F
:1016500038B50B4C812305462370FFF711FD00239D
:10166000812DE071237206D04030E0716370A37069
:10167000E37023712572FFF707FD607238BD00BF6C
:10168000942C002008B5FFF7E3FF024B0122DA712A
:101690005A7208BD942C002038B50F4C82230546A1
:1016A0002370FFF7EDFC0023812DE071A370E37040
:1016B0002371237204D04030E0716370257238BD0D
:1016C00004F10A00FFF7C2FB607210B905236370D2
:1016D00038BD0723637038BD942C002038B50A4C00
:1016E000832305462370FFF7CBFC0023812DE07197
:1016F000237206D04030E0716370A370E3702371F1
:1017000025720023637238BD942C002038B5064C36
:1017100000256570A570E5702571FFF7B1FC4030BC
:10172000E0712572657238BD942C002010B5054C0F
:1017300050232370FFF7A4FC022816BF0323607018
:10174000637010BD8C2C002010B4064A064B9479AF
:101750005120002181229C7018705970DA705DF858
:10176000044B7047942C00208C2C00200023037025
:10177000037143804371704710B459B100231A4676
:10178000C45C01338B4282EA0402F9DB10465DF847
:10179000044B70470A46F9E7F8B5437902780446E6
:1017A00003F00100111D80010133002784F80801B6
:1017B000A171637184F8092184F8077104F58570BB
:1017C000E11D0AF029FC267804F20715033616F00D
:1017D000FF000BD03A463B46E95C0133834282EA84
:1017E0000102F9DB344484F80721F8BD0246F9E729
:1017F000437910B403F001020424A240591C803A3A
:1018000000238471417180F8082180F80A2180F852
:10181000073180F809315DF8044B704770B582B02C
:10182000002202AB044643F8042D00F20710A17910
:101830004FF4807201F020F9019D052D04D84AF281
:101840000100608002B070BD94F808319B0618D486
:10185000631993F8041193F80531062203EB012371
:10186000638016462079AA1A204404F58571073052
:101870000AF0D2FB237960881D44AE1B267102B0AA
:1018800070BD4AF20203042263801646EAE700BFF5
:1018900038B5002303710446FFF77EFF2046FFF7AB
:1018A000BDFF63884AF20102934211D04AF2020559
:1018B00094F80821204692060AD5FFF799FF2046A2
:1018C000FFF7ACFF6388AB42F2D0B3F5104FEFD017
:1018D000184638BD2DE9F04F1C4CC5B2064683B002
:1018E0004FF0860C4FF0020E174605F1010B324601
:1018F0004FF0000A4FF02A094FF0800804F10D0064
:1019000084F80AC084F80CE0019384F80BB084F8E2
:1019100007A084F8089084F8098026440AF07CFB2C
:10192000AA1D204675732270FFF7B2FF2279019B32
:1019300005469742A8BF3A46184604F10C010AF042
:101940006BFB284603B0BDE8F08F00BF4C070020BA
:1019500070B40E4A85B01068516801AB03C3168994
:10196000957A0B4C1E809D7001AA03CA23461288EB
:101970000B26C4F8070003F8076B20469D721A81F6
:10198000596005B070BCFFF783BF00BFA4CC00084E
:101990004C070020F8B5084C002360720527CA26C2
:1019A00020461546E371E372A17227702672FFF795
:1019B0006FFF23792B70F8BD4C0700202DE9F04113
:1019C0000746084616460D460BF0FEF880463046A0
:1019D0000BF0FAF8114C4044C2B200234FF0240E31
:1019E0002946803F04F10C00E37163722270E272B9
:1019F00084F808E0A7720BF089F828460BF0E4F8A9
:101A0000204431460C300BF081F823782046053312
:101A10002370BDE8F041FFF73BBF00BF4C0700203B
:101A2000F8B5074608460E460BF0CEF80B4CC5B28B
:101A300000232570E572803F3146202204F10C001E
:101A40000535A7722272E37163720BF05FF82046CE
:101A50002570BDE8F840FFF71BBF00BF4C07002012
:101A60002DE9F041154CA0B0802607463246684665
:101A700013490AF0D1FA00254FF02A0C4FF0860ED8
:101A80008123694632464FF0870804F10D00E37266
:101A900084F808C084F80AE0667284F80080E57172
:101AA00025730AF0B9FA204684F88D50FFF7F0FE4E
:101AB00023793B7020B0BDE8F08100BF4C070020C7
:101AC000B0CC0008F8B5114C054600238422FF2D48
:101AD0000F462272E3716372A372E37220460CDD3B
:101AE00023736373A573FFF7D3FE064638462A4671
:101AF00007490AF091FA3046F8BD2573FFF7C8FE92
:101B0000237906469D42B8BF1D46EFE74C070020EB
:101B1000580700201028F8B504460E4603D02028A8
:101B200001D00020F8BD01F0B3F80028F9D00B4D2A
:101B30000023EC723146DA27D52605F10C00224647
:101B400005342F72AE72EB716B720AF065FA2C706D
:101B50002846BDE8F840FFF79BBE00BF4C070020B9
:101B6000102803D0202801D000207047B2E600BF23
:101B7000102810B505D0202801D0002010BD10205D
:101B80000246FFF7A7FEC0B210BD00BFB0F5FA7F56
:101B900001D300207047FFF795BF00BF30B583B079
:101BA000FFF7D6FEB0F5104F02D0002003B030BDD5
:101BB0000DF1070200204F21FFF7ECFEB0F5104FAA
:101BC000F3D19DF80730102BEFD15F2052210DF19A
:101BD0000702FFF7DFFEB0F5104FE6D19DF80730A2
:101BE0000A2BE2D10020C4210DF10702FFF7D2FE3B
:101BF000B0F5104F0546D8D19DF80730072BD4D14A
:101C000000206E210DF10702FFF7C4FEA842044632
:101C1000CBD19DF80730D92BC7D100205E210DF123
:101C20000702FFF7B7FEA042BFD19DF80740002C86
:101C3000BBD120466E210DF10702FFF7ABFEB0F5D8
:101C4000104FB2D19DF80730D92BAED120466E216E
:101C50000DF10702FFF79EFEB0F5104FA5D19DF8DC
:101C60000730D92BA1D120466E210DF10702FFF7D5
:101C700091FEB0F5104F98D19DF80730D92B94D133
:101C800002200E49FFF7CCFEB0F5104F04468CD170
:101C900001200A49FFF7C4FEA042054685D10DF197
:101CA0000700FFF7DDFEA8427FF47FAF9DF8070035
:101CB000B0F123035842584178E700BF08D000082C
:101CC00008B5054B00221A701A715A805A7100F03B
:101CD000EDFFFFF763FFFEE74C07002070B5114CE6
:101CE0000025E623204604262372E5716572A5725D
:101CF000E5722670FFF7CCFDB0F5104F00D070BD37
:101D0000FFF726FE46F285239842F8D14423204669
:101D1000E5716572A572E57226702372FFF7B8FD52
:101D2000EDE700BF4C07002010B5094B002482B03E
:101D30001C701C715C805C71FFF70AFE20464F210D
:101D40000DF10702FFF726FE9DF8070002B010BD57
:101D50004C07002010B5094B002482B01C701C7188
:101D60005C805C71FFF7F4FD20464F210DF1070206
:101D7000FFF710FE204602B010BD00BF4C07002048
:101D8000014B1844C07970474C070020094B10B52F
:101D9000002204461A701A715A805A71FFF7D8FD52
:101DA00021460320FFF73CFEB0F51043584258414E
:101DB00010BD00BF4C070020094B10B5002204469F
:101DC0001A701A715A805A71FFF7C2FD214601201C
:101DD000FFF726FEB0F5104018BF012010BD00BF70
:101DE0004C07002030B5044691B0FFF7B1FD214605
:101DF0000320FFF715FEB0F5104F02D0012011B0FF
:101E000030BDFFF76BFF80B2B0F5104F02D000205D
:101E100011B030BD6846FF2140220AF0FDFD0F4D94
:101E2000002455F82410684689B2402208F03EF993
:101E3000E0B2013408F02AF9032CF2D1084D002455
:101E400055F82410684689B20134402208F02EF972
:101E50000F2CF5D109F060FC0020D0E778020020BB
:101E60003C0200200A4B70B500240D4606461C704B
:101E70001C715C805C71FFF76BFD31462A460120C6
:101E8000FFF79CFDB0F5104F14BFFF20204670BD3A
:101E90004C0700200A4B70B500240D4606461C7006
:101EA0001C715C805C71FFF753FD31462A460320AC
:101EB000FFF784FDB0F5104F14BFFF20204670BD22
:101EC0004C07002030B50B4D002483B02C702C71D2
:101ED0006C806C71FFF73CFD2046C4210DF10702B8
:101EE000FFF758FDB0F5104F0CBF687BFF2003B023
:101EF00030BD00BF4C07002030B50B4D002483B02F
:101F00002C702C716C806C71FFF722FD2046C4216F
:101F10000DF10702FFF73EFDB0F5104F0CBFE87A58
:101F2000FF2003B030BD00BF4C070020F0B51B4CB4
:101F30001B4F002587B02570257165806571FFF7FF
:101F400007FD38687968BA68FB6801AE0FC63F7C48
:101F50002A20377080218622112301AF04F10C065C
:101F600020726172A272E372E5710FCF4FF0160E0C
:101F70000FC6204684F800E025776577A577FFF740
:101F800087FCB0F5104F06D046F68823C31A584296
:101F9000584107B0F0BD012007B0F0BD4C0700204C
:101FA00030CD000808B5C0B2FFF7B4FD28B1B0F5D8
:101FB000104F01D0C0B208BD012008BD30B52028A7
:101FC00089B004460D4602DD002009B030BD22462E
:101FD000684600210AF020FD2046294622466B462D
:101FE000FFF7C6FD09B030BD08B501460220FFF776
:101FF00017FDB0F510435842584108BD70B506466C
:102000000D46002402E0AC420FD0013408482021E4
:1020100005F064F90028F6D0AC4206D0044805F07B
:10202000FBF801233070184670BD0023184670BDC0
:102030000038014010B584B08DF807009DF80710F6
:10204000164805F0E5F842F2117401E0013C1FD09A
:102050001248402105F042F90028F7D00DF10F0099
:102060000121FFF7CBFF012806D09DF807304FF67E
:10207000FF7000B204B010BD9DF80F009DF807205E
:102080004FF6FF73824208BF184600B204B010BD7D
:102090004FF6FE7000B204B010BD00BF0038014022
:1020A00010B5074C1021204603F01EF920462021D0
:1020B00003F01AF9BDE810400248012105F0CAB842
:1020C000000C01400038014010B582B010220323FB
:1020D0003024064801A9ADF804408DF807208DF89A
:1020E000063003F083F802B010BD00BF000C0140C1
:1020F00010B5054C1021204603F0F6F820462021AB
:10210000BDE8104003F0F0B8000C014010B5054CDC
:102110001021204603F0EAF820462021BDE81040B7
:1021200003F0E4B8000C014010B5054C20602368B2
:1021300023B1FEF743FD2368002BFAD110BD00BF89
:10214000B4090020024A10601368002BFCD17047CC
:10215000B409002008B568B90146084805F07AF8C6
:102160000748102103F0C2F8BDE8084004482021C8
:1021700003F0BCB8BDE8084092E700BF003801405A
:10218000000C014008B5082100220A4803F0B0F80D
:102190000020FFF7DFFF084804F002FF08200021BD
:1021A00003F0E8FCBDE808404FF48040002103F054
:1021B000E1BC00BF000C014000380140024608218C
:1021C000014803F095B800BF000C014008B5064B6C
:1021D0000648197805F01CF80448402105F07EF8FF
:1021E0000028F9D008BD00BF580900200038014080
:1021F000F0B51D4C8BB0054605A8164603F05EFCF5
:10220000B4F818E0194B089805F00F025FFA8EFE3B
:1022100053F822204FEA4E0EB0FBFEF002FB00FE08
:102220002D0903EB85031B6C0C22BEFBF3FE20463D
:10223000002301A94FF480574FF48065CDF804E0E6
:10224000ADF80A30ADF81030ADF80E20ADF80870DA
:10225000ADF80C5004F0FAFE06F10C01C9B22046AC
:1022600004F0E4FF0BB0F0BD0038014044CD00089D
:102270002DE9F041894E8CB0002307A88DF803307A
:10228000874C03F01BFC338B0122304640211FFAA0
:1022900083F80A9F04F072FFA278D30640F183808E
:1022A000E278112A7FD07F4DFF232B7029783046AA
:1022B00004F0AEFF7948402105F010F80028F9D06D
:1022C0000DF103004FF40041FFF798FE01286DD097
:1022D000012611232B702978704804F099FF6F486C
:1022E000402104F0FBFF0028F9D00DF103004FF46A
:1022F0000041FFF783FE012800F0CA80E3786748B9
:102300002B70297804F084FF6448402104F0E6FF34
:102310000028F9D00DF103004FF40041FFF76EFEE5
:102320000128E37800F0AD8083F0EE032B7029786C
:102330005A4804F06DFF5948402104F0CFFF0028AF
:10234000F9D00DF103004FF40041FFF757FE0128CB
:1023500000F08E800DF103004FF40041FFF74EFEB8
:1023600001287FD003260DF103004FF40041FFF751
:1023700045FE012870D005260DF103004FF4004101
:10238000FFF73CFE012860D007264FF400410DF115
:102390000300FFF733FE01284FF040013F480CD007
:1023A000002204F0EBFE0CB0BDE8F0819DF8033094
:1023B000FF2B14BF402601268BE7E3789DF803200E
:1023C00083F0EE039A42364CEAD1002204F0D6FEA6
:1023D000012EE8D1E178344A01F00F005FFA88F865
:1023E00052F820504FEA4808B7FBF8F705FB07F70B
:1023F000090902EB81020024156C4FF480734FF43D
:10240000006201A92548ADF80420ADF80A30ADF806
:102410000640ADF8084004F06DFE0C23B7FBF5F55F
:102420004FF480564FF480621C480DEB0301039576
:10243000ADF81240ADF81840ADF81060ADF81420BA
:10244000ADF8163004F002FEADE7E2789DF80330F7
:102450009A4218BF062698E79DF80330112B18BF43
:10246000042689E79DF80330FF2B18BF02267AE780
:10247000E3789DF8032083F0EE039A4218BF1026FC
:1024800068E79DF803209A4214BF202613464BE7C5
:102490009DF80330112B18BF30262FE7003801407C
:1024A000342E00205809002044CD0008F0B5082043
:1024B00089B0012103F05EFB4FF48040012103F05D
:1024C00059FB012001464A4E03F054FB0420012130
:1024D00002F034FF3468012C4FD004AD45480A2186
:1024E00004F0AEFE4348012104F0A0FE00244FF4A6
:1024F00000624FF4807302A93E48ADF80820ADF8A1
:102500000E30ADF80A40ADF80C4042F2CD5604F062
:10251000F1FD0C2329464FF480624FF48055354875
:10252000ADF81A30ADF81820ADF81640ADF81C40E3
:102530000496ADF8145004F089FD2E48282101229C
:1025400004F0FEFD01222B48602104F0F9FD29482A
:10255000012104F0E7FD2748012104F089FE254808
:10256000012104F077FE22460821234802F0C0FE34
:102570002046FFF7EFFD09B0F0BD4FF4807218233D
:1025800001A903271D48ADF804208DF807308DF808
:10259000067002F02BFE40221C2301A91648ADF85C
:1025A00004208DF8073002F021FE2146144802F085
:1025B000C5FE21461348102402F0C0FE0DEB0405B1
:1025C000082301A90C48ADF804308DF8074002F04B
:1025D0000DFE302329460848ADF810308DF81270F2
:1025E0008DF8134002F002FE0023336076E700BF4F
:1025F0000800002000380140000C014000080140A4
:1026000000013000000230002DE9F04F057885B060
:1026100080460E461446052D07D8DFE815F0110058
:1026200040000600B30013010C00052388F80030B9
:1026300005B0BDE8F08FFFF7A5FD05B0BDE8F08F50
:102640007478002CF4D1FFF731FFFFF729FDB74B69
:10265000204603F1280103F8010F8B424FF00002DE
:10266000F9D1B34F11463B467A7003F8022F07F1B8
:10267000160203F8011F9342FBD1AE4B002003F179
:10268000140103F8010F8B424FF00002F9D101232E
:1026900087F82B2087F82C2088F80030C8E7777857
:1026A000002FC5D1A44EDFF89892777098F80030CB
:1026B0008DF80F705A1E042A00F22D81DFE812F007
:1026C0004100140011002B0105009C480821002244
:1026D00002F00EFE0020FFF73DFD98F80030052BBC
:1026E000A6D0032BE1D1A3E7954C94480821012201
:1026F00002F0FEFD2825A1460DF10F0702E013F0C0
:10270000FF0514D038464FF40041FFF777FC01284D
:1027100005F1FF33F3D171789DF80F20013113F0EB
:10272000FF0589F80020717009F10109EAD12378C9
:10273000002B3FF47AAF032388F8003005B0BDE8E2
:10274000F08F00240DF10F0A02E00134282C10D084
:1027500050464FF40041FFF751FC0128F5D19DF898
:102760000F30727809F8043001340132282C72706D
:10277000EED199F80030002B40F00C81022388F84C
:10278000003092E77378002B7FF452AF6C4C6A4AAA
:10279000674F61782378527801F00F0B97F82B5030
:1027A000B9707B70C8B2019287F82CB001F0F001CB
:1027B00087F82D20042341FA03F2013302F00102CD
:1027C0001544082BEDB2F6D187F82B50002335B114
:1027D000E2189178FA180133AB42D170F8D37B1923
:1027E00093F80290030640F1B180514BCC4603F1BF
:1027F000020A6A1EB918C8785FFA8CFC00F0F00073
:102800000026042140FA01F9013109F001094E4482
:102810000829F6B2F6D15EB13A440AEB0500444FFE
:1028200003323044D11A615C02F8011F8242F9D1AF
:1028300035441CF0800FEDB200F086807A1992F8D2
:1028400002C0D6E7002213468DF80E201046E05451
:102850000133142B4FF00002F9D14021227562752B
:102860003848012204F08AFC3078FFF7E3FB7078E7
:10287000FFF7E0FBB078FFF7DDFBF078FFF7DAFB5E
:10288000307900284FD1707E00284CD12D4804F0BB
:10289000C3FC04AF002307F8013D38464FF4004164
:1028A000FFF7ACFB012800F09280257D002D7FF41E
:1028B000BFAE377997B9737E0DF10E0503B3284685
:1028C0004FF40041FFF79AFB012804BF9DF80E303A
:1028D000E355737E01379F42F1D311E073195879A4
:1028E000FFF7A8FB337901359D42F7D3154804F073
:1028F00093FC14484021002204F040FC0DF10E0529
:102900000A2628464FF40041FFF778FB01284CD0F7
:10291000013EF6D14CE0012388F800302B46032B12
:102920007FF4C3AE84E6FFF785FBAFE70B2E0020F4
:10293000342E00204A2E002058090020000C0140AF
:102940000C2E00200038014087F82B50BBF1000FFF
:102950000CD0304B6FF0130103EB0B00C91B5A195D
:102960000A44A25C03F8012F8342F8D1AB1C019A00
:102970005B449A420AD0E15C07EB0B0201230BF1A6
:10298000010BD17587F82CB087F82E30042388F816
:1029900000304DE6032388F800301F48082101224B
:1029A00002F0A6FC98F8003099E69DF80E302375E9
:1029B0000A2628464FF40041FFF720FB012802D0E9
:1029C000013EF6D134E69DF80E30637530E69DF891
:1029D0000F3003F0F002602A02D0902A7FF428AE74
:1029E0007278D143594011F0FE0F03D05A4012F0D3
:1029F000FE0F01D123701BE6237538464FF40041CA
:102A0000FFF7FCFA01287FF413AE9DF80F306375D1
:102A10000EE600BF4A2E0020000C014030B5144CD9
:102A2000002389B023708DF803308DF804308DF8C1
:102A300005308DF806308DF807308DF808300DF12F
:102A4000030001A90B4AFFF7DFFD9DF80330052BBA
:102A500009D0042BF3D1012528462570FEF7BEF8D6
:102A6000284609B030BDFFF78DFB002009B030BD0E
:102A7000342E0020642E002004292DE9F0470E4654
:102A800004461F4642D00020FDF7A4FC8EB100236F
:102A90001D4601E0AE420CD9E05CFFF7CBFA0135F0
:102AA00001302B46F6D00120FDF794FC2120BDE833
:102AB000F087304804F0B0FB0022A52040F2051159
:102AC000A05401328A42FBD10025AA4626464FF087
:102AD000010840F2051907E0012D2AD0C84526D08B
:102AE000013508F101080136304665B34FF4004165
:102AF000FFF784FA0128EFD03D600120FDF76AFC62
:102B00003B6853B902203860BDE8F0870378FF2B9B
:102B100006D00020FDF75EFCB9E70020BDE8F08795
:102B20004378112BF5D139600020BDE8F087454688
:102B3000E2E7BAF1030FD3D102233B60FDF74AFC71
:102B40005046BDE8F0870C49FFF758FA0128D3D169
:102B500062783378D143594011F0FE0FC0D05A400B
:102B600012F0FE0FBCD003F0F003602B08BF4FF053
:102B7000030AB5E70038014000008813014B00222A
:102B80001A707047342E002070B53B4B82B0002481
:102B90001C7002F0AFFE4FF4803002F0C9FE02F06C
:102BA000E3FE364B18711D79EDB2012D3DD00120A9
:102BB000014602F0DFFF00214FF0006000F048FE08
:102BC0004FF4C06000F002FE002401A81723012585
:102BD0008DF804308DF807508DF805408DF80640CB
:102BE00000F0FEFD01A825238DF805508DF8043076
:102BF000234E00F0F5FD234B234AF02507205E60AD
:102C000001A982F8235030269C6003221860102509
:102C10001E488DF80620ADF804608DF8075002F0CC
:102C2000E5FAFFF765FA02B070BD102001F0D4FD9F
:102C3000022001F0BBFD204602F0E2FE204602F039
:102C4000F3FE4FF4806002F0E5FE4FF480304FF465
:102C5000801102F0B3FE284602F0BAFE392002F0DD
:102C6000CBFF0028FAD0022002F0B8FE02F0C0FE2E
:102C70000828FBD19BE700BF342E0020080000206D
:102C80007FFC0A0010E000E000ED00E0000C0140D5
:102C900008B5054B00221A70FFF7C0FE10B1FFF710
:102CA000E7FA012008BD00BF342E002038B5FFF739
:102CB0006BFF0C4C0125FFF7B1FE38B92560236886
:102CC000002BFCD1FFF7AAFE0028F7D0FFF7D0FABF
:102CD000282323602368002BFCD10120BDE8384065
:102CE000FDF778BBB4090020014B04221A6070473D
:102CF000F42B0020704700BF10B51D4B06281B6841
:102D00001A7802F07F0203D0212A0DD0022010BDD4
:102D1000012AFBD15A79002AF8D19A78222A25D0A3
:102D2000212AF3D1134A15E0032812D0092806D02E
:102D30000128EBD19A78032AE8D10F4A0AE09A7861
:102D4000022A0ED0032AE1D10C494A7008700C4ABD
:102D500000E00C4A002420469A615C82904720469D
:102D600010BD06494A700870074AF3E7074AF1E7C1
:102D7000103000200D300008E12D000878090020F7
:102D8000292E0008C92D0008412E00080130000836
:102D9000074B1B681A7802F07F02212A01D002201B
:102DA00070470B28FBD1DA78024B00201A6070477D
:102DB00010300020BC2E002009B1022070470228EC
:102DC00034BF00200220704708B103487047034B0E
:102DD00001221B681A827047BC2E00201030002090
:102DE00070B490B10C4E0D4D34460FCD0FC40FCDC5
:102DF0000FC40FCD0FC495E80F00094D84E80F00F4
:102E00002B783046337070BC7047064B40221B68ED
:102E100070BC1A82704700BF1C2F00205C2F00205E
:102E2000040700201030002008B103487047034B0E
:102E300040221B681A8270477C2E00201030002030
:102E400008B103487047034B01221B681A82704780
:102E50007C2E00201030002038B5FDF73FFB084BDA
:102E600000241B68074D9C7208F07CF9064807494E
:102E7000074A4FF43F432C6003800B60146038BD59
:102E800010300020445C004014300020405C0040C2
:102E9000F42B00204349444B444A1B68D27909680B
:102EA00070B500248C7220465A72DC7205F0D2F89C
:102EB00020464FF4007105F0EBF83D4D20462021EF
:102EC00005F0FEF82046182105F05AFA2B68204636
:102ED00093F82C1005F0A2FA5821204605F040FA8C
:102EE000204605F07FF9204605F050F901204FF407
:102EF000C06105F0CDF80120982105F031FA0120DC
:102F0000202105F0DDF82146012005F0EFF82146EB
:102F1000022005F0BDF80220D82105F031FA2B6817
:102F2000022093F82C1005F079FA02204FF440515A
:102F300005F0DCF802204FF48C7105F011FA2B68D3
:102F4000022093F82C1005F047FA0220302105F0FA
:102F5000B7F804204FF4C06105F09AF804204FF44C
:102F6000CE7105F0FDF92146042005F0BFF80420DC
:102F7000202105F0A5F82B68204693F82C1005F0C9
:102F80004DFA204605F002F90A4E204604F05AFE9A
:102F9000094D0A480A4A0B49012334702B6003602B
:102FA000116070BD083000201030002090CE000865
:102FB000180100205E340020F42B002000000020C7
:102FC0003C34002055534243014B196804F0D4BBF4
:102FD0001C010020014B196804F0CEBB2001002029
:102FE000054B1B68DB78052B04D8044A52F82310E4
:102FF00004F0C2BB002070471030002024010020E4
:10300000014904F0B9BB00BF10000020014904F0E1
:10301000B3BB00BF18000020F0B4354C2378092B57
:1030200001D0F0BC704765780023022D23701AD0C0
:10303000032D03D000236370F0BC7047DFF8C0C0DD
:103040009CF80030002BF5D12A4F2B4E0FCF0FC626
:103050000FCF0FC60FCF0FC697E80F008CF80050A8
:1030600086E80F00E6E7234BA6781D786E40F1074F
:1030700010D5D4E902232149D1E90001821A61EB7C
:103080000303002B08BFB2F5FA7FC4E902013CBF7D
:1030900001232374B20712D5D4E90601174B144F4C
:1030A000D3E90023101A63EB0101002908BFB0F532
:1030B000FA7FC4E906233CBF012187F8201073077B
:1030C00012D5D4E90A010D4B094ED3E90023101A99
:1030D00063EB0101002908BFB0F5FA7FC4E90A23B8
:1030E0003CBF012186F830100023A5706370A3E770
:1030F000780900207C2E00209C2F0020080700204B
:103100000407002008B50B4B1B689B7A8BB10A4B58
:10311000052201201A6005F0FDF8022005F0EAF80A
:10312000022005F0F7F8042005F0F4F8034B002224
:103130001A7008BD10300020F42B00205E340020EF
:1031400008B103487047034B01221B681A8270477D
:10315000AC09002010300020034A044B1268002004
:10316000D2781A60704700BF10300020BC2E0020BB
:10317000014B04221A607047F42B0020704700BFF7
:10318000704700BF09B10220704700280CBF002023
:103190000220704708B103487047034B01221B68A7
:1031A0001A827047B00900201030002038B5FDF7B2
:1031B00095F9084B00241B68074D9C7207F0D2FF5D
:1031C00006480749074A4FF43F432C6003800B60D1
:1031D000146038BD10300020445C004014300020E2
:1031E000405C0040F42B002038B53349334B344A5F
:1031F0001B68D279096800248C7220465A7204F048
:1032000029FF20464FF4007104F042FF2D4D204667
:10321000202104F055FF2046182105F0B1F82B6855
:10322000204693F82C1005F0F9F85821204605F0B7
:1032300097F8204604F0D6FF204604F0A7FF214669
:10324000012004F025FF0120982105F089F80120D4
:10325000202104F035FF2146012004F047FF2146DC
:10326000022004F015FF0220D82105F089F82B6810
:10327000022093F82C1005F0D1F802204FF44051B1
:1032800004F034FF2146022004F01AFF2B68204688
:1032900093F82C1005F0C2F8204604F077FF0A4D91
:1032A000204604F0CFFC0949094B0A4A01202C7042
:1032B00008601A6038BD00BF0830002010300020C0
:1032C00084CF0008180100205E340020F42B002079
:1032D0003C34002055534243044A054B12689A423D
:1032E00002D0022007F01EBF704700BF3C34002010
:1032F00055534243014B596804F03EBA180100206F
:10330000014B996804F038BA18010020064B1B687D
:10331000DB78052B05D8054A02EB8303D96804F056
:103320002BBA0020704700BF103000201801002089
:1033300008B5084B1B689B7A5BB1074B052201203F
:103340001A6004F0E7FF022004F0D4FF034B0022D0
:103350001A7008BD10300020F42B00205E340020CD
:1033600010B50F4B1B681A7802F07F02212A01D09A
:10337000022010BDFF28FBD15A88002AF8D15C68D2
:10338000002CF5D1012004F0C5FF022004F0B2FFAB
:10339000044B054A05491C701160204610BD00BF52
:1033A000103000205E3400203C340020555342434E
:1033B0000B4B1B681A7802F07F02212A01D00220F1
:1033C0007047FE28FBD158880028F8D15A68B2F51A
:1033D000803FF4D103490122588299611A827047D3
:1033E0001030002095310008014B5860704700BF35
:1033F00010E000E00128084B04D0023007D0002282
:103400009A6070471A6842F001021A6070471A68A1
:1034100022F001021A60704710E000E0054B1A68C4
:1034200018B922F002021A60704742F002021A60D4
:10343000704700BF10E000E0014B9868704700BF84
:1034400010E000E0C308022B044B0CBF1B68DB68D4
:1034500023FA00F000F00100704700BF10E000E028
:10346000704700BFFEE700BFFEE700BFFEE700BFFA
:10347000FEE700BF704700BF704700BF704700BF46
:103480000E4B10B41A6812B11A68013A1A600C494E
:103490000B6863B90B486424D0E90023013243F17F
:1034A00000030C60C0E900235DF8044B70470B6813
:1034B0005DF8044B013B0B60704700BFB40900206E
:1034C000D0010020282C002004F032BD07F0FEBE01
:1034D000704700BF4FF08042138A70B5DB0728D5D4
:1034E000138A194C23F001031B041B0C174D138284
:1034F0002978D4E90023013243F10003C4E9002311
:10350000B9B1134E11F0010FD6E9000112D110F537
:10351000FA7041F100018B4208BF824209D30120B9
:10352000FCF764FFD4E900232978C6E900234B1E89
:103530002B7070BD10F5FA6041F100018B4208BF9D
:103540008242F6D30020EBE7080700201007002096
:1035500018070020EFF30980704700BF80F3098847
:10356000704700BFEFF30880704700BF80F3088802
:10357000704700BFEFF31280704700BF80F31188DF
:10358000704700BFEFF31080704700BF80F31088D2
:10359000704700BFEFF31380704700BF80F31388BC
:1035A000704700BF00BA704740BA7047C0BA704752
:1035B00090FAA0F0704700BFD0E84F0FC0B270473C
:1035C000D0E85F0F80B2704750E8000F704700BF2F
:1035D000C1E8430F18467047C1E8530F18467047BB
:1035E00041E80000704700BFEFF31480704700BF50
:1035F00080F31488704700BF3A4B10B418683A49FA
:1036000040F00100186058680022014059601968B4
:1036100083B021F0847121F48031196019681C464F
:1036200021F480211960596821F4FE0159609A60E3
:10363000009201921A6842F480321A6003E0009B03
:10364000B3F5A06F09D0236803F400330193009B06
:1036500001330093019B002BF1D0224B1B6813F424
:10366000003318BF01230193019B012B00D0FEE71B
:103670001E4A1C4B1068194640F01000106010687C
:1036800020F003001060106840F0020010605A68DB
:103690005A605A685A605A6842F480625A605A689E
:1036A00022F47C125A605A6842F488125A601A68EE
:1036B00042F080721A600A680A4B9201FBD55A6880
:1036C000194622F003025A605A6842F002025A6018
:1036D0004B6803F00C03082BFAD103B05DF8044BE0
:1036E000704700BF001002400000FFF800200240B9
:1036F000FEE700BF1149124B10B499420BD2C843E8
:10370000184420F003000F4C04300023E258CA5044
:1037100004338342FAD10C4B0C4A93420AD2D94368
:10372000114421F0030119440022043B43F8042F03
:103730008B42FBD15DF8044B704700BF00000020B6
:10374000FC06002024D000080007002018360020C6
:10375000704700BF684620F007018D4619B5FFF796
:10376000F7FF194880F308881249134B99420BD28E
:10377000C843184420F00300104C04300023E258E2
:10378000CA5004338342FAD10D4B0E4A93420AD2F7
:10379000D943114421F0030119440022043B43F8AA
:1037A000042F8B42FBD108F09BFFBDE819408546F2
:1037B000704700BF00000020FC06002024D0000855
:1037C00000070020183600200050002040F0BF60A5
:1037D000024B40F40030D860704700BF00ED00E0BD
:1037E000C37830B45BB90378012103F01F02914024
:1037F00030BC5B09144A203342F823107047134B46
:103800004478DB680F22DB43C3F30223C3F10401D6
:1038100022FA03F38C408578017803EA05022243FB
:1038200001F160431201D2B203F5614383F8002332
:103830000378012103F01F02914030BC024A5B096A
:1038400042F82310704700BF00E100E000ED00E007
:1038500021F0604121F07F01014B084398607047DF
:1038600000ED00E0044B1A6919B922EA0000186162
:10387000704710431861704700ED00E0044B0428C6
:103880001A680CBF42F0040222F004021A6070476A
:1038900010E000E008B5184B984220D003F5A05383
:1038A000984210D0A3F5C053984200D008BD4FF401
:1038B0000070012102F076F9BDE808404FF4007075
:1038C000002102F06FB94FF40040012102F06AF9C3
:1038D000BDE808404FF40040002102F063B94FF406
:1038E0008060012102F05EF9BDE808404FF480607D
:1038F000002102F057B900BF0028014043680A6860
:1039000023F4702330B423F480730C79134343EA17
:103910000423436085688C68CA68094B22432B40A6
:103920004D79134343EA450383600B7CC26A013B34
:10393000DBB222F4700242EA0353C36230BC704728
:10394000FDF7F1FF0023012202740360037143714C
:103950008360C360704700BF836819B923F0010317
:103960008360704743F0010383607047836819B92F
:1039700023F480738360704743F4807383607047DF
:10398000C9B243681AB923EA01014160704719437B
:1039900041607047836843F008038360704700BF4D
:1039A0008068C0F3C0007047836843F004038360FD
:1039B000704700BF8068C0F380007047836819B902
:1039C00023F4A0038360704743F4A003836070472F
:1039D0008068C0F3805070474368013923F4604326
:1039E00043EA413343607047436819B923F40063E5
:1039F0004360704743F4006343607047092970B423
:103A00001FD9A1F10A0404EB44040726A64003FAD7
:103A100004F4C568062A25EA060343EA0403C360E2
:103A20001DD90C2A29D970BC0D3A02EB82021F2342
:103A3000934001FA02F2C16A21EA03031A43C26207
:103A4000704701EB41040726A64003FA04F4056918
:103A5000062A25EA060343EA04030361E1D870BCA1
:103A6000013A02EB82021F23934001FA02F2416BFA
:103A700021EA03031A4342637047073A02EB8202CA
:103A80001F23934070BC01FA02F2016B21EA030389
:103A90001A430263704700BF836819B923F4801387
:103AA0008360704743F4801383607047C06C80B2BA
:103AB000704700BF014B1868704700BF4C2401409D
:103AC000436819B923F480634360704743F480630B
:103AD00043607047436819B923F4805343607047CB
:103AE00043F4805343607047836823F4E0431943F1
:103AF00081607047836819B923F40043836070477D
:103B000043F4004383607047836819B923F40213B8
:103B10008360704743F40213836070478068C0F38A
:103B200040507047092970B41BD801EB41040726A7
:103B3000A64003FA04F4056925EA0603234303615A
:103B4000836B0232C3F30154121BD2B202EB820226
:103B50001F249440914023EA04030B43836370BC09
:103B60007047A1F10A0404EB44040726A64003FAB7
:103B700004F4C56825EA06032343C360E0E700BFF9
:103B8000836B013923F4401343EA01538363704785
:103B9000425070472831405880B27047436823F440
:103BA000400323F40073194341607047416282620D
:103BB000704700BF436823F01F03194341607047FB
:103BC000054B9A6818B922F400029A60704742F4D3
:103BD00000029A60704700BF002401400368194248
:103BE0000CBF002001207047C9430160704700BF2F
:103BF0004368006810EA112004D0C9B219420CBF12
:103C000000200120704700BF6FEA1121016070475A
:103C100008B5012001F0DEFFBDE80840002001F0FA
:103C2000D9BF00BF014B1860704700BF04860D422A
:103C3000014B1860704700BF00860D42014B1860B1
:103C4000704700BF88860D42044A938D23F4607349
:103C50001B041B0C18439085704700BF006C00408C
:103C6000044A938D23F07F031B041B0C184390859B
:103C7000704700BF006C004000F1804000F5D84064
:103C80000180704700F1804000F5D840008880B284
:103C9000704700BF014B1868C0B27047A0860D4244
:103CA000034B9A8E92B242F001029A86704700BF8F
:103CB000006C0040014B1868C0B27047A4860D42EA
:103CC000034B9A8E92B242F002029A86704700BF6E
:103CD000006C004008B5084B984200D008BD4FF07A
:103CE0000070012101F06AFFBDE808404FF000704C
:103CF000002101F063BF00BF00640040036830B4DE
:103D000023F00203036002684FF6FF7342F00102E2
:103D1000026001E0013B02D04268D407FAD5436853
:103D200013F0010357D00B78012B03680CBF43F04D
:103D3000800323F0800303604B78012B03680CBFE2
:103D400043F0400323F0400303608B78012B0368AA
:103D50000CBF43F0200323F020030360CB78012B3A
:103D600003680CBF43F0100323F0100303600B79CA
:103D7000012B03680CBF43F0080323F00803036022
:103D80004B79012B03680CBF43F0040323F00403B9
:103D900003608B79CA790D7A9B074C7A43EA0262F9
:103DA0004B8942EA054242EA0452013B1343C36194
:103DB00002684FF6FF7322F00102026001E0013B4E
:103DC00002D04268D207FAD4406830BC00F001004B
:103DD00080F001007047184630BC7047037870B41B
:103DE00001249C40394BE243D3F8001241F0010119
:103DF000C3F80012D3F81C121140C3F81C128178CA
:103E0000B9B9D3F80C1246891140C3F80C120178E5
:103E1000C588483145EA064543F83150067805899A
:103E2000818803F51073F60041EA05413344596077
:103E30008178012931D0437843BB244BD3F8041255
:103E40001140C3F804128389BBB9204BD3F8141274
:103E50000A40C3F81422837B012B05D11B4BD3F8F6
:103E60001C221443C3F81C42184B70BCD3F8002228
:103E700022F00102C3F800227047012BEBD1134B53
:103E8000D3F814222243C3F81422E4E70F4BD3F8EB
:103E900004122143C3F80412D5E70C4B8688D3F8EB
:103EA0000C12C5882143C3F80C12017845EA064577
:103EB000483143F8315006780589418903F510737C
:103EC000F600334441EA05415960B4E7006400401C
:103ED000002310B4022103240122047241724281A2
:103EE000037043708370C370037143718371C37136
:103EF0005DF8044B704700BF43691AB923EA01011A
:103F00004161704719434161704700BF8368F0B455
:103F10005C01024605D48368180155D50123184673
:103F200001E0002318461C011319D3F8805105F055
:103F30000105C3F880510D7A002D3BD04F68D3F8AE
:103F4000806145EAC7054F7A35433D43C3F8805148
:103F50008D7A224405F00F048C72D3F8845102F557
:103F6000C47425F00F05C3F884518E7AD3F88451B8
:103F70003543C3F884514D7B8E7BCF7A2D0445EABF
:103F800006650E7B3D4345EA0625C2F888514A7C0A
:103F90008E7CCD7B1204097C42EA06622A4342EA07
:103FA00001226260D3F88021F0BC42F00102C3F824
:103FB000802170470D684F7AD3F8806147EA4555F4
:103FC0003543C3F88051C3E79368DB0002D5022371
:103FD0001846A8E70420F0BC704700BF012925D08F
:103FE00015D3022903D0194A0023D05C7047816899
:103FF000836801F480318268890B03F4003341EA5D
:104000001343C2F300721343104AD05C70478168B7
:104010008368826801F0010103F0020343EA81032F
:10402000C2F380621343094AD05C70478168836899
:1040300001F480718268890903F4007341EA132353
:10404000C2F3C0621343014AD05C7047CCCF000872
:1040500001290DD007D3022904D1836843F400035A
:10406000836070477047836843F0800383607047C4
:10407000836843F400438360704700BF202309B185
:1040800003617047C360704731B1012906BF006901
:1040900000F0030000207047C06800F00300704784
:1040A00070B40C010319D3F8B05105F00405EDB25A
:1040B0001572ADBBD3F8B0516D0D1560D3F8B0518A
:1040C000044405F002055572D3F8B46106F00F06FA
:1040D0009672D3F8B4311B0AD374D4F8B831D372C2
:1040E000D4F8B8311B0A1373D4F8B8311B0C5373CE
:1040F000D4F8B8311B0E9373D4F8BC31D373D4F811
:10410000BC311B0A1374D4F8BC311B0C5374D4F8A3
:10411000BC311B0E9374202339B1036170BC70470E
:10412000D3F8B051ED085560C8E7C36070BC704764
:10413000036819B923F480330360704743F4803374
:1041400003607047036823F0030343F00203036036
:10415000406800F00300831E58425841704700BF7A
:10416000036823F0020303604368990707D54FF6FD
:10417000FF7301E0013B02D042689207FAD4406825
:1041800080F00200C0F34000704700BF836919420D
:104190000CBF002001207047836923EA010181617F
:1041A000704700BF202937D00ED9B1F5007F1ED04F
:1041B00025D9B1F5803F1ED0B1F5003F34D0B1F51F
:1041C000806F39D000207047062939D007D90729D8
:1041D0001ED00829F6D1C068C0F30010704704292A
:1041E00026D00529EED1806800F001007047806973
:1041F000C0F3400070474068C0F3C00070474029DA
:104200000ED0B1F5807FDDD1806900F001007047EC
:104210008068C0F3004070470069C0F3C000704779
:104220000069C0F3001070474068C0F30010704789
:10423000C068C0F3C00070478069C0F38000704759
:104240008068C0F300207047202935D00DD9B1F522
:10425000007F1BD022D9B1F5803F1CD0B1F5003FC3
:104260003CD0B1F5806F34D0704706292DD006D9E7
:1042700007291DD0082936D11023C36070470429AF
:1042800020D005292DD1012383607047836923F055
:1042900002038361704708234360704740290ED0B2
:1042A000B1F5807F1ED1836923F0010383617047DC
:1042B0004FF48033836070470823036170471023F5
:1042C000036170470823C36070474FF480738360B5
:1042D0007047836923F004038361704710234360B0
:1042E000C2E7704770477047014B01229A607047E0
:1042F00000300240014B18601868704700300240DF
:1043000039B1054A00EB810150F8043B8842136043
:10431000FAD1014B1868704700300240014B186811
:10432000704700BF00300240014B1871704700BF5A
:1043300000300240014B1879704700BF0030024046
:1043400008B54FF00050012101F038FCBDE80840ED
:104350004FF00050002101F031BC00BF4A680B68EB
:1043600030B48C681343C968234340F6FE75194383
:10437000854001FA00F0044B1A6822EA050108435F
:10438000186030BC704700BF007400400023036019
:1043900043608360C3607047012303FA00F0054B5C
:1043A0001A6819B922EA00001860704710431860B3
:1043B000704700BF007400404FF4805303FA00F0D0
:1043C000044B1A6819B922EA0000186070471043BC
:1043D00018607047007400400123000903FA00F0E0
:1043E000044B5A6819B922EA00005860704710431C
:1043F0005860704700740040054B5A6818B922F0A5
:1044000003025A60704742F003025A60704700BFCF
:10441000007400408140054B22B91A6822EA01016C
:10442000196070471A6811431960704700740040A2
:10443000014BC150704700BF08740040014BC15090
:10444000704700BF147400400828044B0CBF42EAB8
:10445000012142EA0141C150704700BF2074004071
:10446000024B8008C05880B2704700BF2C740040D7
:10447000014B1868000C7047002004E0024B1868DC
:10448000C0F30B00704700BF002004E0044B5A68E3
:1044900019B922EA0000586070471043586070470D
:1044A000002004E001683E4A002321F0010190420F
:1044B0000160036043608360C3604AD00DD9394B0B
:1044C000984226D031D9384B984228D0143398429C
:1044D0005DD0283B984254D07047344B98424AD024
:1044E0000BD9334B98422ED01433984257D1314BCD
:1044F0005A6842F470225A607047283B984234D080
:104500001433984249D12B4B5A6842F0F0025A605A
:104510007047294B5A6842F0F0025A607047264BA8
:104520005A6842F470425A607047A3F56773984224
:1045300015D003F56273984230D11F4B5A6842F090
:104540000F025A6070471B4B5A6842F470425A601F
:104550007047184B5A6842F470025A607047154B06
:104560005A6842F070625A607047124B5A6842F0C3
:104570000F025A6070470F4B5A6842F470625A60DB
:1045800070470D4B5A6842F470625A6070470A4B8C
:104590005A6842F470225A609EE77047704770472D
:1045A0006C0002401C0402404404024030000240FF
:1045B0004400024000000240000402408A68F0B457
:1045C0000C6A0B6914434A691C438B69CE69224308
:1045D00007684D6A13438C6A1E43354327F4FF4333
:1045E000CE680F684A682C4323F0700323430360AE
:1045F00046608760C260F0BC704700BF0023036064
:1046000043608360C360036143618361C36103628C
:1046100043628362704700BF036819B923F0010346
:104620000360704743F001030360704703681AB9E1
:1046300023EA01010160704719430160704700BF20
:10464000406880B2704700BFC3004CBF034B044BAF
:104650001B6803420CBF0020012070470004024089
:1046600000000240C3004CBF014B024B5860704732
:104670000004024000000240C3004CBF034B044B47
:104680001B6803420CBF0020012070470004024059
:1046900000000240C3004CBF014B024B5860704702
:1046A0000004024000000240044B054900221A6049
:1046B0005A609A60DA605961704700BF0004014097
:1046C000FFFF0700837930B42BB31D4B01681A68D4
:1046D000CC4322401A605D6802792C4002F180428E
:1046E0005C6002F5823215684479294311600268E2
:1046F0009868D14308409860D868102C01EA0001FE
:10470000D96014D004F1804303F58233196830BCBA
:104710000A431A6070470379016803F1804303F587
:1047200082331A6830BC22EA01021A607047996825
:1047300030BC11439960D9680A43DA60704700BF02
:104740000004014000230C22427103600371837155
:10475000704700BF024B1A6910431861704700BFD1
:1047600000040140034B5B6918420CBF002001208C
:10477000704700BF00040140014B5861704700BF03
:1047800000040140054B1A685B69034004D01042E5
:104790000CBF0020012070471846704700040140FC
:1047A000014B5861704700BF00040140034B1A6879
:1047B00002F0380210431860704700BF002002402A
:1047C000044B1A6822F008021A601A681043186035
:1047D000704700BF00200240044B1A6822F010020C
:1047E0001A601A6810431860704700BF002002402A
:1047F000024B0349034A59605A6070470020024047
:1048000023016745AB89EFCD024B1A6942F0800264
:104810001A61704700200240014BD8698008704738
:1048200000200240014B186A704700BF0020024080
:10483000024BD869C0F34000704700BF002002401F
:10484000024B1868C0F34010704700BF00200240C0
:10485000044B1A6919B922EA000018617047104325
:1048600018617047002002400128064B05D0DB6824
:1048700018420CBF002001207047D86900F00100E9
:10488000704700BF00200240014BD860704700BF56
:1048900000200240084BDA68D1070BD4DA685207CF
:1048A00001D502207047DB6813F0100F0CBF042005
:1048B00003207047012070470020024070B582B08D
:1048C0000446FFF7E7FF012817D19CB10026FF251A
:1048D00001960195019B2BB1019B013B0193019B2B
:1048E000002BF9D1FFF7D6FF012804F1FF3404D1E2
:1048F000002CEDD1052002B070BD002CFAD002B022
:1049000070BD00BF38B5054640F6FF70FFF7D6FF13
:10491000042800D038BD0B4C40F6FF70236943F0EB
:10492000020323616561236943F040032361FFF7BC
:10493000C5FF0128EED0226941F6FD7313402361C3
:1049400038BD00BF0020024010B540F6FF70FFF7F1
:10495000B5FF042800D010BD0A4C40F6FF70236953
:1049600043F004032361236943F040032361FFF70D
:10497000A5FF0128EFD0226941F6FB7313402361A4
:1049800010BD00BF0020024010B540F6FF70FFF7D9
:1049900095FF042800D010BD164C174A174BA26093
:1049A000A360236940F6FF7043F02003236123696D
:1049B00043F040032361FFF781FF042807D001285B
:1049C000E9D0226941F6EF731340236110BD2269DB
:1049D00041F6DF73134023612169094B41F0100157
:1049E000A52221610F201A80FFF768FF0128E8D176
:1049F000D1E700BF0020024023016745AB89EFCD1E
:104A000000F8FF1F70B504460F200D46FFF756FF54
:104A1000042800D070BD0E4EABB232690F2042F0B8
:104A2000010232612380FFF749FF042807D00128E3
:104A3000F0D0326941F6FE731340336170BD2D0C26
:104A400065800F20FFF73AFF0128F2D1E2E700BFAF
:104A50000020024070B504460F200D46FFF72EFFE0
:104A6000042800D070BD084E0F20336943F00103C5
:104A700033612580FFF722FF0128F3D0326941F628
:104A8000FE731340336170BD0020024070B50546CF
:104A90000F200E46FFF712FF042800D070BD0A4C0D
:104AA0000A4A0B4BA260A36023690F2043F0100356
:104AB00023612E80FFF702FF0128EFD0226941F623
:104AC000EF731340236170BD00200240230167454E
:104AD000AB89EFCD38B505460F20FFF7EFFE042870
:104AE000044601D0204638BD1E4B1F491F4A99601D
:104AF0009A601969ED43EAB241F01001FF2A196189
:104B000011D01B4B0F201A81FFF7D8FE04280AD0C2
:104B100001280446E6D0134A41F6EF731169204696
:104B20000B40136138BDC5F30723FF2B06D0104A95
:104B30000F205381FFF7C2FE0428E9D1C5F30743D4
:104B4000FF2B06D00A4A0F209381FFF7B7FE0428F7
:104B5000DED12D0EFF2DDED0054B0F20DD81FFF7BE
:104B6000ADFED5E70020024023016745AB89EFCDBC
:104B700000F8FF1F38B5054640F6FF70FFF79EFEB0
:104B8000042800D038BD1C4C1C4A1D4BA260A360F9
:104B9000236940F6FF7043F020032361236943F04B
:104BA00040032361FFF78AFE042807D00128E9D0DB
:104BB000226941F6DF731340236138BD226941F653
:104BC000DF7313402361236943F0100323610D4B0E
:104BD00075B9A5221A8040F6FF70FFF76FFE012815
:104BE000D0D0054A41F6EF7311690B40136138BD0F
:104BF00000221A80EFE700BF002002402301674532
:104C0000AB89EFCD00F8FF1FF8B5114C114D124BD9
:104C1000A5600646A3600F200D461746FFF74EFE1F
:104C2000042800D0F8BD226947F0F8070B4B3D433C
:104C300042F010022E4322610F205E80FFF73EFEFD
:104C40000128EFD0226941F6EF7313402361F8BDCC
:104C50000020024023016745AB89EFCD00F8FF1F1C
:104C600010B44FF0204380B143F2D20243F8202029
:104C7000084A441C6FF070434FF0204141F8243043
:104C800042F820305DF8044B704743F2DB021A60B3
:104C9000EEE700BF040100A010280CBF054B064B37
:104CA0004FF0FC3218204021186059609A60DA6099
:104CB000704700BF600000A0800000A0054B4FF0CF
:104CC000FC3218200021186059609A60DA601A617D
:104CD000704700BFA00000A083684268C168F0B4BC
:104CE00043EA020602690E434169164382690E4394
:104CF000C1691643026A3143446A41EA0206816A85
:104D000002683443C56A44EA01069400354304F15D
:104D10002044082B256021D0036B571C1D689E6919
:104D20005C682E439D6846EA0416DC6846EA052561
:104D30001E6945EA04445B6944EA065444EA036494
:104D4000B1F5804F4FF0204343F827400BD0F0BC23
:104D50000F4B6FF0704143F822107047236843F007
:104D600040032360D8E7436B094D19689C69586874
:104D70000C4399681E6944EA00105B6940EA01210E
:104D800041EA065141EA036145F82210F0BC704740
:104D9000040100A0C2692DE9F00781684768036A31
:104DA000966847EA0109C768516804699D684FEA37
:104DB000064A49F00809166849EA07094AEA012A39
:104DC000D1685A6847694FEA054849EA04091D68ED
:104DD00084690068DB6848EA022848EA050210286E
:104DE00042EA036249EA47290CBF074B074B4AEAEC
:104DF000060A49EA44344AEA01611C609960BDE848
:104E0000F007DA60704700BF600000A0800000A0DB
:104E100090E80C0042F01001826841EA4321154BF2
:104E200041EA4231C26870B41960946851681568EB
:104E30002404D26844EA0121294341EA026102695B
:104E400099609468516816682404D56844EA012181
:104E50003143426941EA0561D9609068516814683C
:104E60000004D26840EA0121214341EA026119614C
:104E700070BC7047A00000A0F0B4416B046B00232D
:104E80000F22FF254FF480574FF400564FF0020CCD
:104E900007624662C0F804C003608360C3600361B8
:104EA00043618361C3618362C362A3612260626004
:104EB000E26022616261A5608D600A604A60CA603A
:104EC0000A614A618B61F0BC704700BF30B4016A6F
:104ED000C469FC2300221025056042608260C26024
:104EE00002614261826123606360A360E3600B60E2
:104EF0004B608B60CB6030BC704700BF30B4016941
:104F0000C4684269FC230025056045608560236014
:104F10006360A360E3600B604B608B60CB6030BC70
:104F2000136053609360D360704700BF800000F14E
:104F3000204021B90268044B1340036070470368A6
:104F400043F0010303607047FEFF0F0041B11028DA
:104F50000CBF084B084B1A6842F004021A607047F5
:104F600010280CBF034A044A044B11680B4013601D
:104F7000704700BF600000A0800000A0FBFF0F0092
:104F800028B9064A064B11680B4013607047034B63
:104F90001A6842F004021A60704700BFA00000A027
:104FA000FBFF0F0041B110280CBF084B084B1A68DB
:104FB00042F040021A60704710280CBF034A044AAE
:104FC000044B11680B401360704700BF600000A0E5
:104FD000800000A0BFFF0F0010280CBF014B024B48
:104FE00058697047600000A0800000A052B11028EE
:104FF0001AD0B0F5807F0CBF0E4B0F4B5A6811438F
:1050000059607047102809D0B0F5807F0CBF094B5C
:10501000094B5A6822EA010159607047074B5A68E8
:1050200022EA010159607047044B5A6811435960E4
:10503000704700BF800000A0A00000A0600000A09A
:1050400010280AD0B0F5807F0CBF054B054B5B687C
:105050000B420CBF002001207047034B5B68F7E751
:10506000800000A0A00000A0600000A0102809D0CF
:10507000B0F5807F0CBF064B064B5A6822EA01014F
:1050800059607047044B5A6822EA01015960704721
:10509000800000A0A00000A0600000A010280ED09A
:1050A000B0F5807F0CBF074B074B5B6813EA01002C
:1050B00004D013EAD1010CBF002001207047034B3C
:1050C0005B68F3E7800000A0A00000A0600000A0E3
:1050D000102809D0B0F5807F0CBF064B064B5A68EC
:1050E00022EAD10159607047044B5A6822EAD10183
:1050F00059607047800000A0A00000A0600000A0E0
:1051000008B5324B984256D00BD9314B984234D027
:1051100003F5806398421AD0A3F50063984236D015
:1051200008BDA3F5006398423BD003F58063984225
:1051300019D0A3F500639842F2D10420012100F0B8
:1051400031FDBDE808400420002100F02BBD4FF4E4
:105150008070012100F026FDBDE808404FF480700A
:10516000002100F01FBD1020012100F01BFDBDE853
:1051700008401020002100F015BD8020012100F022
:1051800011FDBDE808408020002100F00BBD40204B
:10519000012100F007FDBDE808404020002100F09B
:1051A00001BD0820012100F0FDFCBDE808400820F9
:1051B000002100F0F7BC2020012100F0F3FCBDE845
:1051C00008402020002100F0EDBC00BF0014014089
:1051D000001C014008B50120014600F0E3FCBDE8D9
:1051E00008400120002100F0DDBC00BF2DE9F003E4
:1051F000CD78EB0648BF8B78098805F00F0748BFCC
:105200001F4311F0FF0F23D0D0F800C00023012668
:105210004FF00F0802E00133082B17D006FA03F213
:1052200002EA01049442F6D19A0008FA02F907FA58
:1052300002F22CEA090C282D4CEA020C35D0482D3C
:1052400003F1010308BF0461082BE7D1C0F800C0D7
:10525000FF2925D9D0F804C0002301264FF00F08FC
:1052600002E00133082B19D003F1080206FA02F21A
:1052700002EA01049442F4D19A0008FA02F907FA0A
:1052800002F22CEA090C282D4CEA020C0BD0482D16
:1052900003F1010308BF0461082BE5D1C0F804C085
:1052A000BDE8F00370474461DBE74461B3E700BF4A
:1052B0004FF6FF710222042301808270C370704791
:1052C000836819420CBF002001207047806880B2BB
:1052D000704700BFC36819420CBF0020012070470F
:1052E000C06880B2704700BF01617047416170477C
:1052F0000AB9416170470161704700BFC1607047E2
:1053000041F480338361816183618369836970477C
:10531000064B10B41C684FF680722240114341EADC
:10532000001018605DF8044B704700BF000001409A
:10533000014B1860704700BF1C00204230B4164A71
:1053400000F44014B4F5401F85B253681CD0C2026B
:1053500011D5C0F30342032404FA02F223EA020344
:1053600043F0706319B1400D000185402B430A4A98
:1053700030BC53607047420D120105FA02F223EA75
:10538000020343F07063EDE7546823F0706324F088
:1053900070645460E6E700BF0000014001F00303C1
:1053A0009B000F229A4000FA03F301F0FC0101F187
:1053B000804101F58031886820EA02028A608A68AB
:1053C00013438B60704700BF08B5104B984210D054
:1053D00003F5806398420BD14FF48000012100F067
:1053E000EDFBBDE808404FF48000002100F0E6BB73
:1053F00008BD4FF40010012100F0E0FBBDE80840BB
:105400004FF40010002100F0D9BB00BF0054004051
:10541000F0B587B00446868801A80D4600F04EFB23
:1054200003992F4826F03F06A0FB01303604800C7C
:10543000360C87B23E43A6802388EA6823F0010336
:10544000284E1B041B0CB242238023D85300B1FB0F
:10545000F3F39BB2032B07F1010798BF04232784C2
:10546000A3832388EE889BB243F001032380238823
:10547000288823F4816323F00203A9882A891B0466
:1054800030431B0C03430A439BB292B22380228118
:1054900007B0F0BD6E884BF6FF739E421AD002EB48
:1054A000820202EB8202B1FBF2F39BB243F480432F
:1054B000C3F30B020AB943F001034FF4967202FBE7
:1054C00000F0094A43F4004382FB001080090130D8
:1054D0002084C5E702EB4202B1FBF2F39BB2E7E79F
:1054E00083DE1B43A0860100D34D6210002310B45D
:1054F0004FF480414BF6FF7441F2883244800181C1
:10550000C26003808380C3805DF8044B704700BF96
:10551000038829B923F001031B041B0C0380704787
:105520009BB243F001030380704700BF838829B911
:1055300023F400631B041B0C838070479BB243F46D
:1055400000638380704700BF838829B923F48053A8
:105550001B041B0C838070479BB243F480538380F1
:10556000704700BF038829B923F480731B041B0C08
:10557000038070479BB243F480730380704700BF81
:10558000038829B923F400731B041B0C03807047A4
:105590009BB243F400730380704700BF038829B9AE
:1055A00023F480631B041B0C038070479BB243F4FD
:1055B00080630380704700BF838901F0FE019BB2C6
:1055C00023F0FE030B438381704700BF838929B911
:1055D00023F001031B041B0C838170479BB243F033
:1055E00001038381704700BF038829B923F040037A
:1055F0001B041B0C038070479BB243F040030380E5
:10560000704700BF83889BB21AB923EA01018180E9
:10561000704719438180704701827047008AC0B289
:10562000704700BF1AB901F0FE010182704741F0D6
:1056300001010182704700BF82B00190019BC85AEE
:1056400080B202B0704700BF038819B9C3F30E03DC
:10565000038070476FEA43436FEA53439BB2038072
:10566000704700BFB1F5005F038805D023F40053F5
:105670001B041B0C038070479BB243F40053038050
:10568000704700BF038829B923F480531B041B0C07
:10569000038070479BB243F480530380704700BF80
:1056A000B1F5006F038805D023F400631B041B0CC5
:1056B000038070479BB243F400630380704700BFD0
:1056C000038829B923F020031B041B0C03807047B7
:1056D0009BB243F020030380704700BF008BC0F3F0
:1056E00007207047038829B923F010031B041B0C03
:1056F000038070479BB243F010030380704700BFE4
:10570000038829B123F080031B041B0C038070471E
:105710009BB243F080030380704700BFB1F5804F18
:10572000838B05D023F480431B041B0C83837047B9
:105730009BB243F480438383704700BF828A038B0C
:1057400090B240EA034020F07F407047828A038B8A
:1057500090B240EA034020F07F40431A584258413B
:10576000704700BF82B000230A0F0093019301909D
:105770000092009B21F07F4153B1019B14330193B0
:10578000019B1B6819420CBF0020012002B070472A
:10579000019B090C18330193F2E700BFC94389B29A
:1057A000818270478388808A9BB280B2084006D08D
:1057B00001F0E06113EA11410CBF002001207047A5
:1057C000C94389B281827047014B1860704700BF9E
:1057D00000300040014B5860704700BF003000406F
:1057E000014B9860704700BF00300040024B4AF602
:1057F000AA221A60704700BF00300040024B4CF6EE
:10580000CC421A60704700BF00300040034BDB6899
:1058100018420CBF00200120704700BF003000403C
:1058200008B54FF08050012100F0C8F9BDE80840EC
:105830004FF08050002100F0C1B900BF014B18604B
:10584000704700BF20000E42014B1860704700BF38
:1058500010000E42034B1A6822F0E0021043186059
:10586000704700BF00700040014B1860704700BFD8
:10587000A0000E420A4A10B414680A4B24F0030434
:10588000204310601A68012942F004021A6003D014
:1058900020BF5DF8044B704730BF5DF8044B704784
:1058A0000070004010ED00E0074B084A196841F015
:1058B00004011960196841F002011960136843F08E
:1058C0000403136030BF70470070004010ED00E02B
:1058D000034B5B6818420CBF00200120704700BFDB
:1058E00000700040024B1A6842EA8000186070475E
:1058F000007000400C4B0D4A1868002140F0010078
:105900001860586802405A601A6822F0847222F4C3
:1059100080321A601A6822F480221A605A6822F4CF
:10592000FE025A6099607047001002400000FFF8C4
:105930000C4BB0F5803F1A6822F480321A601A6866
:1059400022F480221A6008D0B0F5802F04D11A68A2
:1059500042F4A0221A60704770471A6842F48032FD
:105960001A6070470010024082B000230A4A019377
:1059700006E0019B01330193019BB3F5A06F05D0B5
:1059800013689B03F5D5019B01330193024B186803
:10599000C0F3404002B0704700100240034B1A6849
:1059A00022F0F80242EAC00018607047001002407E
:1059B000014B1860704700BF00004242034B5A6819
:1059C00022F47C12114308435860704700100240D3
:1059D000014B1860704700BF60004242034B5A6899
:1059E00022F0030210435860704700BF00100240CD
:1059F000024B586800F00C00704700BF00100240D6
:105A0000034B5A6822F0F00210435860704700BF01
:105A100000100240034B5A6822F4E06210435860C1
:105A2000704700BF00100240034B5A6822F46052D6
:105A300042EAC0005860704700100240044B1A78D8
:105A400019B922EA000018707047104318707047A7
:105A500009100240014B1860704700BFD800424255
:105A6000034B5A6822F4404210435860704700BF0D
:105A700000100240064B002201281A701A7005D04F
:105A8000042802D105221A707047704718707047B9
:105A900020100240014B1860704700BF8004424252
:105AA000024B1A6A10431862704700BF0010024090
:105AB000014B1860704700BF3C044242214A10B4B9
:105AC000536803F00C03042B23D0082B24D01E4969
:105AD00001601C4A1D4B5468C4F303141C5DE14073
