:020000040800F2
:1000000000040020B5320008F52F0008F92F000881
:10001000FD2F000801300008053000080000000036
:10002000000000000000000000000000093000088F
:100030000D300008000000001130000815300008E5
:100040005132000851320008513200085132000884
:100050005132000851320008513200085132000874
:100060005132000851320008513200085132000864
:100070005132000851320008513200085132000854
:10008000513200085132000851320008293000086E
:100090002D3000085132000851320008513200085A
:1000A0005132000851320008513200085132000824
:1000B0003530000851320008513200085132000832
:1000C0005132000851320008513200085132000804
:1000D00051320008513200085132000851320008F4
:1000E00051320008513200085132000851320008E4
:1000F00051320008513200085132000851320008D4
:1001000051320008313000085132000851320008E5
:1001100051320008513200085132000851320008B3
:1001200051320008513200085132000851320008A3
:1001300000000000000000000000000000000000BF
:1001400000000000000000000000000000000000AF
:10015000000000000000000000000000000000009F
:10016000000000000000000000000000000000008F
:10017000000000000000000000000000000000007F
:10018000000000000000000000000000000000006F
:10019000000000000000000000000000000000005F
:1001A000000000000000000000000000000000004F
:1001B000000000000000000000000000000000003F
:1001C000000000000000000000000000000000002F
:1001D000000000000000000000000000000000001F
:0401E0005FF8E0F1F3
:1001E400054A06481368022101331360DB0701D472
:1001F40004F02ABE04F02ABE60020020000C014074
:1002040010B5082082B0012105F064FA02241022FE
:100214000323064801A9ADF804408DF807208DF8A2
:10022400063004F093FD02B010BD00BF000C014085
:1002340010B5102082B0012105F04CFA04220323EA
:10024400302406480DEB0201ADF804408DF8072078
:100254008DF8063004F07AFD02B010BD00100140A4
:10026400704700BF10B5042082B0012105F032FAB6
:10027400802410220323064801A9ADF804408DF818
:1002840007208DF8063004F061FD02B010BD00BFF8
:100294000008014010B5082082B0012105F01AFAC7
:1002A400012410220323064801A9ADF804408DF867
:1002B40007208DF8063004F049FD02B010BD00BFE0
:1002C400000C014010B5042082B0012105F002FAAF
:1002D400012448220323064801A9ADF804408DF8FF
:1002E40007208DF8063004F031FD02B010BD00BFC8
:1002F4000008014010B5012084B0014605F0F6F96C
:1003040000244FF4E153092201A94FF08040ADF8D5
:100314000430ADF80820ADF80A40ADF8064005F009
:1003240013FE4FF08040012106F0D4F801210A4663
:100334004FF0804006F0ECF81C22012368468DF84B
:1003440001408DF802408DF800208DF8033002F052
:10035400F5FF04B010BD00BF0148012104F060BDE9
:100364000008014001284FF08001034801D004F047
:100374006BBD04F06BBD00BF00080140012803D031
:100384000348012104F062BD0146014804F05CBD4C
:10039400000C0140024B1A7810441870704700BFDB
:1003A4007002002008B5002005F004F9BDE80840FB
:1003B4004FF40000012105F099B900BF014B03225D
:1003C4001A60704728050020054B1B689B7A1BB9EF
:1003D400044B01221A607047024B05221A607047D1
:1003E400080900202805002030B54FF4C06083B010
:1003F40002F09AFF012401A8142300258DF804308B
:100404008DF805408DF806408DF8074002F096FF00
:1004140001A813238DF804308DF805408DF80740AA
:100424008DF8065002F08AFF312301A88DF80740A9
:100434008DF805508DF806508DF8043002F07EFFDB
:1004440003B030BD20B905484FF4806104F0FEBC10
:1004540002484FF4806104F0F7BC00BF000801407B
:10046400092894BF30303730C0B2704770B501F0FE
:100474001BFB0A2001F044FB04460B2001F040FB67
:1004840005460C2001F03CFB06460D2001F038FB2C
:1004940000EB062000EB0540314B00EB0460586094
:1004A40000285CD02F4B010F3022092998BF8918EE
:1004B40083F8302083F82E2083F82C2083F82A2018
:1004C40083F8282083F8262083F8242083F8222028
:1004D40083F820209A771A779A761A769A751A757D
:1004E4009A74C0F3036288BF3731092A997094BFA4
:1004F40002F1300102F13701C0F30352092A1971E4
:1005040094BF02F1300102F13701C0F30342092A1A
:10051400997194BF02F1300102F13701C0F3033243
:10052400092A197294BF02F1300102F13701C0F3B4
:100534000322092A997294BF02F1300102F13701B2
:10054400C0F30312092A00F00F0094BF303237328F
:10055400092894BF3030373019739A73187470BDFA
:1005640070020020B000002002F0F4BD4FF480704F
:10057400012105F0A3B800BF10B5042082B0012109
:1005840005F0A8F84FF480640322102301A907485A
:100594008DF806208DF80730ADF8044004F0D6FB42
:1005A4000020FFF74FFF02B010BD00BF000801405C
:1005B40008B502F0CFFDFFF7DFFFFFF739FEFFF7C5
:1005C40051FEFFF767FE4020012105F077F8FFF7A1
:1005D40091FEFFF777FEBDE8084000F029B800BFA0
:1005E4004278037803EB022080B2704700231A4656
:1005F400C118C978013B01EB0222191DF8D110463C
:10060400704700BFF0B400210746002600200B020B
:10061400B919CC79020243EA1063013EA0184FF0E5
:10062400000545EB030116F1080FF0D1F0BC70474B
:1006340030B40648064D0023064C074A07492B7080
:1006440003702370116030BC704700BFF9060020AE
:1006540090050020F506002080020020940500206B
:1006640038B50A4A0A4D10790A4C0B49002301286F
:10067400156023700B7003D10B7843F008030B70E3
:1006840000F0BAFC054B00221A7038BD800200202D
:1006940094050020F506002090050020F9060020AE
:1006A40038B50A4A0A4D10790A4C0B49002301282F
:1006B400156023700B7003D10B7843F008030B70A3
:1006C40000F09AFC054B00221A7038BD800200200D
:1006D40094050020F506002090050020F90600206E
:1006E400012810B5044613D00CD3022809D11021D7
:1006F40007F096FA20464FF48051BDE8104007F009
:10070400A5BA10BD02201021BDE8104007F088BA38
:1007140002204FF48051BDE8104007F097BA00BFA3
:1007240010B5022007F05EFC044C03460246238009
:100734000348D821BDE8104007F002BA400D00205C
:100744005C0D0020F8B5494D494C2B7813B9494A42
:10075400A3602260022007F045FCC6B2324620683E
:10076400D82107F0EDF9A36822682978334432448C
:10077400A36022603E4869B1C268961B002EE66001
:100784001BDD02232B7002204FF44051BDE8F840DA
:1007940007F05CBA374A517892F802C00A31D77828
:1007A40001EB0C21C1609FB10A46961B324F042015
:1007B400002E27602870E660E3DC11D107232B703C
:1007C4002E4B00211A78A16042F001021A70F8BD84
:1007D4001279002AE8D1B1F58D7FE5DA0A46CCE733
:1007E40008DA06232B70234BFF225A709A70DA70B2
:1007F4001A71E5E72A78911E0529E1D801A050F87D
:1008040021F000BF8B070008210800084B080008EE
:1008140021080008EB070008C5070008B3B9032A3C
:100824000CBF072206222A70F61A002EE660104931
:100834000FDD2A780D48032AC9D10A68022413441B
:1008440004700B60F8BD05232B70F8BDFF2BEBD1B2
:10085400BDE707D12A78054B032A0CBF07220622DD
:100864001A70F8BDB3DA06232B70F8BDF506002024
:1008740080020020940500209E05002090050020A1
:10088400F8B5384C2078092834D00A2821D0082813
:1008940000D0F8BD3448354D8278437843EA0222CB
:1008A4000A32B2F5977F4EDD4FF497732860EB6000
:1008B4002D484FF48C71402207F024F92A68EB6824
:1008C4004032403B0926022040212A60EB6026701A
:1008D40022E0274B274D1F780022032647F002070A
:1008E40002204FF440511F702E70227007F0AEF9B1
:1008F4002078F8BD1D4DEA683F2A15DC92B22868BD
:100904004FF48C7107F0FEF8EB682A6899B20A2656
:10091400134402202B60267007F00EFB02203021C6
:1009240007F07EF92078F8BD28684FF48C714022D6
:1009340007F0E8F82A68EB684032403B0220402187
:100944002A60EB60E8E73F2AEA602860B0DC4FF4F5
:100954008C7192B207F0D6F80A23A9890220237079
:10096400DAE700BFF506002094050020800200208D
:1009740090050020420D002010B5294C2378DB0798
:100984001AD5284B1B78613B112B45D8DFE803F0BF
:10099400151A21443A44444444443F262B303544F8
:1009A400440900F0CFFD00F015FE21781E4B01F044
:1009B400FE01082221701A7010BD00F019FD00F02C
:1009C4002DFEF2E700F028FC812818D100F0B6FAD9
:1009D40015E000F043FC00F017FEE6E700F0A8FC89
:1009E40000F01CFEE1E700F0CFFC00F017FEDCE7AE
:1009F40000F07CFD00F0EEFDD7E700F057FC00F0BE
:100A0400D1FDD2E700F02CFC00F0E4FDCDE700F0CE
:100A14002BFD00F025FEC8E700F03AFEC5E700BF55
:100A24009005002094050020F506002038B5364CCA
:100A34002378180717D42378334CDB0612D500F03B
:100A440045FE04223148982107F05CF80120042176
:100A540007F072FA0120302107F0E2F8237803F05E
:100A6400EF03237038BD00F023FE294B1B7C13BB1E
:100A740026484578022D06D0032D2CD0237803F088
:100A8400F7032370D7E723785907F7D52A46982127
:100A940007F038F82946012007F04EFA01203021EA
:100AA40007F0BEF8237803F0F7032370237803F0EC
:100AB400FB032370BFE700F0FBFD022213489821DB
:100AC40007F020F80120022107F036FA0120302136
:100AD40007F0A6F8D2E723785A07CFD40222982148
:100AE40007F010F80120022107F026FA0120302136
:100AF40007F096F8237803F0F7032370237843F084
:100B04000403237097E700BF900500208C050020A4
:100B140080020020704700BF704700BF704700BFCD
:100B2400054B1A7842F008021A701A7802F0FB0298
:100B34001A70FFF77BBF00BF9005002008B5FFF7D0
:100B44001BFF054B1B7803F0FD03082B00D008BDE9
:100B5400BDE80840FFF794BEF5060020014B18716C
:100B6400704700BF80020020014B1879704700BF16
:100B74008002002010B5114C00232278112102F0CC
:100B8400F90222702278637002F0FE02637121710F
:100B9400227000F039FA637960B143F002036371A3
:100BA40000230A2003212022A371A372E071217281
:100BB400627210BD23F002036371F1E79402002016
:100BC40038B51E4C1E4B2279110903EB8101086CC8
:100BD40002F00F0253F82250C001B0FBF5F010F000
:100BE40001011CBF01300121400800F013FAE0B9F3
:100BF400124B6279A07912F0100F1A7814BF42F0E8
:100C0400010202F0FE02FF281A700C4B0FD00C30C8
:100C140000F008FAE379C3EB031305FB03F5284658
:100C2400E56000F001FA812038BD0A2038BD1B7848
:100C340013F0010F14BF0B200C20E9E794020020ED
:100C4400949B000808B500F0DFF9054B5A7918B1F8
:100C540042F002025A7108BD22F002025A7108BD24
:100C64009402002004290AD005290AD003795A1DC8
:100C74008A4204D006338B4206D0002070470220FB
:100C84007047007902307047805C0230704700BFC3
:100C9400F0B5254D83B06C780F46D4B1012C15D135
:100CA4000B68002B33D13AB16E69F45CC454013340
:100CB4009342FAD116446E612B691B499A421ED2A3
:100CC4009B1A81200B613A6003B0F0BD812003B010
:100CD400F0BD0968F1B1042917D005291DD00379A5
:100CE4005A1D914211D00633994219D0224601ABC4
:100CF40001F094FC019B81203B6003B0F0BD002215
:100D040081203B604A7003B0F0BD0222EFE7204629
:100D140003B0F0BD012003B0F0BD02790232E6E772
:100D2400825C0232E3E700BF94020020F8B5234C52
:100D3400074623780E4613F0060F154602D00AB173
:100D44000820F8BD23781D4A13F0060F1AD081201D
:100D540022781A4912F0060F02D10A78D30726D452
:100D64002278164902F00602022A14D02278134986
:100D740002F00602022AE4D10A7812F0010F18BF29
:100D8400F620F8BD1378DA07E1D4384631462A460E
:100D9400FFF77EFFDCE70A78084912F0010F22789A
:100DA40008BFF62002F00602022ACAD1E4E7384658
:100DB40031462A46FFF76CFFD2E700BF94020020B9
:100DC400F6207047F6207047F6207047F0B4094BC0
:100DD4001F795E799D79DC79197A5A7A9B7A077042
:100DE40046708570C470017142718371F0BC01203A
:100DF400704700BF940200202DE9F84301290378CD
:100E040018BF0024457890F80290C778067906BF89
:100E140090F805808479A046244A181C18BF012044
:100E240052F8200010B90A20BDE8F883180952F8D6
:100E34002020002AF7D029B915F0FD0F04D00B208B
:100E4400BDE8F883012910D09F2F04D9EA0602D502
:100E54000D20BDE8F88326B1032E02D00E20BDE894
:100E6400F88344B11020BDE8F883A5F11002D2B292
:100E7400032AE4D8E8E70E4C2371657100F0C4F846
:100E8400637970B923F002036371002384F8069038
:100E9400E771267284F80980A372BDE8F843FFF76E
:100EA4008FBE43F002036371EFE700BF949B000819
:100EB40094020020F0B4094C05460E460FCCA778E6
:100EC400B4F800C0286012246960AA60EB60A5F839
:100ED40010C0AF743460F0BC704700BF5C9F000862
:100EE4000B680022012BF0B40C4605460A6002D0C0
:100EF400F0BC812070470378022BF9D1074E1227EA
:100F04000FCEB6F800C0B67828606960AA60EB60BE
:100F1400A5F810C0AE742760EAE700BF5C9F000824
:100F2400054B1B7A2BB108B900F072B8184600F0D3
:100F34006FB81846704700BF94020020F0B4154AF9
:100F4400137823B392F82B5092F82C60124CAF19FB
:100F540050789178002302376770A072E172A37011
:100F6400E370237135B1D118C878E1180133AB426D
:100F74000873F8DB46B12C440023D118C87DE1186E
:100F84000133B3420873F8DB8120F0BC70470720BB
:100F9400F0BC70473407002094050020014B002268
:100FA4001A707047F90600200023094A0370137869
:100FB40003F0040303701278920704D543F0080386
:100FC4000370FB207047002B14BFFB208120704767
:100FD400F9060020064B1A781B78520701D5FB202E
:100FE400704713F0020F14BFFB208120704700BF2D
:100FF400F9060020704700BF704700BF704700BF6C
:10100400704700BF002070470020704700207047E1
:101014008120704740F2F4730C3898428CBFFF2053
:1010240000207047704700BF704700BF024B1A781A
:1010340002F0F7021A707047F9060020704700BFEB
:10104400044A137803F0F703137013781B07FCD5D5
:10105400704700BFF9060020F0B4074B074E1F7815
:10106400074D07F0EF07074A00241F70316028601E
:101074001460F0BC704700BFF9060020040700208C
:10108400FC06002008070020704700BF024B1A78B6
:1010940002F0FE021A707047F9060020014B18682E
:1010A400704700BF0807002030B4064B064C1D787B
:1010B400064A05F0EF0501311D702160106030BC57
:1010C400704700BFF906002004070020080700202D
:1010D400014B1868704700BF08070020014B1868CF
:1010E400704700BF0807002030B4084A0848157844
:1010F400084B05F0F70501240321157004701970DD
:1011040013781B07FCD530BC704700BFF9060020DC
:10111400F80600200007002070B41C4C23782ABB7A
:1011240003F0DF030529237027D02378184E03F03A
:10113400EF0323702578174B013005F0F705134AA8
:1011440030602570196005E013781D0705D4137805
:10115400D80602D42378DE07F6D52378DB0709D432
:1011640070BC00290CBF8120FE20704743F020038F
:101174002370DAE7FD2070BC7047074A074B1578E7
:101184001A789542D1D042781A70CEE7F906002039
:10119400040700200807002000070020F8060020AC
:1011A400F0B4194CD1F800C02378184F43F0400331
:1011B40023702378164E03F0EF0323702278154B27
:1011C40002F0F70200252270C7F800C02246306002
:1011D4001D6005E013781D0705D41378D80602D4E2
:1011E4002378DE07F6D500230B602378064ADB0755
:1011F40007D4F0BC137813F0100F0CBFFE20FC20B2
:101204007047FD20F0BC7047F9060020FC06002062
:10121400040700200807002008B50E4B5A790AB1CC
:10122400052008BD5A785AB99A784AB9DA783AB991
:101234001B792BB9084B1B789B0603D5FF2008BDEF
:10124400012008BD01F0F6FA002814BF8120FB201C
:1012540008BD00BF94050020900500208120704740
:1012640000B5114B83B05A791AB1052003B05DF86B
:1012740004FB5A784AB99A783AB9DA782AB91A79C9
:101284001AB9DA792AB10720F0E7012003B05DF832
:1012940004FB1A7A002AF6D15B7A002BF3D10DF104
:1012A4000700FFF781FEE1E79405002030B51E4CEE
:1012B40083B0637913B1052003B030BDA17863789E
:1012C400E27843EA012301935AB922794AB90A33ED
:1012D400B3F58D7F05D2154D2B789B0604D5FF20E1
:1012E400EAE7012003B030BD0DF10300FFF75CFE17
:1012F4008128E1D1237A627A04F10A0043EA0222C6
:1013040001A9FFF713FD2B7803F0200303F0FF027C
:10131400002BE4D18128CFD1019BE270190A2271FC
:101324006370A170C8E700BF9405002090050020F9
:1013340000B5144883B043791BB1052003B05DF8B0
:1013440004FB43784BB983783BB9C3782BB9037951
:101354001BB9C3792BB10720F0E7012003B05DF876
:1013640004FB037A002BF6D1417A0029F3D10A3029
:10137400FFF742FD8128E1D10DF10700FFF714FECC
:10138400DCE700BF9405002070B5184B82B05A7991
:1013940012B1052002B070BD5A784AB99A783AB9A8
:1013A400DA782AB91A791AB9DA7922B10720F1E779
:1013B400012002B070BD1A7A002AF7D15A7A002AA5
:1013C400F4D10A251146112603245819DA721A7326
:1013D400DA731A749E725D739C73FFF70DFD812896
:1013E400D8D10DF10700FFF7DFFDD3E79405002006
:1013F40030B51C4B83B05A7912B1052003B030BD0F
:101404009A7842B9DA7832B91A7922B95A78052A1F
:101414000CD0072A02D0012003B030BDDA79012AAA
:1014240006D0052159701AB10720E7E7DA79FAE7FF
:101434001B7A0C4C0BB10820E0E7657A002DFAD139
:1014440082232370FFF7DEFD0722E07101230DEBF9
:1014540002002572A570E570257162706372FFF752
:10146400A3FDCBE79405002030B51E4C83B063790F
:1014740013B1052003B030BDA1786378E27843EA64
:10148400012301934AB922793AB90A33B3F58D7F1E
:1014940003D2E37923B10720ECE7012003B030BD88
:1014A400237A002BF7D1637A002BF4D10E4D2B78DD
:1014B4009A0601D5FF20DDE704F10A0001A9FFF730
:1014C4000FFD2B789B06F5D48128D3D1019A0023F4
:1014D400110A0DF103006270A170E3702371FFF72C
:1014E40063FDC7E7940500209005002000B5144B68
:1014F40083B05A791AB1052003B05DF804FB5A7819
:1015040052B99A7842B9DA7832B91A7922B9D879C3
:10151400012805D90720EFE7012003B05DF804FB9B
:101524001A7A0AB10820E7E75B7A002BFAD1FFF7B1
:10153400F7FC8128E0D10DF10700FFF735FDDBE76B
:1015440094050020144B5A790AB1052070475A7843
:101554004AB99A783AB9DA782AB91A791AB9DA7991
:101564001AB107207047012070471A7A002AF8D16F
:101574005A7A002AF5D1094A1178890601D4FF2044
:1015840070470748997903789942F8D113788120F4
:1015940003F0DF03137070479405002090050020CA
:1015A400F406002038B50A4C802305462370FFF763
:1015B40029FD0023812DE071237206D04030E071B3
:1015C4006370A370E370237125720023637238BDC6
:1015D4009405002038B50B4C812305462370FFF792
:1015E40011FD0023812DE071237206D04030E0719B
:1015F4006370A370E37023712572FFF707FD6072B7
:1016040038BD00BF9405002008B5FFF7E3FF024B87
:101614000122DA715A7208BD9405002038B50F4CC6
:10162400822305462370FFF7EDFC0023812DE07132
:10163400A370E3702371237204D04030E0716370AF
:10164400257238BD04F10A00FFF7C0FB607210B9BF
:101654000523637038BD0723637038BD94050020EB
:1016640038B50A4C832305462370FFF7CBFC0023CF
:10167400812DE071237206D04030E0716370A37055
:10168400E370237125720023637238BD9405002032
:1016940038B5064C00256570A570E5702571FFF717
:1016A400B1FC4030E0712572657238BD94050020AC
:1016B40010B5054C50232370FFF7A4FC022816BF75
:1016C40003236070637010BD8C05002010B4064ABB
:1016D400064B94795120002181229C701870597016
:1016E400DA705DF8044B7047940500208C050020E7
:1016F40000230370037143804371704710B459B1E0
:1017040000231A46C45C01338B4282EA0402F9DBEB
:1017140010465DF8044B70470A46F9E7F8B543797B
:101724000278044603F00100111D800101330027F3
:1017340084F80801A171637184F8092184F80771A0
:1017440004F58570E11D07F043FF267804F20715C0
:10175400033616F0FF000BD03A463B46E95C0133F2
:10176400834282EA0102F9DB344484F80721F8BD9C
:101774000246F9E7437910B403F001020424A240BD
:10178400591C803A00238471417180F8082180F843
:101794000A2180F8073180F809315DF8044B70475D
:1017A40070B582B0002202AB044643F8042D00F267
:1017B4000710A1794FF4807200F030FF019D052DD0
:1017C40004D84AF20100608002B070BD94F8083178
:1017D4009B0618D4631993F8041193F80531062273
:1017E40003EB0123638016462079AA1A204404F5EA
:1017F4008571073007F0ECFE237960881D44AE1B29
:10180400267102B070BD4AF20203042263801646B8
:10181400EAE700BF38B5002303710446FFF77EFFF3
:101824002046FFF7BDFF63884AF20102934211D0BC
:101834004AF2020594F80821204692060AD5FFF7D9
:1018440099FF2046FFF7ACFF6388AB42F2D0B3F5B3
:10185400104FEFD0184638BD70B40E4A85B01068EA
:10186400516801AB03C31689957A0B4C1E809D7099
:1018740001AA03CA234612880B26C4F8070003F8FA
:10188400076B20469D721A81596005B070BCFFF742
:10189400C1BF00BF149C0008AC020020F8B5084C7E
:1018A400002360720527CA2620461546E371E372B9
:1018B400A17227702672FFF7ADFF23792B70F8BD54
:1018C400AC020020F8B5074608460E4608F030F989
:1018D4000B4CC5B200232570E572803F31462022AF
:1018E40004F10C000535A7722272E371637208F0EB
:1018F400C1F820462570BDE8F840FFF78BBF00BF54
:10190400AC0200202DE9F041154CA0B0802607461A
:1019140032466846134907F05BFE00254FF02A0C57
:101924004FF0860E8123694632464FF0870804F152
:101934000D00E37284F808C084F80AE0667284F843
:101944000080E571257307F043FE204684F88D502E
:10195400FFF760FF23793B7020B0BDE8F08100BF42
:10196400AC020020209C000830B583B0FFF774FF60
:10197400B0F5104F02D0002003B030BD0DF10702C6
:1019840000204F21FFF78AFFB0F5104FF3D19DF8E7
:101994000730102BEFD15F2052210DF10702FFF722
:1019A4007DFFB0F5104FE6D19DF807300A2BE2D148
:1019B4000020C4210DF10702FFF770FFB0F5104FAE
:1019C4000546D8D19DF80730072BD4D100206E21CD
:1019D4000DF10702FFF762FFA8420446CBD19DF840
:1019E4000730D92BC7D100205E210DF10702FFF784
:1019F40055FFA042BFD19DF80740002CBBD1204623
:101A04006E210DF10702FFF749FFB0F5104FB2D177
:101A14009DF80730D92BAED120466E210DF1070277
:101A2400FFF73CFFB0F5104FA5D19DF80730D92B37
:101A3400A1D120466E210DF10702FFF72FFFB0F56B
:101A4400104F98D19DF80730D92B94D102200E491C
:101A5400FFF738FFB0F5104F04468CD101200A4936
:101A6400FFF730FFA042054685D10DF10700FFF7CF
:101A740049FFA8427FF47FAF9DF80700B0F123032C
:101A84005842584178E700BF709F000808B5054BDD
:101A940000221A701A715A805A7100F0D9FEFFF7A9
:101AA40063FFFEE7AC02002010B5094B002482B0AE
:101AB4001C701C715C805C71FFF7CEFE20464F21C8
:101AC4000DF10702FFF7EAFE9DF8070002B010BD12
:101AD400AC02002010B5094B002482B01C701C71AC
:101AE4005C805C71FFF7B8FE20464F210DF10702C0
:101AF400FFF7D4FE204602B010BD00BFAC020020A8
:101B0400014B1844C0797047AC020020094B10B552
:101B1400002204461A701A715A805A71FFF79CFE0B
:101B240021460320FFF7CEFEB0F5104018BF012078
:101B340010BD00BFAC02002030B50B4D002483B0B3
:101B44002C702C716C806C71FFF786FE2046C421CA
:101B54000DF10702FFF7A2FEB0F5104F0CBF687B32
:101B6400FF2003B030BD00BFAC02002070B50646B4
:101B74000D46002402E0AC420FD001340848202175
:101B840005F05CF90028F6D0AC4206D0044805F014
:101B9400F3F801233070184670BD0023184670BD59
:101BA4000038014010B584B08DF807009DF8071087
:101BB400164805F0DDF842F2117401E0013C1FD033
:101BC4001248402105F03AF90028F7D00DF10F0032
:101BD4000121FFF7CBFF012806D09DF807304FF60F
:101BE400FF7000B204B010BD9DF80F009DF80720EF
:101BF4004FF6FF73824208BF184600B204B010BD0E
:101C04004FF6FE7000B204B010BD00BF00380140B2
:101C140010B5074C1021204603F016F92046202168
:101C240003F012F9BDE810400248012105F0C2B8E2
:101C3400000C01400038014010B582B0102203238B
:101C44003024064801A9ADF804408DF807208DF82A
:101C5400063003F07BF802B010BD00BF000C014059
:101C640010B5054C1021204603F0EEF82046202143
:101C7400BDE8104003F0E8B8000C014010B5054C75
:101C84001021204603F0E2F820462021BDE8104050
:101C940003F0DCB8000C014010B50B4C03460120E6
:101CA400236001F06FF9236823B1FEF747FF23682F
:101CB400002BFAD16FF0010001F064F9BDE8104087
:101CC400002001F05FB900BF1405002038B5094DAC
:101CD400034601202B6001F055F92C68002CFCD13F
:101CE4006FF0010001F04EF92046BDE8384001F0E4
:101CF40049B900BF1405002008B568B90146084871
:101D040005F058F80748102103F0A0F8BDE8084092
:101D14000448202103F09AB8BDE80840FFF778BFD3
:101D240000380140000C014008B5082100220A488F
:101D340003F08EF80020FFF7DFFF084804F0E0FE10
:101D44000820002103F0C6FCBDE808404FF48040A1
:101D5400002103F0BFBC00BF000C0140003801406B
:101D640002460821014803F073B800BF000C01408B
:101D740008B5064B0648197804F0FAFF04484021D8
:101D840005F05CF80028F9D008BD00BFB8040020B5
:101D940000380140F0B51D4C8BB0054605A8164629
:101DA40003F03CFCB4F818E0194B089805F00F0256
:101DB4005FFA8EFE53F822204FEA4E0EB0FBFEF07F
:101DC40002FB00FE2D0903EB85031B6C0C22BEFBFA
:101DD400F3FE2046002301A94FF480574FF4806599
:101DE400CDF804E0ADF80A30ADF81030ADF80E20AF
:101DF400ADF80870ADF80C5004F0D8FE06F10C01F3
:101E0400C9B2204604F0C2FF0BB0F0BD0038014057
:101E1400A09C00082DE9F041894E8CB0002307A84E
:101E24008DF80330874C03F0F9FB338B01223046E5
:101E340040211FFA83F80A9F04F050FFA278D306CA
:101E440040F18380E278112A7FD07F4DFF232B70ED
:101E54002978304604F08CFF7948402104F0EEFFE5
:101E64000028F9D00DF103004FF40041FFF77EFE86
:101E740001286DD0012611232B702978704804F0B5
:101E840077FF6F48402104F0D9FF0028F9D00DF105
:101E940003004FF40041FFF769FE012800F0C980F8
:101EA400E37867482B70297804F062FF6448402186
:101EB40004F0C4FF0028F9D00DF103004FF40041F1
:101EC400FFF754FE0128E37800F0AC8083F0EE03C2
:101ED4002B7029785A4804F04BFF5948402104F0EC
:101EE400ADFF0028F9D00DF103004FF40041FFF7D6
:101EF4003DFE012800F08D800DF103004FF40041F8
:101F0400FFF734FE01287ED003260DF103004FF4C1
:101F14000041FFF72BFE01286FD005260DF10300C9
:101F24004FF40041FFF722FE01285FD007264FF44B
:101F340000410DF10300FFF719FE01284FF04001A5
:101F44003F480BD0002204F0C9FE0CB0BDE8F0817C
:101F54009DF80330FF2B8DD040268CE7E3789DF865
:101F6400032083F0EE039A42364CEBD1002204F0B6
:101F7400B5FE012EE9D1E178344A01F00F005FFA91
:101F840088F852F820504FEA4808B7FBF8F705FBE9
:101F940007F7090902EB81020024156C4FF48073E2
:101FA4004FF4006201A92648ADF80420ADF80A30C8
:101FB400ADF80640ADF8084004F04CFE0C23B7FB26
:101FC400F5F54FF480564FF480621D480DEB030184
:101FD4000395ADF81240ADF81840ADF81060ADF8B7
:101FE4001420ADF8163004F0E1FDAEE7E2789DF878
:101FF40003309A4218BF062699E79DF80330112B47
:1020040018BF04268AE79DF80330FF2B18BF022669
:102014007BE7E3789DF8032083F0EE039A4218BF30
:10202400102669E79DF803209A4214BF2026134620
:102034004CE79DF80330112B18BF302630E700BF62
:102044000038014034070020B8040020A09C000898
:10205400F0B5082089B0012103F03CFB4FF4804027
:10206400012103F037FB012001464A4E03F032FB05
:102074000420012102F012FF3468012C4FD004AD7A
:1020840045480A2104F08CFE4348012104F07EFEF9
:1020940000244FF400624FF4807302A93E48ADF867
:1020A4000820ADF80E30ADF80A40ADF80C4042F20D
:1020B400CD5604F0CFFD0C2329464FF480624FF433
:1020C40080553548ADF81A30ADF81820ADF81640F3
:1020D400ADF81C400496ADF8145004F067FD2E488A
:1020E4002821012204F0DCFD01222B48602104F0A8
:1020F400D7FD2948012104F0C5FD2748012104F03A
:1021040067FE2548012104F055FE22460821234894
:1021140002F09EFE2046FFF7EFFD09B0F0BD4FF43C
:102124008072182301A903271D48ADF804208DF8F7
:1021340007308DF8067002F009FE40221C2301A925
:102144001648ADF804208DF8073002F0FFFD214653
:10215400144802F0A3FE21461348102402F09EFE08
:102164000DEB0405082301A90C48ADF804308DF8E3
:10217400074002F0EBFD302329460848ADF8103043
:102184008DF812708DF8134002F0E0FD00233360E7
:1021940076E700BF0800002000380140000C014031
:1021A4000008014000013000000230002DE9F04F2A
:1021B400057885B080460E461446052D07D8DFE81D
:1021C40015F0110040000600B30013010C000523B4
:1021D40088F8003005B0BDE8F08FFFF7A5FD05B025
:1021E400BDE8F08F7478002CF4D1FFF731FFFFF7CE
:1021F4000FFDB74B204603F1280103F8010F8B4272
:102204004FF00002F9D1B34F11463B467A7003F800
:10221400022F07F1160203F8011F9342FBD1AE4BC4
:10222400002003F1140103F8010F8B424FF0000268
:10223400F9D1012387F82B2087F82C2088F8003067
:10224400C8E77778002FC5D1A44EDFF8989277704D
:1022540098F800308DF80F705A1E042A00F22D8170
:10226400DFE812F04100140011002B0105009C4826
:102274000821002202F0ECFD0020FFF73DFD98F854
:102284000030052BA6D0032BE1D1A3E7954C94484D
:102294000821012202F0DCFD2825A1460DF10F07DB
:1022A40002E013F0FF0514D038464FF40041FFF765
:1022B4005DFC012805F1FF33F3D171789DF80F20FF
:1022C400013113F0FF0589F80020717009F101094B
:1022D400EAD12378002B3FF47AAF032388F8003047
:1022E40005B0BDE8F08F00240DF10F0A02E00134BF
:1022F400282C10D050464FF40041FFF737FC01283A
:10230400F5D19DF80F30727809F8043001340132A8
:10231400282C7270EED199F80030002B40F00C811B
:10232400022388F8003092E77378002B7FF452AFD1
:102334006C4C6A4A674F61782378527801F00F0B2E
:1023440097F82B50B9707B70C8B2019287F82CB003
:1023540001F0F00187F82D20042341FA03F2013340
:1023640002F001021544082BEDB2F6D187F82B5088
:10237400002335B1E2189178FA180133AB42D170D9
:10238400F8D37B1993F80290030640F1B180514BC6
:10239400CC4603F1020A6A1EB918C8785FFA8CFCAD
:1023A40000F0F0000026042140FA01F9013109F09F
:1023B40001094E440829F6B2F6D15EB13A440AEB5B
:1023C4000500444F03323044D11A615C02F8011F06
:1023D4008242F9D135441CF0800FEDB200F08680C2
:1023E4007A1992F802C0D6E7002213468DF80E201F
:1023F4001046E0540133142B4FF00002F9D1402170
:10240400227562753848012204F068FC3078FFF7C1
:10241400C9FB7078FFF7C6FBB078FFF7C3FBF07811
:10242400FFF7C0FB307900284FD1707E00284CD1D3
:102434002D4804F0A1FC04AF002307F8013D384601
:102444004FF40041FFF792FB012800F09280257DB4
:10245400002D7FF4BFAE377997B9737E0DF10E0569
:1024640003B328464FF40041FFF780FB012804BF63
:102474009DF80E30E355737E01379F42F1D311E08E
:1024840073195879FFF78EFB337901359D42F7D3E1
:10249400154804F071FC14484021002204F01EFC8D
:1024A4000DF10E050A2628464FF40041FFF75EFBA6
:1024B40001284CD0013EF6D14CE0012388F80030CD
:1024C4002B46032B7FF4C3AE84E6FFF76BFBAFE729
:1024D4000B070020340700204A070020B80400201E
:1024E400000C01400C0700200038014087F82B50F5
:1024F400BBF1000F0CD0304B6FF0130103EB0B005A
:10250400C91B5A190A44A25C03F8012F8342F8D16B
:10251400AB1C019A5B449A420AD0E15C07EB0B02C4
:1025240001230BF1010BD17587F82CB087F82E30FD
:10253400042388F800304DE6032388F800301F4850
:102544000821012202F084FC98F8003099E69DF8F5
:102554000E3023750A2628464FF40041FFF706FB88
:10256400012802D0013EF6D134E69DF80E306375A1
:1025740030E69DF80F3003F0F002602A02D0902A72
:102584007FF428AE7278D143594011F0FE0F03D086
:102594005A4012F0FE0F01D123701BE62375384612
:1025A4004FF40041FFF7E2FA01287FF413AE9DF8DF
:1025B4000F3063750EE600BF4A070020000C01408F
:1025C40030B5144C002389B023708DF803308DF896
:1025D40004308DF805308DF806308DF807308DF80D
:1025E40008300DF1030001A90B4AFFF7DFFD9DF848
:1025F4000330052B09D0042BF3D10125284625707F
:10260400FEF7ACFA284609B030BDFFF78DFB002079
:1026140009B030BD340700206407002004292DE9E7
:10262400F0470E4604461F4642D00020FDF79AFEAE
:102634008EB100231D4601E0AE420CD9E05CFFF7E9
:10264400B1FA013501302B46F6D00120FDF78AFEA0
:102654002120BDE8F087304804F08EFB0022A5203D
:1026640040F20511A05401328A42FBD10025AA464A
:1026740026464FF0010840F2051907E0012D2AD043
:10268400C84526D0013508F101080136304665B346
:102694004FF40041FFF76AFA0128EFD03D600120B2
:1026A400FDF760FE3B6853B902203860BDE8F0874F
:1026B4000378FF2B06D00020FDF754FEB9E7002075
:1026C400BDE8F0874378112BF5D139600020BDE8CF
:1026D400F0874546E2E7BAF1030FD3D102233B600A
:1026E400FDF740FE5046BDE8F0870C49FFF73EFA7F
:1026F4000128D3D162783378D143594011F0FE0FC9
:10270400C0D05A4012F0FE0FBCD003F0F003602B8F
:1027140008BF4FF0030AB5E70038014000008813F2
:10272400014B00221A7070473407002070B53B4BF0
:1027340082B000241C7002F08DFE4FF4803002F051
:10274400A7FE02F0C1FE364B18711D79EDB2012DC2
:102754003DD00120014602F0BDFF00214FF0006092
:1027640000F024FE4FF4C06000F0DEFD002401A858
:10277400172301258DF804308DF807508DF8054096
:102784008DF8064000F0DAFD01A825238DF80550E8
:102794008DF80430234E00F0D1FD234B234AF0255D
:1027A40007205E6001A982F8235030269C60032232
:1027B400186010251E488DF80620ADF804608DF8C9
:1027C400075002F0C3FAFFF74BFA02B070BD1020B5
:1027D40001F0B2FD022001F099FD204602F0C0FE96
:1027E400204602F0D1FE4FF4806002F0C3FE4FF4A5
:1027F40080304FF4801102F091FE284602F098FEDA
:10280400392002F0A9FF0028FAD0022002F096FE37
:1028140002F09EFE0828FBD19BE700BF340700208E
:10282400080000207FFC0A0010E000E000ED00E05A
:10283400000C014008B5054B00221A70FFF7C0FEDA
:1028440010B1FFF7E7FA012008BD00BF34070020EC
:1028540008B5FFF76BFF02E00120FFF737FAFFF737
:10286400AFFE0028F8D0FFF7D5FA2820FFF72EFA9C
:10287400BDE808400120FDF775BD00BF014B0422EF
:102884001A60704728050020704700BF10B51D4B23
:1028940006281B681A7802F07F0203D0212A0DD083
:1028A400022010BD012AFBD15A79002AF8D19A7866
:1028B400222A25D0212AF3D1134A15E0032812D065
:1028C400092806D00128EBD19A78032AE8D10F4AC7
:1028D4000AE09A78022A0ED0032AE1D10C494A7000
:1028E40008700C4A00E00C4A002420469A615C827D
:1028F4009047204610BD06494A700870074AF3E71E
:10290400074AF1E710090020A52B000879290008DF
:10291400D8040020C129000861290008D929000829
:10292400992B0008074B1B681A7802F07F02212AB2
:1029340001D0022070470B28FBD1DA78024B00202B
:102944001A60704710090020BC07002009B102205A
:1029540070470128FBD80846704700BF08B10348F8
:102964007047034B01221B681A827047BC07002082
:102974001009002070B490B10C4E0D4D34460FCDAB
:102984000FC40FCD0FC40FCD0FC495E80F00094D30
:1029940084E80F002B783046337070BC7047064BC8
:1029A40040221B6870BC1A82704700BF1C080020BC
:1029B4005C080020640200201009002008B10348CC
:1029C4007047034B40221B681A8270477C07002023
:1029D4001009002008B103487047034B01221B680B
:1029E4001A8270477C0700201009002038B5FDF7D3
:1029F4003DFD084B00241B68074D9C7206F0C2FC89
:102A040006480749074A4FF43F432C6003800B6094
:102A1400146038BD10090020445C004014090020F3
:102A2400405C0040280500204349444B444A1B684D
:102A3400D279096870B500248C7220465A72DC720F
:102A440005F0B8F820464FF4007105F0D1F83D4D7B
:102A54002046202105F0E4F82046182105F040FA2C
:102A64002B68204693F82C1005F08AFA582120464A
:102A740005F026FA204605F065F9204605F036F9FA
:102A840001204FF4C06105F0B3F80120982105F04E
:102A940017FA0120202105F0C3F82146012005F092
:102AA400D5F82146022005F0A3F80220D82105F02C
:102AB40017FA2B68022093F82C1005F061FA022013
:102AC4004FF4405105F0C2F802204FF48C7105F028
:102AD400F7F92B68022093F82C1005F02DFA022048
:102AE400302105F09DF804204FF4C06105F080F812
:102AF40004204FF4CE7105F0E3F92146042005F0DB
:102B0400A5F80420202105F08BF82B68204693F8C3
:102B14002C1005F035FA204605F0E8F80A4E204658
:102B240004F040FE094D0A480A4A0B490123347057
:102B34002B600360116070BD08090020100900209B
:102B4400EC9D000818010020420D002028050020FB
:102B540000000020200D002055534243014B19680A
:102B640004F0BABB1C010020014B196804F0B4BB8B
:102B740020010020054B1B68DB78052B04D8044A90
:102B840052F8231004F0A8BB00207047100900205D
:102B940024010020014904F09FBB00BF1000002065
:102BA400014904F099BB00BF18000020F0B4354C73
:102BB4002378092B01D0F0BC704765780023022DDF
:102BC40023701AD0032D03D000236370F0BC704728
:102BD400DFF8C0C09CF80030002BF5D12A4F2B4EF3
:102BE4000FCF0FC60FCF0FC60FCF0FC697E80F003A
:102BF4008CF8005086E80F00E6E7234BA6781D7892
:102C04006E40F10710D5D4E902232149D1E900012E
:102C1400821A61EB0303002B08BFB2F5FA7FC4E903
:102C240002013CBF01232374B20712D5D4E9060183
:102C3400174B144FD3E90023101A63EB0101002949
:102C440008BFB0F5FA7FC4E906233CBF012187F829
:102C54002010730712D5D4E90A010D4B094ED3E9AC
:102C64000023101A63EB0101002908BFB0F5FA7FB5
:102C7400C4E90A233CBF012186F830100023A57063
:102C84006370A3E7D80400207C0700209C08002080
:102C9400680200206402002008B50B4B1B689B7A75
:102CA4008BB10A4B052201201A6005F0E3F80220DB
:102CB40005F0D0F8022005F0DDF8042005F0DAF87C
:102CC400034B00221A7008BD1009002028050020BB
:102CD400420D002008B103487047034B01221B68D2
:102CE4001A8270470C05002010090020034A044B87
:102CF40012680020D2781A60704700BF10090020C3
:102D0400BC070020014B04221A60704728050020EC
:102D1400704700BF704700BF09B102207047002808
:102D2400FBD1704708B103487047034B01221B686D
:102D34001A827047100500201009002038B5FDF7ED
:102D440095FB084B00241B68074D9C7206F01AFB88
:102D540006480749074A4FF43F432C6003800B6041
:102D6400146038BD10090020445C004014090020A0
:102D7400405C00402805002038B53349334B344AC1
:102D84001B68D279096800248C7220465A7204F0B8
:102D940011FF20464FF4007104F02AFF2D4D204608
:102DA400202104F03DFF2046182105F099F82B68F6
:102DB400204693F82C1005F0E3F85821204605F03E
:102DC4007FF8204604F0BEFF204604F08FFF214622
:102DD400012004F00DFF0120982105F071F8012075
:102DE400202104F01DFF2146012004F02FFF21467D
:102DF400022004F0FDFE0220D82105F071F82B68B2
:102E0400022093F82C1005F0BBF802204FF4405137
:102E140004F01CFF2146022004F002FF2B68204628
:102E240093F82C1005F0ACF8204604F05FFF0A4D2F
:102E3400204604F0B7FC0949094B0A4A01202C70CA
:102E440008601A6038BD00BF08090020100900207E
:102E5400EC9E000818010020420D002028050020E7
:102E6400200D002055534243044A054B12689A42F0
:102E740002D0022006F066BA704700BF200D002081
:102E840055534243014B596804F026BA18010020F7
:102E9400014B996804F020BA18010020064B1B6806
:102EA400DB78052B05D8054A02EB8303D96804F0C7
:102EB40013BA0020704700BF100900201801002039
:102EC40008B5084B1B689B7A5BB1074B05220120B0
:102ED4001A6004F0CFFF022004F0BCFF034B002271
:102EE4001A7008BD1009002028050020420D00209A
:102EF40010B50F4B1B681A7802F07F02212A01D00B
:102F0400022010BDFF28FBD15A88002AF8D15C6842
:102F1400002CF5D1012004F0ADFF022004F09AFF4B
:102F2400044B054A05491C701160204610BD00BFC2
:102F340010090020420D0020200D0020555342436B
:102F44000B4B1B681A7802F07F02212A01D0022061
:102F54007047FE28FBD158880028F8D15A68B2F58A
:102F6400803FF4D103490122588299611A82704743
:102F740010090020292D0008014B5860704700BF3C
:102F840010E000E00128084B04D0023007D00022F2
:102F94009A6070471A6842F001021A6070471A6812
:102FA40022F001021A60704710E000E0054B1A6835
:102FB40018B922F002021A60704742F002021A6045
:102FC400704700BF10E000E0014B9868704700BFF5
:102FD40010E000E0C308022B044B0CBF1B68DB6845
:102FE40023FA00F000F00100704700BF10E000E099
:102FF400704700BFFEE700BFFEE700BFFEE700BF6B
:10300400FEE700BF704700BF704700BF704700BFB6
:10301400034B1A6812B11A68013A1A60704700BF6C
:103024001405002004F034BD06F060BA704700BFF8
:103034004FF08042138A70B5DB0728D5138A194CE8
:1030440023F001031B041B0C174D13822978D4E9C8
:103054000023013243F10003C4E90023B9B1134E44
:1030640011F0010FD6E9000112D110F5FA7041F107
:1030740000018B4208BF824209D30120FDF77EF98B
:10308400D4E900232978C6E900234B1E2B7070BDB8
:1030940010F5FA6041F100018B4208BF8242F6D379
:1030A4000020EBE768020020700200207802002074
:1030B400EFF30980704700BF80F30988704700BFB1
:1030C400EFF30880704700BF80F30888704700BFA3
:1030D400EFF31280704700BF80F31188704700BF80
:1030E400EFF31080704700BF80F31088704700BF73
:1030F400EFF31380704700BF80F31388704700BF5D
:1031040000BA704740BA7047C0BA704790FAA0F04E
:10311400704700BFD0E84F0FC0B27047D0E85F0FD0
:1031240080B2704750E8000F704700BFC1E8430FFA
:1031340018467047C1E8530F1846704741E800002D
:10314400704700BFEFF31480704700BF80F314880A
:10315400704700BF3A4B10B418683A4940F0010078
:1031640018605868002201405960196883B021F042
:10317400847121F48031196019681C4621F480217E
:103184001960596821F4FE0159609A600092019215
:103194001A6842F480321A6003E0009BB3F5A06F12
:1031A40009D0236803F400330193009B0133009397
:1031B400019B002BF1D0224B1B6813F4003318BF82
:1031C40001230193019B012B00D0FEE71E4A1C4BF7
:1031D4001068194640F010001060106820F00300D9
:1031E4001060106840F0020010605A685A605A6813
:1031F4005A605A6842F480625A605A6822F47C1217
:103204005A605A6842F488125A601A6842F080720E
:103214001A600A680A4B9201FBD55A68194622F0D3
:1032240003025A605A6842F002025A604B6803F083
:103234000C03082BFAD103B05DF8044B704700BFB0
:10324400001002400000FFF800200240FEE700BF2B
:103254001149124B10B499420BD2C843184420F0C0
:1032640003000F4C04300023E258CA500433834255
:10327400FAD10C4B0C4A93420AD2D943114421F09F
:10328400030119440022043B43F8042F8B42FBD171
:103294005DF8044B704700BF00000020600200206E
:1032A400789F000860020020A00D0020704700BF36
:1032B400684620F007018D4619B5FFF7F7FF194856
:1032C40080F308881249134B99420BD2C84318441F
:1032D40020F00300104C04300023E258CA50043399
:1032E4008342FAD10D4B0E4A93420AD2D943114478
:1032F40021F0030119440022043B43F8042F8B42BC
:10330400FBD106F0E9F9BDE819408546704700BFD6
:103314000000002060020020789F00086002002066
:10332400A00D00200050002040F0BF60024B40F48C
:103334000030D860704700BF00ED00E0C37830B4BF
:103344005BB90378012103F01F02914030BC5B0993
:10335400144A203342F823107047134B4478DB6837
:103364000F22DB43C3F30223C3F1040122FA03F364
:103374008C408578017803EA0502224301F1604319
:103384001201D2B203F5614383F8002303780121CB
:1033940003F01F02914030BC024A5B0942F823103B
:1033A400704700BF00E100E000ED00E021F0604163
:1033B40021F07F01014B08439860704700ED00E065
:1033C400044B1A6919B922EA0000186170471043C6
:1033D4001861704700ED00E0044B04281A680CBF24
:1033E40042F0040222F004021A60704710E000E088
:1033F40008B5184B984220D003F5A053984210D03A
:10340400A3F5C053984200D008BD4FF400700121C9
:1034140002F078F9BDE808404FF40070002102F092
:1034240071B94FF40040012102F06CF9BDE8084085
:103434004FF40040002102F065B94FF4806001218F
:1034440002F060F9BDE808404FF48060002102F00A
:1034540059B900BF0028014043680A6823F4702367
:1034640030B423F480730C79134343EA0423436098
:1034740085688C68CA68094B22432B404D791343F5
:1034840043EA450383600B7CC26A013BDBB222F44E
:10349400700242EA0353C36230BC7047FDF7F1FF88
:1034A4000023012202740360037143718360C360CB
:1034B400704700BF836819B923F001038360704724
:1034C40043F0010383607047836819B923F4807360
:1034D4008360704743F4807383607047C9B2436864
:1034E4001AB923EA010141607047194341607047EA
:1034F400836843F008038360704700BF8068C0F3AB
:10350400C0007047836843F004038360704700BFC2
:103514008068C0F380007047836819B923F4A0035E
:103524008360704743F4A003836070478068C0F3EE
:10353400805070474368013923F4604343EA4133C0
:1035440043607047436819B923F4006343607047CC
:1035540043F4006343607047092970B41FD9A1F193
:103564000A0404EB44040726A64003FA04F4C568DD
:10357400062A25EA060343EA0403C3601DD90C2A7C
:1035840029D970BC0D3A02EB82021F23934001FA41
:1035940002F2C16A21EA03031A43C262704701EBD3
:1035A40041040726A64003FA04F40569062A25EA1D
:1035B400060343EA04030361E1D870BC013A02EB59
:1035C40082021F23934001FA02F2416B21EA0303B2
:1035D4001A4342637047073A02EB82021F23934067
:1035E40070BC01FA02F2016B21EA03031A4302637D
:1035F400704700BF836819B923F480138360704750
:1036040043F4801383607047C06C80B2704700BF7E
:10361400014B1868704700BF4C240140436819B936
:1036240023F480634360704743F4806343607047CE
:10363400436819B923F480534360704743F48053BB
:1036440043607047836823F4E04319438160704703
:10365400836819B923F400438360704743F400433B
:1036640083607047836819B923F402138360704739
:1036740043F40213836070478068C0F3405070477E
:10368400092970B41BD801EB41040726A64003FAAC
:1036940004F4056925EA060323430361836B0232BC
:1036A400C3F30154121BD2B202EB82021F249440D2
:1036B400914023EA04030B43836370BC7047A1F178
:1036C4000A0404EB44040726A64003FA04F4C5687C
:1036D40025EA06032343C360E0E700BF836B013997
:1036E40023F4401343EA0153836370474250704705
:1036F4002831405880B27047436823F4400323F4D0
:10370400007319434160704741628262704700BF91
:10371400436823F01F03194341607047054B9A68BF
:1037240018B922F400029A60704742F400029A60C9
:10373400704700BF00240140036819420CBF0020F9
:1037440001207047C9430160704700BF43680068A7
:1037540010EA112004D0C9B219420CBF0020012084
:10376400704700BF6FEA11210160704708B501205E
:1037740001F0E0FFBDE80840002001F0DBBF00BF1E
:10378400014B1860704700BF04860D42014B18605E
:10379400704700BF00860D42014B1860704700BFA0
:1037A40088860D42044A938D23F460731B041B0C1A
:1037B40018439085704700BF006C0040044A938D05
:1037C40023F07F031B041B0C18439085704700BF34
:1037D400006C004000F1804000F5D8400180704743
:1037E40000F1804000F5D840008880B2704700BFE7
:1037F400014B1868C0B27047A0860D42034B9A8EE5
:1038040092B242F001029A86704700BF006C0040F9
:10381400014B1868C0B27047A4860D42034B9A8EC0
:1038240092B242F002029A86704700BF006C0040D8
:1038340008B5084B984200D008BD4FF00070012134
:1038440001F06CFFBDE808404FF00070002101F06A
:1038540065BF00BF00640040036830B423F0020376
:10386400036002684FF6FF7342F00102026001E058
:10387400013B02D04268D407FAD5436813F0010330
:1038840057D00B78012B03680CBF43F0800323F05F
:10389400800303604B78012B03680CBF43F04003A3
:1038A40023F0400303608B78012B03680CBF43F0C3
:1038B400200323F020030360CB78012B03680CBFA3
:1038C40043F0100323F0100303600B79012B03680A
:1038D4000CBF43F0080323F0080303604B79012B6A
:1038E40003680CBF43F0040323F0040303608B79E3
:1038F400CA790D7A9B074C7A43EA02624B8942EA01
:10390400054242EA0452013B1343C36102684FF685
:10391400FF7322F00102026001E0013B02D0426821
:10392400D207FAD4406830BC00F0010080F00100F6
:103934007047184630BC7047037870B401249C402B
:10394400394BE243D3F8001241F00101C3F80012ED
:10395400D3F81C121140C3F81C128178B9B9D3F8FA
:103964000C1246891140C3F80C120178C5884831FD
:1039740045EA064543F8315006780589818803F500
:103984001073F60041EA05413344596081780129F6
:1039940031D0437843BB244BD3F804121140C3F80D
:1039A40004128389BBB9204BD3F814120A40C3F81C
:1039B4001422837B012B05D11B4BD3F81C22144307
:1039C400C3F81C42184B70BCD3F8002222F0010249
:1039D400C3F800227047012BEBD1134BD3F8142208
:1039E4002243C3F81422E4E70F4BD3F80412214313
:1039F400C3F80412D5E70C4B8688D3F80C12C5889B
:103A04002143C3F80C12017845EA0645483143F8CE
:103A1400315006780589418903F51073F600334463
:103A240041EA05415960B4E700640040002310B442
:103A34000221032401220472417242810370437003
:103A44008370C370037143718371C3715DF8044B58
:103A5400704700BF43691AB923EA01014161704705
:103A640019434161704700BF8368F0B45C010246AA
:103A740005D48368180155D50123184601E00023B5
:103A840018461C011319D3F8805105F00105C3F839
:103A940080510D7A002D3BD04F68D3F8806145EA00
:103AA400C7054F7A35433D43C3F880518D7A22448C
:103AB40005F00F048C72D3F8845102F5C47425F018
:103AC4000F05C3F884518E7AD3F884513543C3F873
:103AD40084514D7B8E7BCF7A2D0445EA06650E7B9F
:103AE4003D4345EA0625C2F888514A7C8E7CCD7B4D
:103AF4001204097C42EA06622A4342EA0122626015
:103B0400D3F88021F0BC42F00102C3F88021704751
:103B14000D684F7AD3F8806147EA45553543C3F8B9
:103B24008051C3E79368DB0002D502231846A8E757
:103B34000420F0BC704700BF012925D015D3022909
:103B440003D0194A0023D05C70478168836801F46C
:103B540080318268890B03F4003341EA1343C2F3D2
:103B640000721343104AD05C70478168836882688E
:103B740001F0010103F0020343EA8103C2F380620E
:103B84001343094AD05C70478168836801F48071EB
:103B94008268890903F4007341EA1323C2F3C06203
:103BA4001343014AD05C7047349F000801290DD0AB
:103BB40007D3022904D1836843F400038360704768
:103BC4007047836843F0800383607047836843F4DD
:103BD40000438360704700BF202309B1036170472D
:103BE400C360704739B1012901D0002070470069D2
:103BF40000F003007047C06800F00300704700BF86
:103C040070B40C010319D3F8B05105F00405EDB2FA
:103C14001572ADBBD3F8B0516D0D1560D3F8B0512A
:103C2400044405F002055572D3F8B46106F00F069A
:103C34009672D3F8B4311B0AD374D4F8B831D37262
:103C4400D4F8B8311B0A1373D4F8B8311B0C53736E
:103C5400D4F8B8311B0E9373D4F8BC31D373D4F8B1
:103C6400BC311B0A1374D4F8BC311B0C5374D4F844
:103C7400BC311B0E9374202339B1036170BC7047AF
:103C8400D3F8B051ED085560C8E7C36070BC704705
:103C9400036819B923F480330360704743F4803315
:103CA40003607047036823F0030343F002030360D7
:103CB400406800F00300831E58425841704700BF1B
:103CC400036823F0020303604368990707D54FF69E
:103CD400FF7301E0013B02D042689207FAD44068C6
:103CE40080F00200C0F34000704700BF83691942AE
:103CF4000CBF002001207047836923EA0101816120
:103D0400704700BF202937D00ED9B1F5007F1ED0EF
:103D140025D9B1F5803F1ED0B1F5003F34D0B1F5BF
:103D2400806F39D000207047062939D007D9072978
:103D34001ED00829F6D1C068C0F3001070470429CA
:103D440026D00529EED1806800F001007047806913
:103D5400C0F3400070474068C0F3C000704740297A
:103D64000ED0B1F5807FDDD1806900F0010070478D
:103D74008068C0F3004070470069C0F3C00070471A
:103D84000069C0F3001070474068C0F3001070472A
:103D9400C068C0F3C00070478069C0F380007047FA
:103DA4008068C0F300207047202935D00DD9B1F5C3
:103DB400007F1BD022D9B1F5803F1CD0B1F5003F64
:103DC4003CD0B1F5806F34D0704706292DD006D988
:103DD40007291DD0082936D11023C3607047042950
:103DE40020D005292DD1012383607047836923F0F6
:103DF40002038361704708234360704740290ED053
:103E0400B1F5807F1ED1836923F00103836170477C
:103E14004FF4803383607047082303617047102395
:103E2400036170470823C36070474FF48073836055
:103E34007047836923F00403836170471023436050
:103E4400C2E7704770477047014B01229A60704780
:103E540000300240014B186018687047003002407F
:103E640039B1054A00EB810150F8043B88421360E4
:103E7400FAD1014B1868704700300240014B1868B2
:103E8400704700BF00300240014B1871704700BFFB
:103E940000300240014B1879704700BF00300240E7
:103EA40008B54FF00050012101F038FCBDE808408E
:103EB4004FF00050002101F031BC00BF4A680B688C
:103EC40030B48C681343C968234340F6FE75194324
:103ED400854001FA00F0044B1A6822EA0501084300
:103EE400186030BC704700BF0074004000230360BA
:103EF40043608360C3607047012303FA00F0054BFD
:103F04001A6819B922EA0000186070471043186053
:103F1400704700BF007400404FF4805303FA00F070
:103F2400044B1A6819B922EA00001860704710435C
:103F340018607047007400400123000903FA00F080
:103F4400044B5A6819B922EA0000586070471043BC
:103F54005860704700740040054B5A6818B922F045
:103F640003025A60704742F003025A60704700BF70
:103F7400007400408140054B22B91A6822EA01010D
:103F8400196070471A681143196070470074004043
:103F9400014BC150704700BF08740040014BC15031
:103FA400704700BF147400400828044B0CBF42EA59
:103FB400012142EA0141C150704700BF2074004012
:103FC400024B8008C05880B2704700BF2C74004078
:103FD400014B1868000C7047002004E0024B18687D
:103FE400C0F30B00704700BF002004E0044B5A6884
:103FF40019B922EA000058607047104358607047AE
:10400400002004E001683E4A002321F001019042AF
:104014000160036043608360C3604AD00DD9394BAB
:10402400984226D031D9384B984228D0143398423C
:104034005DD0283B984254D07047344B98424AD0C4
:104044000BD9334B98422ED01433984257D1314B6D
:104054005A6842F470225A607047283B984234D020
:104064001433984249D12B4B5A6842F0F0025A60FB
:104074007047294B5A6842F0F0025A607047264B49
:104084005A6842F470425A607047A3F567739842C5
:1040940015D003F56273984230D11F4B5A6842F031
:1040A4000F025A6070471B4B5A6842F470425A60C0
:1040B4007047184B5A6842F470025A607047154BA7
:1040C4005A6842F070625A607047124B5A6842F064
:1040D4000F025A6070470F4B5A6842F470625A607C
:1040E40070470D4B5A6842F470625A6070470A4B2D
:1040F4005A6842F470225A609EE7704770477047CE
:104104006C0002401C04024044040240300002409F
:104114004400024000000240000402408A68F0B4F7
:104124000C6A0B6914434A691C438B69CE692243A8
:1041340007684D6A13438C6A1E43354327F4FF43D3
:10414400CE680F684A682C4323F07003234303604E
:1041540046608760C260F0BC704700BF0023036004
:1041640043608360C360036143618361C36103622D
:1041740043628362704700BF036819B923F00103E7
:104184000360704743F001030360704703681AB982
:1041940023EA01010160704719430160704700BFC1
:1041A400406880B2704700BFC3004CBF034B044B50
:1041B4001B6803420CBF002001207047000402402A
:1041C40000000240C3004CBF014B024B58607047D3
:1041D4000004024000000240C3004CBF034B044BE8
:1041E4001B6803420CBF00200120704700040240FA
:1041F40000000240C3004CBF014B024B58607047A3
:104204000004024000000240044B054900221A60E9
:104214005A609A60DA605961704700BF0004014037
:10422400FFFF0700837930B42BB31D4B01681A6874
:10423400CC4322401A605D6802792C4002F180422E
:104244005C6002F582321568447929431160026882
:104254009868D14308409860D868102C01EA00019E
:10426400D96014D004F1804303F58233196830BC5B
:104274000A431A6070470379016803F1804303F528
:1042840082331A6830BC22EA01021A6070479968C6
:1042940030BC11439960D9680A43DA60704700BFA3
:1042A4000004014000230C224271036003718371F6
:1042B400704700BF024B1A6910431861704700BF72
:1042C40000040140034B5B6918420CBF002001202D
:1042D400704700BF00040140014B5861704700BFA4
:1042E40000040140054B1A685B69034004D0104286
:1042F4000CBF00200120704718467047000401409D
:10430400014B5861704700BF00040140034B1A6819
:1043140002F0380210431860704700BF00200240CA
:10432400044B1A6822F008021A601A6810431860D5
:10433400704700BF00200240044B1A6822F01002AC
:104344001A601A6810431860704700BF00200240CA
:10435400024B0349034A59605A60704700200240E7
:1043640023016745AB89EFCD024B1A6942F0800205
:104374001A61704700200240014BD86980087047D9
:1043840000200240014B186A704700BF0020024021
:10439400024BD869C0F34000704700BF00200240C0
:1043A400024B1868C0F34010704700BF0020024061
:1043B400044B1A6919B922EA0000186170471043C6
:1043C40018617047002002400128064B05D0DB68C5
:1043D40018420CBF002001207047D86900F001008A
:1043E400704700BF00200240014BD860704700BFF7
:1043F40000200240084BDA68D1070BD4DA68520770
:1044040001D502207047DB6813F0100F0CBF0420A5
:1044140003207047012070470020024070B582B02D
:104424000446FFF7E7FF012817D19CB10026FF25BA
:1044340001960195019B2BB1019B013B0193019BCB
:10444400002BF9D1FFF7D6FF012804F1FF3404D182
:10445400002CEDD1052002B070BD002CFAD002B0C2
:1044640070BD00BF38B5054640F6FF70FFF7D6FFB4
:10447400042800D038BD0B4C40F6FF70236943F08C
:10448400020323616561236943F040032361FFF75D
:10449400C5FF0128EED0226941F6FD731340236164
:1044A40038BD00BF0020024010B540F6FF70FFF792
:1044B400B5FF042800D010BD0A4C40F6FF702369F4
:1044C40043F004032361236943F040032361FFF7AE
:1044D400A5FF0128EFD0226941F6FB731340236145
:1044E40010BD00BF0020024010B540F6FF70FFF77A
:1044F40095FF042800D010BD164C174A174BA26034
:10450400A360236940F6FF7043F02003236123690D
:1045140043F040032361FFF781FF042807D00128FB
:10452400E9D0226941F6EF731340236110BD22697B
:1045340041F6DF73134023612169094B41F01001F7
:10454400A52221610F201A80FFF768FF0128E8D116
:10455400D1E700BF0020024023016745AB89EFCDBE
:1045640000F8FF1F70B504460F200D46FFF756FFF5
:10457400042800D070BD0E4EABB232690F2042F059
:10458400010232612380FFF749FF042807D0012884
:10459400F0D0326941F6FE731340336170BD2D0CC7
:1045A40065800F20FFF73AFF0128F2D1E2E700BF50
:1045B4000020024070B504460F200D46FFF72EFF81
:1045C400042800D070BD084E0F20336943F0010366
:1045D40033612580FFF722FF0128F3D0326941F6C9
:1045E400FE731340336170BD0020024070B5054670
:1045F4000F200E46FFF712FF042800D070BD0A4CAE
:104604000A4A0B4BA260A36023690F2043F01003F6
:1046140023612E80FFF702FF0128EFD0226941F6C3
:10462400EF731340236170BD0020024023016745EE
:10463400AB89EFCD38B505460F20FFF7EFFE042810
:10464400044601D0204638BD1E4B1F491F4A9960BD
:104654009A601969ED43EAB241F01001FF2A196129
:1046640011D01B4B0F201A81FFF7D8FE04280AD063
:1046740001280446E6D0134A41F6EF731169204637
:104684000B40136138BDC5F30723FF2B06D0104A36
:104694000F205381FFF7C2FE0428E9D1C5F3074375
:1046A400FF2B06D00A4A0F209381FFF7B7FE042898
:1046B400DED12D0EFF2DDED0054B0F20DD81FFF75F
:1046C400ADFED5E70020024023016745AB89EFCD5D
:1046D40000F8FF1F38B5054640F6FF70FFF79EFE51
:1046E400042800D038BD1C4C1C4A1D4BA260A3609A
:1046F400236940F6FF7043F020032361236943F0EC
:1047040040032361FFF78AFE042807D00128E9D07B
:10471400226941F6DF731340236138BD226941F6F3
:10472400DF7313402361236943F0100323610D4BAE
:1047340075B9A5221A8040F6FF70FFF76FFE0128B5
:10474400D0D0054A41F6EF7311690B40136138BDAF
:1047540000221A80EFE700BF0020024023016745D2
:10476400AB89EFCD00F8FF1FF8B5114C114D124B7A
:10477400A5600646A3600F200D461746FFF74EFEC0
:10478400042800D0F8BD226947F0F8070B4B3D43DD
:1047940042F010022E4322610F205E80FFF73EFE9E
:1047A4000128EFD0226941F6EF7313402361F8BD6D
:1047B4000020024023016745AB89EFCD00F8FF1FBD
:1047C40010B44FF0204380B143F2D20243F82020CA
:1047D400084A441C6FF070434FF0204141F82430E4
:1047E40042F820305DF8044B704743F2DB021A6054
:1047F400EEE700BF040100A010280CBF054B064BD8
:104804004FF0FC3218204021186059609A60DA6039
:10481400704700BF600000A0800000A0054B4FF06F
:10482400FC3218200021186059609A60DA601A611D
:10483400704700BFA00000A083684268C168F0B45C
:1048440043EA020602690E434169164382690E4334
:10485400C1691643026A3143446A41EA0206816A25
:1048640002683443C56A44EA01069400354304F1FE
:104874002044082B256021D0036B571C1D689E69BA
:104884005C682E439D6846EA0416DC6846EA052502
:104894001E6945EA04445B6944EA065444EA036435
:1048A400B1F5804F4FF0204343F827400BD0F0BCC4
:1048B4000F4B6FF0704143F822107047236843F0A8
:1048C40040032360D8E7436B094D19689C69586815
:1048D4000C4399681E6944EA00105B6940EA0121AF
:1048E40041EA065141EA036145F82210F0BC7047E1
:1048F400040100A0C2692DE9F00781684768036AD2
:10490400966847EA0109C768516804699D684FEAD7
:10491400064A49F00809166849EA07094AEA012AD9
:10492400D1685A6847694FEA054849EA04091D688D
:1049340084690068DB6848EA022848EA050210280E
:1049440042EA036249EA47290CBF074B074B4AEA8C
:10495400060A49EA44344AEA01611C609960BDE8E8
:10496400F007DA60704700BF600000A0800000A07C
:1049740090E80C0042F01001826841EA4321154B93
:1049840041EA4231C26870B419609468516815688C
:104994002404D26844EA0121294341EA02610269FC
:1049A40099609468516816682404D56844EA012122
:1049B4003143426941EA0561D960906851681468DD
:1049C4000004D26840EA0121214341EA02611961ED
:1049D40070BC7047A00000A0F0B4416B046B0023CE
:1049E4000F22FF254FF480574FF400564FF0020C6E
:1049F40007624662C0F804C003608360C360036159
:104A040043618361C3618362C362A36122606260A4
:104A1400E26022616261A5608D600A604A60CA60DA
:104A24000A614A618B61F0BC704700BF30B4016A0F
:104A3400C469FC2300221025056042608260C260C4
:104A440002614261826123606360A360E3600B6082
:104A54004B608B60CB6030BC704700BF30B40169E1
:104A6400C4684269FC2300250560456085602360B5
:104A74006360A360E3600B604B608B60CB6030BC11
:104A8400136053609360D360704700BF800000F1EF
:104A9400204021B90268044B134003607047036847
:104AA40043F0010303607047FEFF0F0041B110287B
:104AB4000CBF084B084B1A6842F004021A60704796
:104AC40010280CBF034A044A044B11680B401360BE
:104AD400704700BF600000A0800000A0FBFF0F0033
:104AE40028B9064A064B11680B4013607047034B04
:104AF4001A6842F004021A60704700BFA00000A0C8
:104B0400FBFF0F0041B110280CBF084B084B1A687B
:104B140042F040021A60704710280CBF034A044A4E
:104B2400044B11680B401360704700BF600000A085
:104B3400800000A0BFFF0F0010280CBF014B024BE8
:104B440058697047600000A0800000A052B110288E
:104B54001AD0B0F5807F0CBF0E4B0F4B5A6811432F
:104B640059607047102809D0B0F5807F0CBF094BFD
:104B7400094B5A6822EA010159607047074B5A6889
:104B840022EA010159607047044B5A681143596085
:104B9400704700BF800000A0A00000A0600000A03B
:104BA40010280AD0B0F5807F0CBF054B054B5B681D
:104BB4000B420CBF002001207047034B5B68F7E7F2
:104BC400800000A0A00000A0600000A0102809D070
:104BD400B0F5807F0CBF064B064B5A6822EA0101F0
:104BE40059607047044B5A6822EA010159607047C2
:104BF400800000A0A00000A0600000A010280ED03B
:104C0400B0F5807F0CBF074B074B5B6813EA0100CC
:104C140004D013EAD1010CBF002001207047034BDC
:104C24005B68F3E7800000A0A00000A0600000A083
:104C3400102809D0B0F5807F0CBF064B064B5A688C
:104C440022EAD10159607047044B5A6822EAD10123
:104C540059607047800000A0A00000A0600000A080
:104C640008B5324B984256D00BD9314B984234D0C8
:104C740003F5806398421AD0A3F50063984236D0B6
:104C840008BDA3F5006398423BD003F580639842C6
:104C940019D0A3F500639842F2D10420012100F059
:104CA40031FDBDE808400420002100F02BBD4FF485
:104CB4008070012100F026FDBDE808404FF48070AB
:104CC400002100F01FBD1020012100F01BFDBDE8F4
:104CD40008401020002100F015BD8020012100F0C3
:104CE40011FDBDE808408020002100F00BBD4020EC
:104CF400012100F007FDBDE808404020002100F03C
:104D040001BD0820012100F0FDFCBDE80840082099
:104D1400002100F0F7BC2020012100F0F3FCBDE8E5
:104D240008402020002100F0EDBC00BF0014014029
:104D3400001C014008B50120014600F0E3FCBDE879
:104D440008400120002100F0DDBC00BF2DE9F00384
:104D5400CD78EB0648BF8B78098805F00F0748BF6C
:104D64001F4311F0FF0F23D0D0F800C00023012609
:104D74004FF00F0802E00133082B17D006FA03F2B4
:104D840002EA01049442F6D19A0008FA02F907FAF9
:104D940002F22CEA090C282D4CEA020C35D0482DDD
:104DA40003F1010308BF0461082BE7D1C0F800C078
:104DB400FF2925D9D0F804C0002301264FF00F089D
:104DC40002E00133082B19D003F1080206FA02F2BB
:104DD40002EA01049442F4D19A0008FA02F907FAAB
:104DE40002F22CEA090C282D4CEA020C0BD0482DB7
:104DF40003F1010308BF0461082BE5D1C0F804C026
:104E0400BDE8F00370474461DBE74461B3E700BFEA
:104E14004FF6FF710222042301808270C370704731
:104E2400836819420CBF002001207047806880B25B
:104E3400704700BFC36819420CBF002001207047AF
:104E4400C06880B2704700BF01617047416170471C
:104E54000AB9416170470161704700BFC160704782
:104E640041F480338361816183618369836970471D
:104E7400064B10B41C684FF680722240114341EA7D
:104E8400001018605DF8044B704700BF000001403B
:104E9400014B1860704700BF1C00204230B4164A12
:104EA40000F44014B4F5401F85B253681CD0C2020C
:104EB40011D5C0F30342032404FA02F223EA0203E5
:104EC40043F0706319B1400D000185402B430A4A39
:104ED40030BC53607047420D120105FA02F223EA16
:104EE400020343F07063EDE7546823F0706324F029
:104EF40070645460E6E700BF0000014001F0030362
:104F04009B000F229A4000FA03F301F0FC0101F127
:104F1400804101F58031886820EA02028A608A684B
:104F240013438B60704700BF08B5104B984210D0F4
:104F340003F5806398420BD14FF48000012100F007
:104F4400EDFBBDE808404FF48000002100F0E6BB13
:104F540008BD4FF40010012100F0E0FBBDE808405B
:104F64004FF40010002100F0D9BB00BF00540040F2
:104F7400F0B587B00446868801A80D4600F04EFBC4
:104F840003992F4826F03F06A0FB01303604800C1D
:104F9400360C87B23E43A6802388EA6823F00103D7
:104FA400284E1B041B0CB242238023D85300B1FBB0
:104FB400F3F39BB2032B07F1010798BF0423278463
:104FC400A3832388EE889BB243F0010323802388C4
:104FD400288823F4816323F00203A9882A891B0407
:104FE40030431B0C03430A439BB292B223802281B9
:104FF40007B0F0BD6E884BF6FF739E421AD002EBE9
:10500400820202EB8202B1FBF2F39BB243F48043CF
:10501400C3F30B020AB943F001034FF4967202FB87
:1050240000F0094A43F4004382FB00108009013078
:105034002084C5E702EB4202B1FBF2F39BB2E7E73F
:1050440083DE1B43A0860100D34D6210002310B4FD
:105054004FF480414BF6FF7441F288324480018161
:10506400C26003808380C3805DF8044B704700BF37
:10507400038829B923F001031B041B0C0380704728
:105084009BB243F001030380704700BF838829B9B2
:1050940023F400631B041B0C838070479BB243F40E
:1050A40000638380704700BF838829B923F4805349
:1050B4001B041B0C838070479BB243F48053838092
:1050C400704700BF038829B923F480731B041B0CA9
:1050D400038070479BB243F480730380704700BF22
:1050E400038829B923F400731B041B0C0380704745
:1050F4009BB243F400730380704700BF038829B94F
:1051040023F480631B041B0C038070479BB243F49D
:1051140080630380704700BF838901F0FE019BB266
:1051240023F0FE030B438381704700BF838929B9B1
:1051340023F001031B041B0C838170479BB243F0D3
:1051440001038381704700BF038829B923F040031A
:105154001B041B0C038070479BB243F04003038085
:10516400704700BF83889BB21AB923EA010181808A
:10517400704719438180704701827047008AC0B22A
:10518400704700BF1AB901F0FE010182704741F077
:1051940001010182704700BF82B00190019BC85A8F
:1051A40080B202B0704700BF038819B9C3F30E037D
:1051B400038070476FEA43436FEA53439BB2038013
:1051C400704700BFB1F5005F038805D023F4005396
:1051D4001B041B0C038070479BB243F400530380F1
:1051E400704700BF038829B923F480531B041B0CA8
:1051F400038070479BB243F480530380704700BF21
:10520400B1F5006F038805D023F400631B041B0C65
:10521400038070479BB243F400630380704700BF70
:10522400038829B923F020031B041B0C0380704757
:105234009BB243F020030380704700BF008BC0F390
:1052440007207047038829B923F010031B041B0CA3
:10525400038070479BB243F010030380704700BF84
:10526400038829B123F080031B041B0C03807047BF
:105274009BB243F080030380704700BFB1F5804FB9
:10528400838B05D023F480431B041B0C838370475A
:105294009BB243F480438383704700BF828A038BAD
:1052A40090B240EA034020F07F407047828A038B2B
:1052B40090B240EA034020F07F40431A58425841DC
:1052C400704700BF82B000230A0F0093019301903E
:1052D4000092009B21F07F4153B1019B1433019351
:1052E400019B1B6819420CBF0020012002B07047CB
:1052F400019B090C18330193F2E700BFC94389B23B
:10530400818270478388808A9BB280B2084006D02D
:1053140001F0E06113EA11410CBF00200120704745
:10532400C94389B281827047014B1860704700BF3E
:1053340000300040014B5860704700BF003000400F
:10534400014B9860704700BF00300040024B4AF6A2
:10535400AA221A60704700BF00300040024B4CF68E
:10536400CC421A60704700BF00300040034BDB683A
:1053740018420CBF00200120704700BF00300040DD
:1053840008B54FF08050012100F0C8F9BDE808408D
:105394004FF08050002100F0C1B900BF014B1860EC
:1053A400704700BF20000E42014B1860704700BFD9
:1053B40010000E42034B1A6822F0E00210431860FA
:1053C400704700BF00700040014B1860704700BF79
:1053D400A0000E420A4A10B414680A4B24F00304D5
:1053E400204310601A68012942F004021A6003D0B5
:1053F40020BF5DF8044B704730BF5DF8044B704725
:105404000070004010ED00E0074B084A196841F0B5
:1054140004011960196841F002011960136843F02E
:105424000403136030BF70470070004010ED00E0CB
:10543400034B5B6818420CBF00200120704700BF7B
:1054440000700040024B1A6842EA800018607047FE
:10545400007000400C4B0D4A1868002140F0010018
:105464001860586802405A601A6822F0847222F464
:1054740080321A601A6822F480221A605A6822F470
:10548400FE025A6099607047001002400000FFF865
:105494000C4BB0F5803F1A6822F480321A601A6807
:1054A40022F480221A6008D0B0F5802F04D11A6843
:1054B40042F4A0221A60704770471A6842F480329E
:1054C4001A6070470010024082B000230A4A019318
:1054D40006E0019B01330193019BB3F5A06F05D056
:1054E40013689B03F5D5019B01330193024B1868A4
:1054F400C0F3404002B0704700100240034B1A68EA
:1055040022F0F80242EAC00018607047001002401E
:10551400014B1860704700BF00004242034B5A68B9
:1055240022F47C1211430843586070470010024073
:10553400014B1860704700BF60004242034B5A6839
:1055440022F0030210435860704700BF001002406D
:10555400024B586800F00C00704700BF0010024076
:10556400034B5A6822F0F00210435860704700BFA2
:1055740000100240034B5A6822F4E0621043586062
:10558400704700BF00100240034B5A6822F4605277
:1055940042EAC0005860704700100240044B1A7879
:1055A40019B922EA00001870704710431870704748
:1055B40009100240014B1860704700BFD8004242F6
:1055C400034B5A6822F4404210435860704700BFAE
:1055D40000100240064B002201281A701A7005D0F0
:1055E400042802D105221A7070477047187070475A
:1055F40020100240014B1860704700BF80044242F3
:10560400024B1A6A10431862704700BF0010024030
:10561400014B1860704700BF3C044242214A10B459
:10562400536803F00C03042B23D0082B24D01E4909
:1056340001601C4A1D4B5468C4F303141C5DE14013
:1056440041605468C4F302241C5D21FA04F48460AC
:105654005468C4F3C2241C5DE140C16052685DF823
:10566400044BC2F3813213441B7CB1FBF3F101619F
:1056740070470F490160DCE751685368C1F3834107
:10568400DC0301F1020108D553689B034CBF094BAD
:10569400074B03FB01F10160CBE7074B03FB01F16F
:1056A4000160C6E70010024000127A00D001002019
:1056B400001BB700808D5B0000093D00044B5A6954
:1056C40019B922EA000058617047104358617047C5
:1056D40000100240044B9A6919B922EA000098614B
:1056E400704710439861704700100240044BDA6918
:1056F40019B922EA0000D86170471043D861704795
:1057040000100240044BDA6819B922EA0000D8609C
:1057140070471043D860704700100240044B1A6968
:1057240019B922EA000018617047104318617047E4
:1057340000100240014B1860704700BF4004424211
:10574400014B1860704700BF4C004242014B187077
:10575400704700BF071002404309012B0BD0022BF6
:10576400094B00F01F000CBF1B6A5B6A23FA00F0B0
:1057740000F001007047044B00F01F001B6823FA7F
:1057840000F000F00100704700100240024B5A6A1A
:1057940042F080725A62704700100240034B9B68CB
:1057A40018420CBF00200120704700BF00100240C7
:1057B400014B1870704700BF0A100240054B1A884D
:1057C40092B219B922EA0000188070471043188079
:1057D400704700BF00280040034B9A8892B242F001
:1057E40010029A80704700BF00280040034A938843
:1057F40023F010031B041B0C938070470028004007
:10580400034B9A8B188B93B243EA0040704700BF56
:1058140000280040084B020C998880B289B241F0FC
:10582400100199801A8398839A8822F01002120436
:10583400120C9A80704700BF00280040084BC0F348
:105844000342998880B289B241F0100199801A818B
:1058540098819A8822F010021204120C9A807047E0
:1058640000280040084B020C998880B289B241F0AC
:10587400100199801A8498849A8822F010021204E4
:10588400120C9A80704700BF00280040044B188A0D
:105894009B8A00F00F009BB243EA0040704700BFB0
:1058A40000280040024A93889B06FCD5704700BF3D
:1058B4000028004005498B880A4623F008031B048E
:1058C4001B0C8B8093881B07FCD570470028004075
:1058D400034B9B8818420CBF00200120704700BF77
:1058E40000280040034B9A8892B222EA0000988074
:1058F400704700BF00280040064B9A881B8892B26C
:10590400034005D01040C0B2003018BF01207047DA
:105914001846704700280040034B9A8892B222EA46
:1059240000009880704700BF00280040064B0749DC
:1059340000221A605A609A60DA605A629A62DA62E5
:105944009963DA63704700BF00800140FF07C0001D
:1059540030B4C3688468094A0169556823434468BC
:105964000B4341691C4325F4FD432143007823F094
:105974007F030B430343536030BC704700800140F6
:105984000023037043608360C36003614361704715
:10599400014B1860704700BFA0003042044B1A68E6
:1059A40022F003021A601A6810431860704700BF9F
:1059B40000800140024B186800F00300704700BFEC
:1059C40000800140044BDA6B19B922EA0000D86365
:1059D40070471043D863704700800140014B186042
:1059E400704700BF8C0530420268094B30B49A609E
:1059F400011DDA6832C900692143294322F4FF6298
:105A0400014322F007020A43DA6030BC704700BF4A
:105A1400008001400023036043608360C36003612E
:105A2400704700BF014B1869C0B270470080014045
:105A3400014BC058704700BF148001400268094BF5
:105A440030B45A6242689A62C168826805694469DE
:105A54000A43D86A2A43224320F0F7000243DA6259
:105A640030BC70470080014000234FF0FF3280E8D3
:105A74000C008360C360036143617047014B186B82
:105A8400704700BF00800140014BD3F8800070478D
:105A940000800140014BC3F8800070470080014042
:105AA400014B986C704700BF00800140014B1860A7
:105AB400704700BFA0053042014B1860704700BF1B
:105AC400A4053042014B1860704700BFA80530425E
