:020000040800F2
:100000000004002029370008193400081D340008B6
:1000100021340008253400082934000800000000BD
:100020000000000000000000000000002D34000867
:10003000313400080000000035340008393400086D
:10004000BD360008BD360008BD360008BD360008C4
:10005000BD360008BD360008BD360008BD360008B4
:10006000BD360008BD360008BD360008BD360008A4
:10007000BD360008BD360008BD360008BD36000894
:10008000BD360008BD360008BD3600087D340008C6
:1000900081340008BD360008BD360008BD360008B2
:1000A000BD360008BD360008BD360008BD36000864
:1000B00089340008BD360008BD360008BD3600088A
:1000C000BD360008BD360008BD360008BD36000844
:1000D000BD360008BD360008BD360008BD36000834
:1000E000BD360008BD360008BD360008BD36000824
:1000F000BD360008BD360008BD360008BD36000814
:10010000BD36000885340008BD360008BD3600083D
:10011000BD360008BD360008BD360008BD360008F3
:10012000BD360008BD360008BD360008BD360008E3
:1001300000000000000000000000000000000000BF
:1001400000000000000000000000000000000000AF
:10015000000000000000000000000000000000009F
:10016000000000000000000000000000000000008F
:10017000000000000000000000000000000000007F
:10018000000000000000000000000000000000006F
:10019000000000000000000000000000000000005F
:1001A000000000000000000000000000000000004F
:1001B000000000000000000000000000000000003F
:1001C000000000000000000000000000000000002F
:1001D000000000000000000000000000000000001F
:0401E0005FF8E0F1F3
:0801E400B0A4000001000000BE
:1001F00040F2D023C2F200031A684FF4406001328B
:100200001A60D307C4F201004FF0020101D405F0D7
:100210002FB905F02FB900BF10B5082082B0012119
:1002200005F092FD4FF4406010220323C4F2010058
:10023000022401A9ADF804408DF807208DF806309E
:1002400005F098F802B010BD10B5102082B0012161
:1002500005F07AFD04224FF480500323C4F201001C
:1002600030240DEB0201ADF804408DF807208DF825
:10027000063005F07FF802B010BD00BF704700BF28
:1002800010B5042082B0012105F05EFD4FF400603E
:1002900010220323C4F20100802401A9ADF8044018
:1002A0008DF807208DF8063005F064F802B010BD17
:1002B00010B5082082B0012105F046FD4FF44060E2
:1002C00010220323C4F20100012401A9ADF8044067
:1002D0008DF807208DF8063005F04CF802B010BDFF
:1002E00010B5042082B0012105F02EFD4FF400600E
:1002F00048220323C4F20100012401A9ADF80440FF
:100300008DF807208DF8063005F034F802B010BDE6
:1003100010B5012084B0014605F024FD00244FF4FF
:10032000E153092201A94FF08040ADF80430ADF847
:100330000820ADF80A40ADF8064006F075F94FF018
:100340008040012106F062FC01210A464FF0804006
:1003500006F07AFC1C22012368468DF801408DF8D6
:1003600002408DF800208DF8033003F027FA04B026
:1003700010BD00BF4FF40060C4F20100012105F080
:1003800063B800BF01284FF40060C4F201004FF0D1
:10039000800101D005F06CB805F06CB80146012968
:1003A0004FF44060C4F2010002D0012105F062B8B0
:1003B00005F05EB840F2E023C2F200031A78104460
:1003C0001870704708B5002005F01EFCBDE8084015
:1003D0004FF40000012105F0C5BC00BF40F2985366
:1003E000C2F2000303221A60704700BF40F6801378
:1003F000C2F200031B689B7A33B940F29853C2F2F1
:10040000000301221A60704740F29853C2F20003C1
:1004100005221A60704700BF30B54FF4C06083B04A
:1004200003F0C2F9012401A8142300258DF804303B
:100430008DF805408DF806408DF8074003F0BEF9B1
:1004400001A813238DF804308DF805408DF807407E
:100450008DF8065003F0B2F9312301A88DF807405A
:100460008DF805508DF806508DF8043003F0A6F98C
:1004700003B030BD38B94FF40060C4F201004FF44E
:10048000004104F0F7BF4FF40060C4F201004FF4E4
:10049000004104F0EDBF00BF092894BF3030373071
:1004A000C0B2704770B501F0D5FB0A2001F000FC26
:1004B00004460B2001F0FCFB05460C2001F0F8FB84
:1004C00006460D2001F0F4FB00EB062000EB054092
:1004D00040F2E02300EB0460C2F200035860002801
:1004E0005FD0010F40F2B003C2F2000330220929AD
:1004F00098BF891883F8302083F82E2083F82C20A9
:1005000083F82A2083F8282083F8262083F82420E3
:1005100083F8222083F820209A771A779A761A7621
:100520009A751A759A74C0F3036288BF3731092A25
:10053000997094BF02F1300102F13701C0F3035208
:10054000092A197194BF02F1300102F13701C0F399
:100550000342092A997194BF02F1300102F1370177
:10056000C0F30332092A197294BF02F1300102F17B
:100570003701C0F30322092A997294BF02F13001B6
:1005800002F13701C0F30312092A00F00F0094BFF3
:1005900030323732092894BF3030373019739A73AC
:1005A000187470BD03F006B84FF48070012105F097
:1005B000BDBB00BF10B5042082B0012105F0C4FB13
:1005C0004FF400600322102301A9C4F201004FF48C
:1005D00000448DF806208DF80730ADF8044004F093
:1005E000C9FE0020FFF746FF02B010BD08B502F0BB
:1005F000E1FFFFF7DFFFFFF727FEFFF741FEFFF701
:1006000057FE4020012105F091FBFFF781FEFFF727
:1006100067FE00F02DF8BDE80840012002F0C4BEDE
:100620004278037803EB022080B2704700231A4619
:10063000C118C978013B01EB0222191DF8D11046FF
:10064000704700BFF0B400210746002600200B02CF
:10065000B919CC79020243EA1063013EA0184FF0A9
:10066000000545EB030116F1080FF0D1F0BC70470F
:1006700030B440F2717140F208650020C2F200050A
:1006800040F26D7440F2F02340F20C62C2F20001BD
:10069000C2F200042870C2F20003C2F20002087025
:1006A00020701A6030BC704738B540F2F023C2F2B7
:1006B00000031D7940F20862C2F20002002440F2F9
:1006C0000C601470012DC2F20000186008BF13788E
:1006D00040F26D7108BF43F00803C2F2000108BF89
:1006E00013700C7000F014FD40F27173C2F200033D
:1006F00000221A7038BD00BF38B540F2F023C2F2B4
:1007000000031D7940F20862C2F20002002440F2A8
:100710000C601470012DC2F20000186008BF13783D
:1007200040F26D7108BF43F00803C2F2000108BF38
:1007300013700C7000F0ECFC40F27173C2F2000315
:1007400000221A7038BD00BF012810B5044613D02E
:100750000CD3022809D1102107F0B4FE20464FF433
:100760008051BDE8104007F0C1BE10BD022010212D
:10077000BDE8104007F0A6BE02204FF48051BDE84E
:10078000104007F0B3BE00BF10B5022008F082F899
:1007900040F6D4530446C2F2000340F6F05022461D
:1007A0001C80C2F20000D821BDE8104007F010BE46
:1007B000F8B540F26D75C2F200052B7840F2F024D6
:1007C00023B3C2F20004022008F064F8C6B2324635
:1007D0002068D82107F0FCFD2368A1682A789819C1
:1007E000314440F2F023A1602060C2F20003B2B1B4
:1007F000DB689E1B002EE66027DD02232B700220A3
:100800004FF44051BDE8F84007F070BE40F20C6272
:10081000C2F20004C2F20002A3602260D3E740F2F9
:100820000C62C2F20002507892F802C00A30D77807
:1008300000EB0C20D860B7B103469E1B374F042253
:10084000002E27602A70E660D7DC15D107232B70B5
:1008500040F20863C2F200031978002241F001015E
:100860001970A260F8BD1379002BE5D1B0F58D7F2A
:10087000B8BF0346BDDBDFE70BDA06232B7040F27F
:100880000C63C2F20003FF225A709A70DA701A7178
:10089000DEE72B789A1E052ADAD801A050F822F05C
:1008A000FF070008B9080008EF080008B9080008A9
:1008B0007F08000851080008E1B9032B0CBF07238B
:1008C00006232B70761A40F2F023002EE660C2F267
:1008D000000312DD287840F26D720328C2F2000294
:1008E000C0D118680224014414701960F8BD0523B2
:1008F0002B70F8BDFF29E5D1B4E70AD12A7840F280
:100900006D73032AC2F200030CBF072206221A707D
:10091000F8BDA7DA06232B70F8BD00BF160600202D
:10092000F8B540F26D74C2F200042078092843D073
:100930000A282AD0082800D0F8BD40F20C60C2F284
:1009400000008278437840F2F02543EA02220A321E
:10095000B2F5977FC2F200055ADD4FF49773286015
:10096000EB6040F20C60C2F200004FF48C71402248
:1009700007F010FD2A68EB684032403B0926022050
:1009800040212A60EB6026702BE040F20863C2F23F
:1009900000031F7840F6D652C2F2000247F0020769
:1009A0000326002502204FF440511F701670257059
:1009B00007F09CFD2078F8BD40F2F025C2F200055A
:1009C000EA683F2A15DC92B228684FF48C7107F070
:1009D000E1FCEB682A6899B20A26134402202B60D6
:1009E000267007F0FBFE0220302107F06BFD207817
:1009F000F8BD28684FF48C71402207F0CBFC2A68C0
:100A0000EB684032403B022040212A60EB60E8E77F
:100A10003F2AEA602860A4DC4FF48C7192B207F0A0
:100A2000B9FC0A23A98902202370DAE710B540F245
:100A30000864C2F200042378DB0720D540F20C637F
:100A4000C2F200031B78613B112B48D8DFE803F0AA
:100A5000181D24473D474747474742292E3338470B
:100A6000470900F029FE00F075FE217840F26D7311
:100A700001F0FE01C2F20003082221701A7010BDBD
:100A800000F064FD00F08CFEEFE700F06BFC8128C5
:100A900018D100F0DBFA15E000F088FC00F074FEDD
:100AA000E3E700F0F1FC00F07BFEDEE700F018FD6C
:100AB00000F076FED9E700F0D1FD00F04BFED4E760
:100AC00000F09EFC00F02CFECFE700F071FC00F07F
:100AD00041FECAE700F07EFD00F086FEC5E700F0AB
:100AE0009DFEC2E738B540F20864C2F200042378E4
:100AF0001A071DD4237840F20864DA06C2F2000413
:100B000015D500F0ADFE40F204600422C2F20000F0
:100B1000982107F03FFC0120042107F05FFE01202F
:100B2000302107F0CFFC237803F0EF03237038BDAA
:100B300000F086FE40F2F023C2F200031B7C2BBBC8
:100B400040F20460C2F200004578022D06D0032D69
:100B50002FD0237803F0F7032370CBE723785B07CC
:100B6000F7D52A46982107F015FC2946012007F001
:100B700035FE0120302107F0A5FC237803F0F703B0
:100B80002370237803F0FB032370B3E700F058FED3
:100B900040F204600222C2F20000982107F0FAFB42
:100BA0000120022107F01AFE0120302107F08AFC03
:100BB000CFE723785907CCD40222982107F0EAFB2B
:100BC0000120022107F00AFE0120302107F07AFC03
:100BD000237803F0F7032370237843F00403237092
:100BE00088E700BF704700BF704700BF704700BF75
:100BF00040F20863C2F200031A7842F008021A7049
:100C00001A7802F0FB021A70FFF76CBF08B5FFF705
:100C10000DFF40F26D73C2F200031B7803F0FD0379
:100C2000082B00D008BDBDE80840FFF779BE00BF23
:100C300040F2F023C2F200031871704740F2F02333
:100C4000C2F200031879704710B540F20434C2F2C2
:100C500000042378112203F0F90323702178002384
:100C600001F0FE01637063712170227100F058FA87
:100C7000637960B143F00203637100230A2003210A
:100C80002022A371A372E0712172627210BD23F061
:100C900002036371F1E700BF38B540F20434C2F2D9
:100CA000000422794BF298031109C0F6000303EB0C
:100CB0008101086C02F00F0253F82250C001B0FB12
:100CC000F5F010F001011CBF01300121400800F0D7
:100CD0002DFA18BB627940F20433C2F2000312F01D
:100CE000100F1A78A07914BF42F0010202F0FE0240
:100CF0001A70FF2840F20433C2F2000318BF0C3010
:100D00000ED000F01BFAE379C3EB031305FB03F5E8
:100D10002846E56000F014FA812038BD0A2038BD6D
:100D20001B7813F0010F14BF0B200C20E9E700BF64
:100D300008B500F0F5F940F20433C2F200035A7925
:100D400018B142F002025A7108BD22F002025A7133
:100D500008BD00BF04290AD005290AD003795A1D0D
:100D60008A4204D006338B4206D00020704702200E
:100D70007047007902307047805C0230704700BFD6
:100D8000F0B540F20434C2F20004657883B00F4637
:100D9000EDB1012D18D10B68002B39D13AB166693C
:100DA000F55CC55401339342FAD11644666121695A
:100DB00040F204338A42C2F200031AD2891A812017
:100DC00019613A6003B0F0BD812003B0F0BD09683D
:100DD00009B3042913D0052920D003795A1D914263
:100DE0000DD00633994218BF2A4609D1825C0232DF
:100DF00006E00022812039605A7003B0F0BD022263
:100E000001AB01F09BFD019B81203B6003B0F0BD75
:100E1000284603B0F0BD012003B0F0BD02790232D4
:100E2000EEE700BF2DE9D84140F20434C2F20004DD
:100E30002378804613F0060F0F46164603D008208D
:100E40000AB1BDE8D881227840F2043312F0060FCF
:100E5000C2F2000324D08120227840F2043312F041
:100E6000060FC2F2000302D11B78DB0727D42278D9
:100E700040F2043302F00602022AC2F2000318D044
:100E8000227840F2043302F00602022AC2F2000382
:100E9000D7D11B7813F0010F18BFF620BDE8D88119
:100EA0001B78DA07D7D4404639463246FFF768FF49
:100EB000D2E71B7813F0010F08BFF620E0E74046A9
:100EC00039463246FFF75CFFD1E700BFF620704796
:100ED000F6207047F6207047F0B440F20433C2F2B7
:100EE00000031F795E799D79DC79197A5A7A9B7AA9
:100EF000077046708570C470017142718371F0BCD7
:100F0000012070472DE9F8430129027818BF002419
:100F1000457890F80290C778067906BF90F805806A
:100F20008479A0464BF29803101CC0F6000318BF4A
:100F3000012053F8200010B90A20BDE8F8831009F9
:100F400053F82030002BF7D029B915F0FD0F04D04D
:100F50000B20BDE8F88301290DD09F2F04D9E906A5
:100F600002D50D20BDE8F883032E18BF002E08D04F
:100F70000E20BDE8F883A5F11003DBB2032BE7D800
:100F8000EBE714B11020BDE8F88340F20434C2F25C
:100F900000042271657100F0C3F8637970B923F021
:100FA00002036371002384F80690E771267284F8C7
:100FB0000980A372BDE8F843FFF76EBE43F0020359
:100FC0006371EFE7F0B44BF26044C0F600040546ED
:100FD0000E460FCCA778B4F800C0286012246960D0
:100FE000AA60EB60A5F810C0AF743460F0BC704725
:100FF0000B680022012BF0B40C4605460A6002D0B3
:10100000F0BC812070470378022BF9D14BF2604687
:10101000C0F600060FCEB6F800C0B77812262860DA
:101020006960AA60EB60A5F810C0AF742660E7E7BE
:1010300040F20433C2F200031B7A2BB108B900F06E
:1010400073B8184600F070B818467047F0B440F214
:10105000AC72C2F20002137807202BB392F82B5027
:1010600092F82C6040F20C64AF1950789178C2F27B
:101070000004002302376770A072E172A370E3706E
:10108000237135B1D118C878E1180133AB42087328
:10109000F8DB2C44002336B1D118C87DE1180133A8
:1010A000B3420873F8DB8120F0BC704740F27173E3
:1010B000C2F2000300221A70704700BF002240F203
:1010C00071730270C2F200031A7802F00402027017
:1010D0001B789B0704D542F008020270FB20704782
:1010E000002A14BFFB208120704700BF40F27173BB
:1010F000C2F200031A781B78520701D5FB20704713
:1011000013F0020F14BFFB2081207047704700BF0F
:10111000704700BF704700BF704700BF0020704796
:1011200000207047002070478120704740F2F47320
:101130000C3898428CBFFF2000207047704700BFDA
:10114000704700BF40F27173C2F200031A7802F0D8
:10115000F7021A70704700BF704700BF40F271720B
:10116000C2F20002137803F0F70313701378190723
:10117000FCD57047F0B440F27173C2F200031F78DF
:1011800040F27C7507F0EF0740F2747440F2807211
:10119000C2F20005C2F200040026C2F200021F7073
:1011A000296020601660F0BC704700BF704700BF28
:1011B00040F27173C2F200031A7802F0FE021A7054
:1011C000704700BF40F28073C2F200031868704796
:1011D00030B440F27173C2F200031D7840F27C74A7
:1011E00005F0EF0540F28072C2F200040131C2F254
:1011F00000021D702160106030BC704740F28073A7
:10120000C2F200031868704740F28073C2F2000314
:101210001868704730B440F27172C2F2000215785B
:1012200040F2707140F2787305F0F705C2F20001E8
:101230000124C2F20003032015700C70187013789B
:101240001807FCD530BC704770B440F27174C2F21C
:1012500000042378002A30D103F0DF03052923702E
:101260002FD0237840F27C7503F0EF0323702678AB
:1012700040F280720130C2F2000506F0F706C2F2B9
:10128000000240F27173286026701160C2F2000300
:1012900005E01A78160705D41A78D50602D4227804
:1012A000D207F6D52378DC0748BFFD2003D40029F8
:1012B0000CBF8120FE2070BC704743F020032370D8
:1012C000CFE740F2787240F27073C2F20002C2F2CD
:1012D000000315781A789542C3D042781A70C0E797
:1012E000F0B440F27174C2F200042378D1F800C067
:1012F00043F040032370237840F2747203F0EF034D
:101300002370277840F27C7540F28073C2F20002AD
:1013100007F0F707C2F20005C2F200030026C2F888
:1013200000C02770224628601E6005E013781D0764
:1013300005D41378D80602D42378DE07F6D5002327
:101340000B60227840F27173D107C2F2000348BFEC
:10135000FD2005D41B7813F0100F0CBFFE20FC20DD
:10136000F0BC704708B540F20C63C2F200035A7932
:101370000AB1052008BD5A7872B99A7862B9DA784C
:1013800052B91B7943B940F20863C2F200031B78DB
:101390009B0603D5FF2008BD012008BD01F0E2FB3C
:1013A000002814BF8120FB2008BD00BF81207047AA
:1013B00000B540F20C63C2F200035A7983B00520F5
:1013C00012B103B05DF804FB5A784AB99A783AB979
:1013D000DA782AB91A791AB9DA792AB10720F0E746
:1013E000012003B05DF804FB1A7A002AF6D15B7A7B
:1013F000002BF3D10DF10700FFF760FEE1E700BF1E
:1014000030B540F20C64C2F20004637983B0052069
:101410000BB103B030BDA1786378E27843EA0123D1
:10142000019372B9227962B90A33B3F58D7F08D27C
:1014300040F20865C2F200052B789A0604D5FF2019
:10144000E7E7012003B030BD0DF10300FFF736FEE2
:101450008128DED1237A627A04F10A0043EA02226B
:1014600001A9FFF7DFFC2B7803F0200303F0FF0254
:10147000002BE4D18128CCD1019BE270190A2271A2
:101480006370A170C5E700BF00B540F20C60C2F206
:101490000000437983B01BB1052003B05DF804FB65
:1014A00043784BB983783BB9C3782BB903791BB91F
:1014B000C3792BB10720F0E7012003B05DF804FBEE
:1014C000037A002BF6D1417A0029F3D10A30FFF7D5
:1014D00019FD8128E1D10DF10700FFF7EFFDDCE7F1
:1014E00070B540F20C63C2F200035A7982B0052055
:1014F0000AB102B070BD5A784AB99A783AB9DA7826
:101500002AB91A791AB9DA7922B10720F1E701204C
:1015100002B070BD1A7A002AF7D15A7A002AF4D1A3
:101520000A251146112603245819DA721A73DA7340
:101530001A749E725D739C73FFF7E4FC8128D8D106
:101540000DF10700FFF7BAFDD3E700BF30B540F259
:101550000C63C2F200035A7983B005200AB103B0CC
:1015600030BD9A78B2B9DA78A2B91A7992B95A78B4
:1015700002F0FD0105290DD1072A0ED0052A08BF6A
:10158000DA790ED01B7A40F20C64C2F2000463B127
:101590000820E4E7012003B030BDDA79012AF1D058
:1015A00059700720002ADAD1ECE7657A002DEFD1D7
:1015B00082232370FFF7B2FD0722E07101230DEBB8
:1015C00002002572A570E570257162706372FFF7E5
:1015D00075FDC4E730B540F20C64C2F200046379D3
:1015E00083B005200BB103B030BDA1786378E278F9
:1015F00043EA012301934AB922793AB90A33B3F590
:101600008D7F03D2E37923B10720ECE7012003B0FB
:1016100030BD237A002BF7D1637A002BF4D140F24E
:101620000865C2F200052B78980601D5FF20DAE79D
:1016300001A904F10A00FFF7DBFC2B789906F5D429
:101640008128D0D1019A0023110A0DF103006270A4
:10165000A170E3702371FFF731FDC4E700B540F2DC
:101660000C63C2F200035A7983B0052012B103B0B3
:101670005DF804FB5A7872B99A7862B9DA7852B98F
:101680001A7942B9D879012888BF0720EFD81A7A89
:101690002AB10820EBE7012003B05DF804FB5B7A78
:1016A000002BF6D1FFF7C4FC8128E0D10DF1070033
:1016B000FFF704FDDBE700BF40F20C63C2F200035A
:1016C0005A790AB1052070475A784AB99A783AB9D6
:1016D000DA782AB91A791AB9DA791AB10720704773
:1016E000012070471A7A002AF8D15A7A002AF5D1D7
:1016F00040F20862C2F200021178890601D4FF208C
:10170000704740F26C71C2F2000198790B789842F0
:10171000F5D11378812003F0DF031370704700BF09
:1017200038B540F20C64C2F20004802305462370F1
:10173000FFF7F4FC0023812DE071237206D04030C6
:10174000E0716370A370E3702371257200236372EC
:1017500038BD00BF38B540F20C64C2F200048123EA
:1017600005462370FFF7DAFC0023812DE071237218
:1017700006D04030E0716370A370E370237125726E
:10178000FFF7D0FC607238BD08B5FFF7E3FF40F209
:101790000C63C2F200030122DA715A7208BD00BF65
:1017A00038B540F20C64C2F200048223054623706F
:1017B000FFF7B4FC0023812DE071A370E370237167
:1017C000237204D04030E0716370257238BD04F19B
:1017D0000A00FFF781FB607210B90523637038BD02
:1017E0000723637038BD00BF38B540F20C64C2F205
:1017F0000004832305462370FFF790FC0023812D0E
:10180000E071237206D04030E0716370A370E37022
:10181000237125720023637238BD00BF38B540F2D2
:101820000C64C2F2000400256570A570E570257196
:10183000FFF774FC4030E0712572657238BD00BF5F
:1018400010B540F204645023C2F200042370FFF785
:1018500065FC022816BF03236070637010BD00BFD3
:1018600010B440F20C63C2F200039C7940F20463AE
:10187000C2F200035120002181229C70187059701F
:10188000DA705DF8044B70470023037003714380E6
:101890004371704710B459B100231A46C45C013338
:1018A0008B4282EA0402F9DB10465DF8044B704774
:1018B0000A46F9E7F8B543790278044603F00100D7
:1018C000111D80010133002784F80801A1716371A3
:1018D00084F8092184F8077104F58570E11D08F08A
:1018E0000DFE267804F20715033616F0FF000BD024
:1018F0003A463B46E95C0133834282EA0102F9DB66
:10190000344484F80721F8BD0246F9E7437910B45E
:1019100003F001020424A240591C803A0023847180
:10192000417180F8082180F80A2180F8073180F899
:1019300009315DF8044B704770B582B0002202ABEC
:10194000044643F8042D00F20710A1794FF4807289
:1019500000F0F4FF019D052D04D84AF201006080DB
:1019600002B070BD94F8083120799B065DBF631901
:1019700093F8041193F805314AF2020356BF03EBC2
:1019800001230422062220446380164604F5857153
:10199000AA1A073008F0B2FD237960881D44AE1BF7
:1019A000267102B070BD00BF38B500230371044634
:1019B000FFF780FF2046FFF7BFFF63884AF201026E
:1019C000934212D04AF202050AE0FFF79FFF204639
:1019D000FFF7B2FF6388B3F5104F18BFAB4204D1D5
:1019E00094F8082120469206EFD4184638BD00BF6F
:1019F00070B44BF21812C0F600021068516885B03E
:101A000001AB03C3957A118940F21C3219809D7095
:101A1000C2F2000201AC03CC134624880B26C2F8A4
:101A2000070003F8076B10469D721C81596005B0D2
:101A300070BCFFF7B9BF00BFF8B540F21C34C2F26A
:101A40000004002360720527CA2620461546E3716C
:101A5000E372A17227702672FFF7A6FF23792B701D
:101A6000F8BD00BFF8B5074608460E4609F0E4FA8F
:101A700040F21C34C2F20004C5B200232570E572A6
:101A8000803F3146202204F10C000535A7722272F6
:101A9000E371637209F072FA20462570BDE8F840E0
:101AA000FFF782BF2DE9F0418026A0B040F21C3440
:101AB000C2F20004074632466846124908F01EFD8D
:101AC00000254FF02A0C4FF0860E812369463246DE
:101AD0004FF0870804F10D00E37284F808C084F821
:101AE0000AE0667284F80080E571257308F006FD4F
:101AF000204684F88D50FFF757FF23793B7020B0C4
:101B0000BDE8F08124B1000810B582B0FFF770FF86
:101B1000B0F5104F02D0002002B010BD0DF1070249
:101B200000204F21FFF788FFB0F5104FF3D19DF84B
:101B30000730102BEFD15F2052210DF10702FFF784
:101B40007BFFB0F5104FE6D19DF807300A2BE2D1AC
:101B50000020C4210DF10702FFF76EFFB0F5104F12
:101B6000D9D19DF80730072BD5D100206E210DF17A
:101B70000702FFF761FFB0F5104FCCD19DF8073099
:101B8000D92BC8D100205E210DF10702FFF754FFC9
:101B9000B0F5104FBFD19DF80740002CBBD12046B7
:101BA0006E210DF10702FFF747FFB0F5104FB2D1DC
:101BB0009DF80730D92BAED120466E210DF10702DA
:101BC000FFF73AFFB0F5104FA5D19DF80730D92B9C
:101BD000A1D120466E210DF10702FFF72DFFB0F5D0
:101BE000104F98D19DF80730D92B94D14BF2744106
:101BF000C0F600010220FFF735FFB0F5104F8AD183
:101C00004BF27441C0F600010120FFF72BFFB0F545
:101C1000104F80D10DF10700FFF744FFB0F5104FD2
:101C20007FF479AF9DF80700B0F1230148424841A5
:101C300072E700BF08B540F21C33C2F20003002275
:101C40001A701A715A805A7100F09AFFFFF75CFF00
:101C5000FEE700BF10B540F21C33C2F200030024BF
:101C600082B01C701C715C805C71FFF7C1FE204665
:101C70004F210DF10702FFF7DFFE9DF8070002B0CC
:101C800010BD00BF10B540F21C33C2F200030024A7
:101C900082B01C701C715C805C71FFF7A9FE20464D
:101CA0004F210DF10702FFF7C7FE204602B010BD1D
:101CB00040F21C33C2F200031844C079704700BFE1
:101CC00040F21C3310B5C2F20003002204461A7021
:101CD0001A715A805A71FFF78BFE21460320FFF7D5
:101CE000C1FEB0F5104018BF012010BD40F21C33FA
:101CF00010B5C2F20003002204461A701A715A800D
:101D00005A71FFF775FE21460120FFF7ABFEB0F5D3
:101D1000104018BF012010BD30B540F21C34C2F293
:101D20000004002583B02570257165806571FFF77B
:101D30005FFE2846C4210DF10702FFF77DFEB0F5D6
:101D4000104F0CBF607BFF2003B030BD30B540F2B8
:101D50001C34C2F20004002583B025702571658013
:101D60006571FFF745FE2846C4210DF10702FFF714
:101D700063FEB0F5104F0CBFE07AFF2003B030BD1A
:101D800070B506460D46002402E0AC4215D0013481
:101D90004FF46050C4F20100202105F0FFFB002841
:101DA000F3D0AC4209D04FF46050C4F2010005F00A
:101DB00093FB01233070184670BD0023184670BD98
:101DC00010B584B08DF807004FF460509DF80710EF
:101DD000C4F2010005F07CFB42F2117401E0013C09
:101DE00022D04FF46050C4F20100402105F0D6FB30
:101DF0000028F4D00DF10F000121FFF7C1FF0128E9
:101E000006D09DF807304FF6FF7000B204B010BD49
:101E10009DF80F009DF807204FF6FF73824208BF20
:101E2000184600B204B010BD4FF6FE7000B204B008
:101E300010BD00BF10B54FF44064C4F20104204649
:101E4000102103F015FB2046202103F011FBBDE813
:101E500010404FF46050C4F20100012105F05ABB5C
:101E600010B54FF4406082B010220323C4F2010089
:101E7000302401A9ADF804408DF807208DF8063014
:101E800003F078FA02B010BD10B54FF44064C4F20C
:101E900001042046102103F0EBFA20462021BDE882
:101EA000104003F0E5BA00BF10B54FF44064C4F22F
:101EB00001042046102103F0DDFA20462021BDE870
:101EC000104003F0D7BA00BF10B540F28454C2F2FC
:101ED00000042060236823B1FEF798FE2368002BDE
:101EE000FAD110BD40F28452C2F2000210601368B1
:101EF000002BFCD1704700BF08B50146A8B94FF4CC
:101F00006050C4F2010005F005FB4FF44060C4F2DC
:101F10000100102103F0AEFABDE808404FF4406024
:101F2000C4F20100202103F0A5BABDE8084081E712
:101F30004FF4406008B508210022C4F2010003F00C
:101F40009BFA0020FFF7D8FF4FF46050C4F2010065
:101F500005F078F90820002103F0F6FEBDE80840FE
:101F60004FF48040002103F0EFBE00BF02464FF463
:101F70004060C4F20100082103F07EBA08B540F2C7
:101F80002853C2F200034FF460501978C4F20100E4
:101F900005F09EFA4FF46050C4F20100402105F0B4
:101FA000FDFA0028F6D008BDF0B54FF460548BB0B0
:101FB000C4F20104054605A8164603F05BFEB4F81A
:101FC00018E04BF2A413089805F00F02C0F60003C6
:101FD0005FFA8EFE53F822204FEA4E0EB0FBFEF061
:101FE00002FB00FE2D0903EB85031B6C0C22BEFBDC
:101FF000F3FE2046002301A94FF480574FF480657B
:10200000CDF804E0ADF80A30ADF81030ADF80E2090
:10201000ADF80870ADF80C5005F072F906F10C013E
:102020002046C9B205F062FA0BB0F0BD2DE9F041CF
:102030004FF460558CB00023C4F2010507A88DF859
:10204000033040F2AC7403F015FE2B8B01222846BE
:102050004021C2F200041FFA83F80A9F05F0EEF94E
:10206000A278D30640F1A480E278112A00F0A08083
:1020700040F22856C2F20006FF233370317828461A
:1020800005F026FA4FF46050C4F20100402105F03B
:1020900085FA0028F6D00DF103004FF40041FFF758
:1020A0006FFE012800F087800125112333704FF463
:1020B00060503178C4F2010005F00AFA4FF4605024
:1020C000C4F20100402105F069FA0028F6D00DF1B4
:1020D00003004FF40041FFF753FE012800F0E980B0
:1020E000E3784FF4605033703178C4F2010005F0AA
:1020F000EFF94FF46050C4F20100402105F04EFAB0
:102100000028F6D00DF103004FF40041FFF738FE30
:102110000128E37800F0C68083F0EE0333704FF4BB
:1021200060503178C4F2010005F0D2F94FF46050EC
:10213000C4F20100402105F031FA0028F6D00DF17B
:1021400003004FF40041FFF71BFE012800F0A180BF
:102150000DF103004FF40041FFF712FE012818BFF4
:10216000032500F090800DF103004FF40041FFF7CC
:1021700007FE012818BF05257FD00DF103004FF49D
:102180000041FFF7FDFD012818BF07256ED04FF471
:1021900000410DF10300FFF7F3FD01284FF46050FB
:1021A000C4F201004FF040010CD0002205F046F9C6
:1021B0000CB0BDE8F0819DF80330FF2B3FF474AF05
:1021C000402572E7E3789DF8032083F0EE0340F2A8
:1021D000AC749A42C2F20004E7D1002205F02EF955
:1021E000012DE5D1E1784BF2A41201F00F00C0F609
:1021F00000025FFA88F852F820504FEA4808B7FB0F
:10220000F8F705FB07F7090902EB81024FF460506C
:102210000024156C4FF480734FF4006201A9C4F2DE
:102220000100ADF80420ADF80A30ADF80640ADF875
:10223000084005F0BFF80C234FF46050B7FBF5F5EC
:102240004FF480564FF48062C4F201000DEB03019D
:102250000395ADF81240ADF81840ADF81060ADF838
:102260001420ADF8163005F04BF8A1E7E2789DF8A0
:1022700003309A4218BF062589E79DF80330112BD9
:1022800018BF042579E79DF80330FF2B18BF0225FE
:1022900069E7E3789DF8032083F0EE039A4218BFC4
:1022A000102555E79DF803209A4214BF20251346B8
:1022B00032E79DF80330112B18BF302510E700BF1F
:1022C000F0B5082089B0012103F03EFD4FF48040B5
:1022D000012103F039FD0120014640F2080403F01A
:1022E00033FDC2F200040420012103F0EBF825685D
:1022F000012D18BF04AD6CD04FF46050C4F2010042
:102300000A2105F0FDF84FF46050C4F201000121EC
:1023100005F0ECF84FF4605000244FF400624FF4E5
:10232000807302A9C4F20100ADF80820ADF80E30A8
:10233000ADF80A40ADF80C4005F03CF84FF46050A1
:102340000C2329464FF48062C4F2010042F2CD56BC
:102350004FF48055ADF81A30ADF81820ADF816409E
:10236000ADF81C400496ADF8145004F0C9FF4FF4CA
:102370006050C4F201002821012205F041F84FF419
:1023800060500122C4F20100602105F039F84FF4D9
:102390006050C4F20100012105F024F84FF46050B0
:1023A000C4F20100012105F0C3F84FF46050C4F2FB
:1023B0000100012105F0AEF84FF4406022460821EB
:1023C000C4F2010003F058F82046FFF795FD09B06C
:1023D000F0BD4FF400604FF48072182301A9C4F2DD
:1023E00001000327ADF804208DF807308DF8067042
:1023F00002F0C0FF4FF4406040221C2301A9C4F248
:102400000100ADF804208DF8073002F0B3FF4FF45F
:1024100080702946C0F2300003F054F84FF4007089
:102420002946C0F2300003F04DF84FF44060082315
:10243000102601A9C4F20100ADF804308DF8076040
:102440000DEB060502F096FF4FF44060302329465D
:10245000C4F20100ADF810308DF812708DF81360E1
:1024600002F088FF0023236046E700BF2DE9F04F0C
:10247000037883B080460D461446052B07D8DFE865
:1024800013F0110042000600C80036010C000523BD
:1024900088F8003003B0BDE8F08FFFF749FD03B0C6
:1024A000BDE8F08F4C78002CF4D1FFF709FFFFF75F
:1024B000C1FCCB4B204603F1280103F8010F8B42EE
:1024C0004FF00002F9D140F2AC76C2F2000633467A
:1024D000727003F8022F06F1160103F8012F8B42E8
:1024E000FBD1C04B002003F1140103F8010F8B4214
:1024F0004FF00002F9D1012386F82B2086F82C201A
:1025000088F80030C6E74D78002DC3D140F2285638
:1025100040F28477C2F20006C2F200074FF00109D0
:10252000757098F800308DF80750013B042B00F2CD
:10253000538101A252F823F0DB2500087925000819
:1025400095240008D92700084D2500084FF4406065
:10255000C4F201000821002202F08EFF0020FFF7E4
:10256000CBFC98F80030032B18BF052B0CBF0023C1
:102570000123002BD4D18DE74FF4406040F28474E6
:10258000C4F2010008210122C2F2000402F074FF2B
:102590002746282502E013F0FF0514D00DF10700AF
:1025A0004FF40041FFF7ECFB012805F1FF33F2D1B6
:1025B00071789DF80720013113F0FF053A707170B2
:1025C00007F10107EAD12378002B3FF460AF032322
:1025D00088F8003003B0BDE8F08F00240DF107004B
:1025E0004FF40041FFF7CCFB012801BF72789DF842
:1025F000073001323B5504F1010408BF7270282CEA
:10260000ECD13B78002B40F01C81022388F800308D
:1026100086E74B78002B7FF43DAF40F28474C2F222
:10262000000440F228536178C2F2000340F2AC7615
:10263000C2F2000693F801B0227801F00F0A96F872
:102640002B00B170CFB286F82CA0727001F0F001AF
:1026500086F82DB0042341FA03F2013302F001029F
:102660001044082BC0B2F6D186F82B00002330B1FD
:10267000E2189178F21801338342D170F8D33318FD
:102680003A06054693F802C058BF004640F1B480B0
:10269000DFF85491431EF218D1785FFA8CFC01F0F8
:1026A000F0010422002741FA02F5013205F001058C
:1026B0002F44082AFFB2F6D17FB1334440F2AC7602
:1026C000C2F2000609EB00010333354639445A1BB8
:1026D000A25C03F8012F8B42F9D138441CF0800F23
:1026E000C0B200F08680331893F802C0D2E700220F
:1026F00013468DF806201046E0540133142B4FF09A
:102700000002F9D14FF46050402122756275C4F285
:102710000100012204F092FE2878FFF751FB68784F
:10272000FFF74EFBA878FFF74BFBE878FFF748FB75
:10273000287900285AD1687E002857D14FF460507C
:10274000C4F2010004F0C8FE02AE002306F8013D09
:1027500030464FF40041FFF713FB012800F09A8048
:10276000267D002E7FF496AE2F7997B96B7E0DF102
:10277000060633B330464FF40041FFF701FB012852
:1027800004BF9DF80630E3556B7E01379F42F1D3BD
:1027900017E0AB195879FFF713FB2B7901369E42EE
:1027A000F7D34FF46050C4F2010004F095FE4FF4EB
:1027B0006050C4F201004021002204F03FFE0DF100
:1027C00006060A2530464FF40041FFF7D9FA0128E2
:1027D0004ED0013DF6D14EE088F80090A0E600BF53
:1027E00083070020C2070020AE070020FFF7E8FAA9
:1027F000A4E7054686F82B00BAF1000F0ED04FF67D
:10280000EC71354BCFF6FF71891B03EB0A071A18E1
:102810000A44A25C03F8012FBB42F8D1AB1C53441D
:102820009B450AD0E15C06EB0A0201230AF1010A8A
:10283000D17586F82CA086F82E30042388F8003055
:1028400028E603234FF4406088F80030C4F201000A
:102850000821012202F010FE98F80030032B18BF67
:10286000052B0CBF00230123002B7FF459AE11E68A
:102870009DF8063023750A2530464FF40041FFF7D6
:102880007FFA012802D0013DF6D103E69DF806301B
:102890006375FFE59DF8073003F0F002902A18BF3A
:1028A000602A7FF4F7AD6A78D143594011F0FE0FEA
:1028B00003D05A4012F0FE0F01D12370EAE52375D0
:1028C00030464FF40041FFF75BFA01287FF4E2AD98
:1028D0009DF807306375DDE5C207002030B540F292
:1028E000AC74002389B0C2F2000423708DF8033069
:1028F0008DF804308DF805308DF806308DF80730EE
:102900008DF8083040F2DC72C2F200020DF10300D3
:1029100001A9FFF7ABFD9DF80330052B09D0042B6F
:10292000F0D1012528462570FEF782F9284609B026
:1029300030BDFFF7FDFA002009B030BD04292DE9B4
:10294000F8430E4604461F4646D00020FDF71AFD08
:102950008EB100231D4601E0AE420CD9E05CFFF7CA
:102960002FFA013501302B46F6D00120FDF70AFD84
:102970002120BDE8F8834FF46050C4F2010004F058
:10298000ABFD0022A52040F20511A05401328A427D
:10299000FBD14FF000084646254640F205199EB38C
:1029A00028464FF40041FFF7EBF9012805F1010536
:1029B00008D1B8F1030F08BF012E06F1010612D0AD
:1029C0004E45ECD13E600120FDF7DCFC3B688BB945
:1029D00002203860BDE8F8830378FF2B0DD000207B
:1029E000FDF7D0FCB5E702233B60FDF7CBFC0320ED
:1029F000BDE8F8830020BDE8F8834378112BEED1C1
:102A000039600020BDE8F8830021C1F288312846F2
:102A1000FFF7B6F90128D5D162782B78D143594018
:102A200011F0FE0F09D05A4012F0FE0F05D003F04E
:102A3000F003602B08BF4FF0030801350126AFE714
:102A400040F2AC73C2F2000300221A70704700BF5C
:102A5000F0B540F2AC73C2F2000383B000241C70E6
:102A600003F012F84FF4803003F02EF803F04AF828
:102A700040F20803C2F2000318711D79EDB2012D76
:102A800049D00120014603F05FF900214FF00060BA
:102A900000F0D0FE4FF4C06000F086FE002401A8D4
:102AA000172301258DF804308DF807508DF8054067
:102AB0008DF8064000F082FE01A825238DF8055010
:102AC0008DF804304FF67F4500F078FE4EF210038B
:102AD0004FF46D42CEF20003C0F20A05CEF20002BE
:102AE000F02707264FF440605D6001A982F823704B
:102AF000C4F201009C6010221E60302503238DF873
:102B000007208DF80630ADF8045002F033FCFFF7D3
:102B1000BBF903B0F0BD102001F0CAFE022001F0A5
:102B2000B1FE204603F042F8204603F053F84FF47C
:102B3000806003F045F84FF480304FF4801103F0CB
:102B400011F8284603F01AF8392003F047F9002855
:102B5000FAD0022003F018F803F020F80828FBD17F
:102B60008FE700BF08B540F2AC73C2F20003002249
:102B70001A70FFF7B3FE10B1FFF758FA012008BD35
:102B800038B540F28454FFF763FFC2F20004012518
:102B9000FFF7A4FE38B925602368002BFCD1FFF7AE
:102BA0009DFE0028F7D0FFF741FA28232360236811
:102BB000002BFCD10120BDE83840FDF7E3BB00BF8E
:102BC00040F29853C2F2000304221A60704700BF1B
:102BD000704700BF10B540F68813C2F200031B68AF
:102BE00006281A7802F07F0203D0212A10D0022092
:102BF00010BD012AFBD15A79002AF8D19A78222AED
:102C00003AD0212AF3D142F64572C0F6000221E003
:102C100003281BD0092809D00128E8D19A78032A73
:102C2000E5D142F6DD42C0F6000213E099780229B0
:102C300017D00329DBD140F24854C2F2000442F617
:102C40002D5220706170C0F6000203E042F6C142CE
:102C5000C0F60002002420469A615C82904720461C
:102C600010BD40F24854C2F2000442F649522070AE
:102C70006170C0F60002EDE742F63972C0F600025C
:102C8000E8E700BF40F68813C2F200031B681A7819
:102C900002F07F02212A01D0022070470B28FBD1CD
:102CA000DA7840F63403C2F200031A60002070475D
:102CB00009B1022070470128FBD80846704700BFC1
:102CC00020B140F63400C2F20000704740F688138D
:102CD000C2F200031B6801221A82704770B4D8B197
:102CE00040F69406C2F2000640F6D4043546C2F21D
:102CF00000040FCC0FC50FCC0FC50FCC0FC594E847
:102D00000F0040F2D424C2F20004247885E80F00BA
:102D10003046347070BC704740F68813C2F200032E
:102D20001B6840221A8270BC704700BF20B140F27D
:102D3000F470C2F20000704740F68813C2F200033C
:102D40001B6840221A82704720B140F2F470C2F230
:102D50000000704740F68813C2F200031B6801228E
:102D60001A82704738B5FDF79DFB40F68813C2F212
:102D700000031B6800249C7207F06EFA45F6444578
:102D800040F68C1245F6404140F298534FF43F40D4
:102D9000C4F20005C2F20002C4F20001C2F2000354
:102DA0002C60108008601C6038BD00BF40F68011A8
:102DB00040F688124BF2F023C2F20001C2F2000288
:102DC000C0F600031268DB79096870B500248C72C4
:102DD00020465372D47205F03DFB20464FF400713B
:102DE00005F05AFB40F218152046202105F06AFB39
:102DF000C2F200052046182105F0BCFC2B682046D5
:102E000093F82C1005F010FD5821204605F0A0FC89
:102E1000204605F0DDFB204605F0B2FB01204FF413
:102E2000C06105F039FB0120982105F091FC0120DB
:102E3000202105F047FB2146012005F057FB2146E4
:102E4000022005F029FB0220D82105F093FC2B6815
:102E5000022093F82C1005F0E7FC02204FF44051BB
:102E600005F044FB02204FF48C7105F071FC2B68D7
:102E7000022093F82C1005F0B1FC0220302105F05F
:102E800021FB04204FF4C06105F006FB04204FF441
:102E9000CE7105F05DFC2146042005F027FB0420DF
:102EA000202105F00FFB2B68204693F82C1005F02D
:102EB000BBFC204605F064FB204605F08BF840F68D
:102EC000D65040F2985140F2000240F6B45345F219
:102ED0005535C2F200000126C2F20001C2F2000222
:102EE000C2F20003C4F2423504700E6016601D6029
:102EF00070BD00BF40F21C13C2F20003196804F059
:102F0000CBBD00BF40F22013C2F20003196804F0E9
:102F1000C3BD00BF40F68813C2F200031B68DA7815
:102F2000052A07D840F22413C2F2000353F82210F6
:102F300004F0B2BD0020704740F21001C2F200015F
:102F400004F0AABD014904F0A7BD00BF180000208D
:102F5000F0B440F24854C2F200042378092B01D0A7
:102F6000F0BC704765780023022D237022D0032D1A
:102F700003D000236370F0BC704740F2D42CC2F23F
:102F8000000C9CF80030002BF3D140F2F47740F6AF
:102F90001416C2F20007C2F200060FCF0FC60FCF01
:102FA0000FC60FCF0FC697E80F008CF8005086E8C9
:102FB0000F00DEE740F2F473C2F200031D78A6783A
:102FC0006E40F10713D5D4E9022340F2D821C2F2B2
:102FD0000001D1E90001821A61EB0303002B08BF55
:102FE000B2F5FA7FC4E902013CBF01232374B207A2
:102FF00018D5D4E9060140F2D823C2F20003D3E980
:103000000023101A63EB0101002908BFB0F5FA7F15
:1030100040F24857C4E90623C2F200073CBF012131
:1030200087F82010730718D5D4E90A0140F2D82395
:10303000C2F20003D3E90023101A63EB0101002957
:1030400008BFB0F5FA7F40F24856C4E90A23C2F23D
:1030500000063CBF012186F830100023A570637084
:1030600089E700BF08B540F68813C2F200031B6869
:103070009B7ABBB140F29853C2F2000305220120B3
:103080001A6005F03DFB022005F028FB022005F048
:1030900037FB042005F034FB40F6D653C2F20003A0
:1030A00000221A7008BD00BF08B10548704740F6FD
:1030B0008813C2F200031B6801221A82704700BF06
:1030C0007C05002040F68813C2F200031A6840F61F
:1030D0003403D278C2F200031A600020704700BFA8
:1030E00040F29853C2F2000304221A60704700BFF6
:1030F000704700BF704700BF09B102207047002829
:10310000FBD1704720B140F28050C2F200007047FE
:1031100040F68813C2F200031B6801221A8270472E
:1031200038B5FDF7BFF940F68813C2F200031B68FB
:1031300000249C7207F090F845F6444540F68C1246
:1031400045F6404140F298534FF43F40C4F2000529
:10315000C2F20002C4F20001C2F200032C6010802F
:1031600008601C6038BD00BF38B540F6801140F6DD
:1031700088124BF2F033C2F20001C2F20002C0F634
:1031800000031268DB79096800248C7220465372B0
:1031900005F060F920464FF4007105F07DF940F22A
:1031A00018152046202105F08DF9C2F200052046B1
:1031B000182105F0DFFA2B68204693F82C1005F053
:1031C00033FB5821204605F0C3FA204605F000FAEB
:1031D000204605F0D5F92146012005F05DF90120D2
:1031E000982105F0B5FA0120202105F06BF9214660
:1031F000012005F07BF92146022005F04DF902205F
:10320000D82105F0B7FA2B68022093F82C1005F0AE
:103210000BFB02204FF4405105F068F921460220D3
:1032200005F050F92B68204693F82C1005F0FCFAB5
:10323000204605F0A5F9204604F0CCFE40F6D65114
:1032400040F2985240F6B45345F25530C2F20001B4
:10325000C2F200020125C2F20003C4F242300C7037
:103260001560186038BD00BF40F6B453C2F20003C9
:103270001A6845F25533C4F242339A4202D0022012
:1032800006F0CABF704700BF40F21813C2F2000335
:10329000596804F001BC00BF40F21813C2F20003E9
:1032A000996804F0F9BB00BF40F68813C2F200032E
:1032B0001B68DA78052A08D840F21813C2F2000316
:1032C00003EB8203D96804F0E7BB0020704700BF1E
:1032D00008B540F68813C2F200031B689B7A8BB1D5
:1032E00040F29853C2F20003052201201A6005F053
:1032F00007FA022005F0F2F940F6D653C2F20003B5
:1033000000221A7008BD00BF10B540F68813C2F243
:1033100000031B681A7802F07F02212A01D00220E4
:1033200010BDFF28FBD15A88002AF8D15C68002C18
:10333000F5D1012005F0E4F9022005F0CFF940F6BF
:10334000D653C2F2000340F6B45245F25531C2F2F0
:103350000002C4F242311C701160204610BD00BF53
:1033600040F68813C2F200031B681A7802F07F024D
:10337000212A01D002207047FE28FBD1588800285E
:10338000F8D15A68B2F5803FF4D143F20512C0F685
:103390000002012158829A61198270474EF210038F
:1033A000CEF20003586070474EF210030128CEF2AF
:1033B000000309D0023009BF1A68002222F001027E
:1033C0001A6018BF9A6070471A6842F001021A60CA
:1033D000704700BF4EF21003CEF200031A6818B90E
:1033E00022F002021A60704742F002021A6070472F
:1033F0004EF21003CEF2000398687047C308022B08
:103400004EF21003CEF200030CBF1B68DB6823FAF8
:1034100000F000F001007047704700BFFEE700BFFA
:10342000FEE700BFFEE700BFFEE700BF704700BF3A
:10343000704700BF704700BF40F28453C2F20003E0
:103440001A6812B11A68013A1A6040F2D011C2F239
:1034500000010B686BB940F2A050C2F20000D0E945
:103460000023013243F10003C0E9002364230B6011
:1034700070470B68013B0B60704700BF04F044BF0E
:1034800006F0B6BF704700BF4FF08042138A70B598
:10349000DB0731D5138A40F2E02523F001031B043A
:1034A0001B0C40F2D8241382C2F20004C2F20005C1
:1034B000D4E900232978013243F10003C4E9002351
:1034C000D1B140F2E826C2F2000611F0010FD6E9B0
:1034D000000112D110F5FA7041F100018B4208BFD2
:1034E000824209D30120FCF759FFD4E9002329784F
:1034F000C6E900234B1E2B7070BD10F5FA6041F138
:1035000000018B4208BF824228BF0020EBD270BD71
:10351000EFF30980704700BF80F30988704700BF50
:10352000EFF30880704700BF80F30888704700BF42
:10353000EFF31280704700BF80F31188704700BF1F
:10354000EFF31080704700BF80F31088704700BF12
:10355000EFF31380704700BF80F31388704700BFFC
:1035600000BA704740BA7047C0BA704790FAA0F0EE
:10357000704700BFD0E84F0FC0B27047D0E85F0F70
:1035800080B2704750E8000F704700BFC1E8430F9A
:1035900018467047C1E8530F1846704741E80000CD
:1035A000704700BFEFF31480704700BF80F31488AA
:1035B000704700BF4FF48053C4F202031968002221
:1035C00041F0010119605968CFF6FF020A405A60C4
:1035D0001968002221F0847121F480311960196882
:1035E00082B021F4802119605968184621F4FE0147
:1035F00059609A60009201921A6842F480321A600F
:1036000003E0009BB3F5A06F09D0036803F4003317
:103610000193009B01330093019B002BF1D04FF4E9
:103620008053C4F202031B6813F4003318BF012354
:103630000193019B012B00D0FEE74FF40052C4F22E
:10364000020211684FF4805341F0100111601168BB
:10365000C4F2020321F0030111601068194640F022
:10366000020010605A685A605A685A605A6842F4F8
:1036700080625A605A6822F47C125A605A6842F496
:1036800088125A601A6842F080721A600A684FF411
:1036900080539201C4F20203F8D55A68194622F009
:1036A00003025A605A6842F002025A604B6803F003
:1036B0000C03082BFAD102B0704700BFFEE700BF31
:1036C00040F2000140F2CC23C2F20001C2F200033A
:1036D000994210B40ED2CC431C4424F003044BF2A4
:1036E0007C400434C0F600000023C258CA500433A2
:1036F000A342FAD140F2D02340F63462C2F2000372
:10370000C2F2000293420AD2D943114421F00301CC
:1037100019440022043B43F8042F8B42FBD15DF88F
:10372000044B7047704700BF684620F007018D4684
:1037300019B5FFF7F7FF1B4880F3088840F2000136
:1037400040F2CC23C2F20001C2F2000399420ED231
:10375000CC431C4424F003044BF27C400434C0F6F8
:1037600000000023C258CA500433A342FAD140F2E9
:10377000D02340F63462C2F20003C2F20002934248
:103780000AD2D943114421F0030119440022043B19
:1037900043F8042F8B42FBD107F01CFABDE8194017
:1037A000854670470050002040F0BF604FF46D43E5
:1037B00040F40030CEF20003D8607047C37830B4D4
:1037C00073B90378012103F01F02914030BC5A09FC
:1037D0004FF461432032CEF2000343F822107047C9
:1037E0004FF46D43CEF20003DB684478DB43C3F350
:1037F00002230F22C3F1040122FA03F38C408578DF
:10380000017803EA0502224301F160431201D2B2BA
:1038100003F5614383F800230278012102F01F03BE
:10382000994030BC4FF461435209CEF2000343F893
:103830002210704721F0604121F07F014FF46D4369
:103840000843CEF200039860704700BF4FF46D4309
:10385000CEF200031A6919B922EA00001861704714
:1038600010431861704700BF4EF21003CEF2000300
:103870001A6804280CBF42F0040222F004021A6005
:10388000704700BF08B54FF42053C4F201039842BB
:1038900024D04FF47053C4F20103984212D04FF475
:1038A0001053C4F20103984200D008BD4FF40070D9
:1038B000012102F065FABDE808404FF400700021D4
:1038C00002F05EBA4FF40040012102F059FABDE85F
:1038D00008404FF40040002102F052BA4FF48060DB
:1038E000012102F04DFABDE808404FF4806000214C
:1038F00002F046BA436830B423F470240B680A79A6
:1039000024F48074234343EA0223436085688C686F
:10391000CA684FF2FD73CFF6F17322432B404D7905
:10392000134343EA450383600B7CC26A013BDBB26D
:1039300022F4700242EA0353C36230BC704700BFF6
:103940000023012202740360037143718360C3602A
:10395000704700BF836819B923F001038360704783
:1039600043F0010383607047836819B923F48073BF
:103970008360704743F4807383607047C9B24368C3
:103980001AB923EA01014160704719434160704749
:10399000836843F008038360704700BF8068C0F30A
:1039A000C0007047836843F004038360704700BF22
:1039B0008068C0F380007047836819B923F4A003BE
:1039C0008360704743F4A003836070478068C0F34E
:1039D000805070474368013923F4604343EA413320
:1039E00043607047436819B923F40063436070472C
:1039F00043F4006343607047092970B41FD9A1F1F3
:103A00000A0404EB44040726A64003FA04F4C5683C
:103A1000062A25EA060343EA0403C3601DD90C2ADB
:103A200029D970BC0D3A02EB82021F23934001FAA0
:103A300002F2C16A21EA03031A43C262704701EB32
:103A400041040726A64003FA04F40569062A25EA7C
:103A5000060343EA04030361E1D870BC013A02EBB8
:103A600082021F23934001FA02F2416B21EA030311
:103A70001A4342637047073A02EB82021F239340C6
:103A800070BC01FA02F2016B21EA03031A430263DC
:103A9000704700BF836819B923F4801383607047AF
:103AA00043F4801383607047C06C80B2704700BFDE
:103AB00042F24C43C4F2010318687047436819B9D5
:103AC00023F480634360704743F48063436070472E
:103AD000436819B923F480534360704743F480531B
:103AE00043607047836823F4E04319438160704763
:103AF000836819B923F400438360704743F400439B
:103B000083607047836819B923F402138360704798
:103B100043F40213836070478068C0F340507047DD
:103B2000092970B41BD801EB41040726A64003FA0B
:103B300004F4056925EA060323430361836B02321B
:103B4000C3F30154121BD2B202EB82021F24944031
:103B5000914023EA04030B43836370BC7047A1F1D7
:103B60000A0404EB44040726A64003FA04F4C568DB
:103B700025EA06032343C360E0E700BF836B0139F6
:103B800023F4401343EA0153836370474250704764
:103B90002831405880B27047436823F4400323F42F
:103BA000007319434160704741628262704700BFF1
:103BB000436823F01F031943416070474FF41053CB
:103BC000C4F201039A6818B922F400029A6070479F
:103BD00042F400029A607047036819420CBF00204B
:103BE00001207047C9430160704700BF4368006807
:103BF00010EA112004D0C9B219420CBF00200120E4
:103C0000704700BF6FEA11210160704708B50120BD
:103C100002F0D2F8BDE80840002002F0CDB800BFA5
:103C200048F20463C4F20D23186070474FF4064352
:103C3000C4F20D231860704748F28863C4F20D2364
:103C4000186070474FF4D842C4F20002938D23F4F9
:103C500060731B041B0C1843908570474FF4D842C7
:103C6000C4F20002938D23F07F031B041B0C184346
:103C70009085704700F1804000F5D8400180704782
:103C800000F1804000F5D840008880B2704700BF46
:103C900048F2A063C4F20D231868C0B2704700BF99
:103CA0004FF4D843C4F200039A8E92B242F001025C
:103CB0009A86704748F2A463C4F20D231868C0B214
:103CC000704700BF4FF4D843C4F200039A8E92B2FB
:103CD00042F002029A86704708B54FF4C843C4F216
:103CE0000003984200D008BD4FF00070012102F09F
:103CF00055F8BDE808404FF00070002102F04EB8C2
:103D0000036830B423F00203036002684FF6FF73C8
:103D100042F00102026001E0013B02D04268D40798
:103D2000FAD5436813F0010308BF184655D00B7845
:103D3000012B03680CBF43F0800323F08003036072
:103D40004B78012B03680CBF43F0400323F0400382
:103D500003608B78012B03680CBF43F0200323F032
:103D600020030360CB78012B03680CBF43F01003E2
:103D700023F0100303600B79012B03680CBF43F0A1
:103D8000080323F0080303604B79012B03680CBF81
:103D900043F0040323F0040303608B79CA790D7A9E
:103DA0009B074C7A43EA02624B8942EA054242EAA7
:103DB0000452013B1343C36102684FF6FF7322F0C4
:103DC0000102026001E0013B02D04268D207FAD44E
:103DD000406800F0010080F0010030BC704700BF77
:103DE0000378012199404FF4C843C4F2000370B432
:103DF000D3F80042CA4344F00104C3F80042D3F8A8
:103E00001C421440C3F81C428478CCB9D3F80C424D
:103E100046891440C3F80C420478C588483445EA02
:103E2000064543F8345006780589848846F2406395
:103E3000F600C4F2000344EA054433445C6084782D
:103E4000012C47D0437863BB4FF4C843C4F200034E
:103E5000D3F804421440C3F8044283896BBB4FF487
:103E6000C843C4F20003D3F814422240C3F814221A
:103E7000837B70BC012B01BF4FF4C843C4F2000325
:103E8000D3F81C22114308BFC3F81C124FF4C843D7
:103E9000C4F20003D3F8002222F00102C3F800228A
:103EA00070474FF4C843C4F20003D3F804420C43F4
:103EB000C3F804428389002BD1D0012B01BF4FF4FA
:103EC000C843C4F20003D3F814220A4308BFC3F85E
:103ED0001422CDE74FF4C843C4F20003D3F80C42D8
:103EE00086880C43C3F80C420478C588483445EAF8
:103EF000064543F8345006780589448946F2406304
:103F0000F600C4F20003334444EA05445C6099E7D8
:103F1000002310B402210324012204724172428161
:103F2000037043708370C370037143718371C371F5
:103F30005DF8044B704700BF43691AB923EA0101D9
:103F40004161704719434161704700BF8368F0B415
:103F50005F01024605D483681E0155D5012318462A
:103F600001E0002318461C011319D3F8805105F015
:103F70000105C3F880510D7A002D3BD04F68D3F86E
:103F8000806145EAC7054F7A35433D43C3F8805108
:103F90008D7A224405F00F048C72D3F8845102F517
:103FA000C47425F00F05C3F884518E7AD3F8845178
:103FB0003543C3F884514D7B8E7BCF7A2D0445EA7F
:103FC00006650E7B3D4345EA0625C2F888514A7CCA
:103FD0008E7CCD7B1204097C42EA06622A4342EAC7
:103FE00001226260D3F8802142F00102C3F88021EF
:103FF000F0BC70470D684F7AD3F8806147EA4555A9
:104000003543C3F88051C3E78368DD0058BF0420FF
:10401000EED502231846A6E701292ED01BD302298C
:1040200006D04BF238430022C0F60003985C70477C
:104030008168826801F480318368890B02F4003260
:1040400041EA1242C3F300731A434BF23843C0F6FD
:104050000003985C704781688268836801F0010101
:1040600002F0020242EA8102C3F380631A434BF278
:104070003843C0F60003985C70478168826801F499
:1040800080718368890902F4007241EA1222C3F345
:10409000C0631A434BF23843C0F60003985C704784
:1040A00001290DD007D3022904D1836843F400030A
:1040B000836070477047836843F080038360704774
:1040C000836843F400438360704700BF202309B135
:1040D00003617047C360704731B101290ABF0069AD
:1040E000002000F003007047C06800F00300704734
:1040F00070B40C010319D3F8B05105F00405EDB20A
:104100001572ADBBD3F8B0516D0D1560D3F8B05139
:10411000044405F002055572D3F8B46106F00F06A9
:104120009672D3F8B4311B0AD374D4F8B831D37271
:10413000D4F8B8311B0A1373D4F8B8311B0C53737D
:10414000D4F8B8311B0E9373D4F8BC31D373D4F8C0
:10415000BC311B0A1374D4F8BC311B0C5374D4F853
:10416000BC311B0E9374202339B1036170BC7047BE
:10417000D3F8B051ED085560C8E7C36070BC704714
:10418000036819B923F480330360704743F4803324
:1041900003607047036823F0030343F002030360E6
:1041A000406800F00300B0F1020CDCF1000050EBBD
:1041B0000C007047036823F002030360436899070B
:1041C00007D54FF6FF7301E0013B02D0426892072A
:1041D000FAD4406880F00200C0F34000704700BF8E
:1041E000836919420CBF002001207047836923EACC
:1041F00001018161704700BF202937D00ED9B1F588
:10420000007F1ED025D9B1F5803F1ED0B1F5003F0B
:1042100034D0B1F5806F39D000207047062939D0ED
:1042200007D907291ED00829F6D1C068C0F30010AD
:104230007047042926D00529EED1806800F00100DE
:1042400070478069C0F3400070474068C0F3C00009
:10425000704740290ED0B1F5807FDDD1806900F034
:10426000010070478068C0F3004070470069C0F3E8
:10427000C00070470069C0F3001070474068C0F389
:1042800000107047C068C0F3C00070478069C0F379
:10429000800070478068C0F300207047202935D027
:1042A0000DD9B1F5007F1BD022D9B1F5803F1CD0CC
:1042B000B1F5003F3CD0B1F5806F34D0704706298E
:1042C0002DD006D907291DD0082936D11023C36067
:1042D0007047042920D005292DD101238360704720
:1042E000836923F0020383617047082343607047AA
:1042F00040290ED0B1F5807F1ED1836923F00103E0
:10430000836170474FF480338360704708230361F3
:1043100070471023036170470823C36070474FF450
:10432000807383607047836923F00403836170475F
:1043300010234360C2E77047704770474FF4405303
:10434000C4F2020301229A60704700BF4FF4405349
:10435000C4F2020318601868704700BF51B14FF4EF
:10436000405200EB8101C4F2020250F8043B884243
:104370001360FAD14FF44053C4F202031868704737
:104380004FF44053C4F20203186870474FF440538F
:10439000C4F20203187170474FF44053C4F2020391
:1043A0001879704708B54FF00050012101F0F6FC74
:1043B000BDE808404FF00050002101F0EFBC00BF05
:1043C0004A680B6830B48C681343C968234340F6CD
:1043D000FE751943854001FA00F04FF4E843C4F23A
:1043E00000031A6822EA05010843186030BC7047D0
:1043F0000023036043608360C3607047012303FAB6
:1044000000F04FF4E843C4F200031A6819B922EA35
:104410000000186070471043186070474FF48053D5
:1044200003FA00F04FF4E843C4F200031A6819B924
:1044300022EA00001860704710431860704700BF00
:104440000123000903FA00F04FF4E843C4F200032B
:104450005A6819B922EA0000586070471043586042
:10446000704700BF4FF4E843C4F200035A6818B91C
:1044700022F003025A60704742F003025A6070470C
:104480004FF4E8438140C4F2000322B91A6822EADB
:104490000101196070471A6811431960704700BF25
:1044A00047F20843C4F20003C150704747F2144377
:1044B000C4F20003C1507047082847F220430CBFE4
:1044C00042EA012142EA0141C4F20003C1507047AF
:1044D00047F22C43C4F200038008C05880B27047F2
:1044E0004FF40053CEF204031868000C704700BF6D
:1044F0004FF40053CEF204031868C0F30B0070476A
:104500004FF40053CEF204035A6819B922EA0000AE
:104510005860704710435860704700BF01686C22B4
:10452000C4F20202002321F0010190420160036005
:1045300043608360C36073D01AD940F21C43C4F255
:10454000020398423ED04FD940F24443C4F20203E2
:10455000984240D04FF48B63C4F20203984200F0BB
:1045600088804FF48663C4F20203984278D0704783
:104570003023C4F2020398426AD011D94423C4F212
:104580000203984244D05823C4F2020398427BD1DC
:104590000023C4F202035A6842F470225A60704742
:1045A0000823C4F2020398424AD01C23C4F2020337
:1045B000984267D10023C4F202035A6842F0F00225
:1045C0005A6070474FF48063C4F202035A6842F0A5
:1045D000F0025A6070474FF48063C4F202035A68D5
:1045E00042F470425A6070478023C4F2020398423A
:1045F0001ED04FF48163C4F20203984243D14FF4BA
:104600008063C4F202035A6842F00F025A60704796
:104610000023C4F202035A6842F470425A607047A1
:104620000023C4F202035A6842F470025A607047D1
:104630000023C4F202035A6842F070625A60704765
:104640000023C4F202035A6842F00F025A60704716
:104650000023C4F202035A6842F470625A60704741
:104660004FF48063C4F202035A6842F470625A60E5
:1046700070474FF48063C4F202035A6842F4702218
:104680005A6074E770477047704700BF8A68F0B49B
:104690000C6A0B6914434A691C438B69CE69224337
:1046A00007684D6A13438C6A1E43354327F4FF4C59
:1046B000CB680F684A682C432CF0700C44EA0C0459
:1046C000046043608760C260F0BC704700230360F1
:1046D00043608360C360036143618361C3610362BC
:1046E00043628362704700BF036819B923F0010376
:1046F0000360704743F001030360704703681AB911
:1047000023EA01010160704719430160704700BF4F
:10471000406880B2704700BFC3004CBF4FF4806355
:104720000023C4F202031B6803420CBF00200120D7
:10473000704700BFC2004CBF4FF480630023C4F237
:1047400002035860704700BFC1004CBF4FF4806344
:104750000023C4F202031B6803420CBF00200120A7
:10476000704700BFC3004CBF4FF480630023C4F206
:1047700002035860704700BF4FF480634FF6FF712B
:10478000C4F201030022C0F207011A605A609A6065
:10479000DA605961704700BF837930B443B34FF496
:1047A0008063C4F2010301681A68CC4322401A6096
:1047B0005D6802792C4002F180425C6002F5823231
:1047C000156844792943116002689868D14308400C
:1047D0009860D868102C01EA0001D96014D004F167
:1047E000804404F5823423681A43226030BC704749
:1047F0000379016803F1804303F582331A6830BC02
:1048000022EA01021A607047996830BC114399602E
:10481000D9680A43DA60704700230C2242710360B2
:1048200003718371704700BF4FF48063C4F20103CA
:104830001A691043186170474FF48063C4F2010392
:104840005B6918420CBF0020012070474FF4806361
:10485000C4F20103586170474FF48063C4F201034E
:104860001A685B69034004D010420CBF002001208D
:1048700070471846704700BF4FF48063C4F20103CD
:10488000586170474FF40053C4F202031A6802F0F3
:1048900038021043186070474FF40053C4F202030B
:1048A0001A6822F008021A601A68104318607047EC
:1048B0004FF40053C4F202031A6822F010021A6087
:1048C0001A681043186070474FF4005340F22311E8
:1048D00048F6AB12C4F20203C4F26751CCF6EF52B1
:1048E00059605A60704700BF4FF40053C4F202038E
:1048F0001A6942F080021A61704700BF4FF40053FA
:10490000C4F20203D8698008704700BF4FF4005317
:10491000C4F20203186A70474FF40053C4F2020352
:10492000D869C0F3400070474FF40053C4F202034B
:104930001868C0F3401070474FF40053C4F20203EC
:104940001A6919B922EA000018617047104318610A
:10495000704700BF4FF400530128C4F2020305D092
:10496000DB6818420CBF002001207047D86900F0B6
:10497000010070474FF40053C4F20203D86070473F
:104980004FF40053C4F20203DA68D1070BD4DA689B
:10499000520701D502207047DB6813F0100F0CBFDF
:1049A0000420032070470120704700BF70B582B01B
:1049B0000446FFF7E5FF451E6B426B41002C08BF24
:1049C0000023C3B10026FF2501960195019B2BB161
:1049D000019B013B0193019B002BF9D1FFF7D0FF15
:1049E000013C0CBF00230123012814BF002303F066
:1049F0000103002BE8D1002C08BF052002B070BDD8
:104A000038B5054640F6FF70FFF7D0FF042800D008
:104A100038BD4FF40054C4F20204236940F6FF701D
:104A200043F0020323616561236943F0400323617E
:104A3000FFF7BCFF01281FBF226941F6FD73134039
:104A4000236138BD10B540F6FF70FFF7AFFF0428B3
:104A500000D010BD4FF40054C4F20204236940F6A4
:104A6000FF7043F004032361236943F04003236193
:104A7000FFF79CFF01281FBF226941F6FB7313401B
:104A8000236110BD10B540F6FF70FFF78FFF0428BB
:104A900000D010BD4FF4005440F2231248F6AB137F
:104AA000C4F20204C4F26752CCF6EF53A260A360D2
:104AB000236940F6FF7043F020032361236943F02C
:104AC00040032361FFF772FF042807D00128E0D0DC
:104AD000226941F6EF731340236110BD226941F64C
:104AE000DF731340236121694FF4784341F01001D3
:104AF000C1F6FF73A52221610F201A80FFF756FF30
:104B00000128E5D1C5E700BF70B504460F200D466A
:104B1000FFF74CFF042800D070BD4FF40056C4F2DC
:104B200002063269ABB242F0010232610F202380EB
:104B3000FFF73CFF042807D00128EDD0326941F689
:104B4000FE731340336170BD2D0C65800F20FFF79D
:104B50002DFF0128F2D1DFE770B504460F200D4686
:104B6000FFF724FF042800D070BD4FF40056C4F2B4
:104B7000020633690F2043F0010333612580FFF7FC
:104B800015FF01281FBF326941F6FE7313403361E0
:104B900070BD00BF70B505460F200E46FFF706FF3B
:104BA000042800D070BD4FF4005440F2231248F6A0
:104BB000AB13C4F20204C4F26752CCF6EF53A26006
:104BC000A36023690F2043F0100323612E80FFF7B9
:104BD000EDFE01281FBF226941F6EF7313402361E8
:104BE00070BD00BF10B504460F20FFF7DFFE04289C
:104BF00000D010BD4FF4005340F2231148F6AB1221
:104C0000C4F20203C4F26751CCF6EF5299609A6085
:104C10001969E443E2B241F01001FF2A196108BFAB
:104C200001230AD04FF47843C1F6FF731A810F2095
:104C3000FFF7BCFE021F53425341C4F30722FF2A71
:104C40000CBF002103F0010191BBC4F30742FF2A0E
:104C50000CBF002103F00101D9B9240EFF2C0CBFB9
:104C6000002303F001035BB90128C2D04FF40053C5
:104C7000C4F20203196941F6EF720A401A6110BDCD
:104C80004FF47843C1F6FF73DC810F20FFF78EFEEF
:104C9000EAE74FF47843C1F6FF739A810F20FFF7DC
:104CA00085FEB0F1040EDEF1000353EB0E03D4E7F2
:104CB0004FF47843C1F6FF735A810F20FFF776FE59
:104CC000B0F1040CDCF1000353EB0C03BDE700BFB3
:104CD00038B5054640F6FF70FFF768FE042800D09F
:104CE00038BD4FF4005440F2231248F6AB13C4F21F
:104CF0000204C4F26752CCF6EF53A260A3602369AA
:104D000040F6FF7043F020032361236943F0400322
:104D10002361FFF74BFE042807D001281FBF22693B
:104D200041F6DF731340236138BD226941F6DF731A
:104D300013402361236943F0100323614FF4784348
:104D4000C1F6FF738DB9A5221A8040F6FF70FFF7F8
:104D50002DFE0128C4D04FF40053C4F20203196998
:104D600041F6EF720A401A6138BD00221A80ECE762
:104D7000F8B54FF4005440F2231548F6AB13C4F2D3
:104D80000204C4F26755CCF6EF53A5600646A36053
:104D90000F200D461746FFF709FE042800D0F8BD86
:104DA000226947F0F8073D434FF47843C1F6FF739B
:104DB00042F010022E4322610F205E80FFF7F6FDC5
:104DC00001281FBF226941F6EF7313402361F8BD2C
:104DD00010B44FF0204398B143F2D20243F82020A0
:104DE0004FF48273441C6FF07042CAF200034FF01C
:104DF000204141F8242043F820205DF8044B7047FF
:104E000043F2DB021A60EBE710280CBF602380231B
:104E1000CAF200034FF0FC3218204021186059609C
:104E20009A60DA60704700BFA023CAF200034FF017
:104E3000FC3218200021186059609A60DA601A610B
:104E4000704700BF83684268C168F0B443EA020655
:104E500002690E434169164382690E43C1691643D4
:104E6000026A446A314341EA0206816A0268C56AFD
:104E7000344344EA0106940004F12044354325609C
:104E8000082B08BF236802F1010704BF43F0400369
:104E90002360036BB1F5804F1D689E695C6846EA2C
:104EA00005069D6846EA0416DC6846EA05251E6983
:104EB00045EA04445B6944EA065444EA03644FF05B
:104EC000204343F8274009D0F0BC4FF48273CAF264
:104ED00000036FF0704143F822107047436B4FF4AA
:104EE00082719D6993E81100054398681E6945EA3F
:104EF000041444EA00205B6940EA065040EA03607B
:104F0000CAF2000141F82200F0BC7047C2692DE9E5
:104F1000F00781684768036A966847EA0109C7682D
:104F2000516804699D684FEA064A49F00809166805
:104F300049EA07094AEA012AD1685A6847694FEAEB
:104F4000054849EA04091D6884690068DB6848EA85
:104F5000022848EA0502102842EA036249EA472982
:104F60004AEA060A0CBF60238023CAF2000349EA1A
:104F700044344AEA01611C609960BDE8F007DA60D8
:104F8000704700BF90E80C0042F01001826841EACF
:104F90004321A023CAF2000341EA4231C26870B43F
:104FA00019609468516815682404D26844EA0121A4
:104FB000294341EA02610269996094685168166860
:104FC0002404D56844EA01213143426941EA05617C
:104FD000D9609068516814680004D26840EA0121E1
:104FE000214341EA0261196170BC7047F0B4416B22
:104FF000046B00230F22FF254FF480574FF4005617
:105000004FF0020C07624662C0F804C00360836080
:10501000C360036143618361C3618362C362A3614F
:1050200022606260E26022616261A5608D600A6058
:105030004A60CA600A614A618B61F0BC704700BF78
:1050400030B4016AC469FC23002210250560426067
:105050008260C26002614261826123606360A3601A
:10506000E3600B604B608B60CB6030BC704700BF6F
:1050700030B40169C4684269FC23002505604560BD
:10508000856023606360A360E3600B604B608B60AE
:10509000CB6030BC136053609360D360704700BF37
:1050A000800000F1204039B902684FF6FE73C0F26B
:1050B0000F03134003607047036843F0010303606C
:1050C000704700BF51B110280CBF60238023CAF283
:1050D00000031A6842F004021A60704710280CBFDF
:1050E00060228022CAF2000211684FF6FB73C0F200
:1050F0000F030B401360704750B9A022CAF20002A0
:1051000011684FF6FB73C0F20F030B40136070473A
:10511000A023CAF200031A6842F004021A60704722
:1051200051B110280CBF60238023CAF200031A6813
:1051300042F040021A60704710280CBF60228022A3
:10514000CAF2000211684FF6BF73C0F20F030B40A2
:105150001360704710280CBF60238023CAF200033D
:105160005869704762B1102820D0B0F5807F0CBF1D
:105170008023A023CAF200035A6811435960704784
:1051800010280BD0B0F5807F0CBF8023A023CAF27B
:1051900000035A6822EA0101596070476023CAF28D
:1051A00000035A6822EA0101596070476023CAF27D
:1051B00000035A6811435960704700BF10280CD093
:1051C000B0F5807F0CBF8023A023CAF200035B6888
:1051D0000B420CBF0020012070476023CAF200037D
:1051E0005B68F5E710280BD0B0F5807F0CBF8023FB
:1051F000A023CAF200035A6822EA010159607047ED
:105200006023CAF200035A6822EA0101596070471C
:10521000102812D0B0F5807F0CBF8023A023CAF2E3
:1052200000035B6813EAD1020CBF002001200B428F
:105230000CBF002000F0010070476023CAF2000399
:105240005B68EFE710280BD0B0F5807F0CBF8023A0
:10525000A023CAF200035A6822EAD10159607047BC
:105260006023CAF200035A6822EAD10159607047EC
:1052700008B54FF4A053C4F20103984263D012D989
:105280004FF4E053C4F2010398423ED04FF4005370
:10529000C4F20103984222D04FF4C053C4F2010378
:1052A00098423CD008BD4FF44063C4F201039842D9
:1052B0003FD04FF48053C4F2010398421BD04FF407
:1052C0000063C4F201039842ECD10420012100F0F4
:1052D00057FDBDE808400420002100F051BD4FF407
:1052E0008070012100F04CFDBDE808404FF4807053
:1052F000002100F045BD1020012100F041FDBDE876
:1053000008401020002100F03BBD8020012100F06A
:1053100037FDBDE808408020002100F031BD40206D
:10532000012100F02DFDBDE808404020002100F0E3
:1053300027BD0820012100F023FDBDE8084008201A
:10534000002100F01DBD2020012100F019FDBDE865
:1053500008402020002100F013BD00BF08B5012047
:10536000014600F00DFDBDE808400120002100F0DD
:1053700007BD00BF2DE9F003CD78EB0648BF8B7861
:10538000098805F00F0748BF1F4311F0FF0F25D014
:10539000D0F800C0002301264FF00F0802E00133CF
:1053A000082B19D006FA03F202EA01049442F6D15E
:1053B0009A0008FA02F907FA02F22CEA090C282DE1
:1053C0004CEA020C08BF4461E9D0482D03F1010307
:1053D00008BF0461082BE5D1C0F800C0FF2927D918
:1053E000D0F804C0002301264FF00F0802E001337B
:1053F000082B1BD003F1080206FA02F202EA0104AC
:105400009442F4D19A0008FA02F907FA02F22CEA5F
:10541000090C282D4CEA020C08BF4461E7D0482D46
:1054200003F1010308BF0461082BE3D1C0F804C0F5
:10543000BDE8F003704700BF4FF6FF71022204235E
:1054400001808270C3707047836819420CBF0020CE
:1054500001207047806880B2704700BFC36819425E
:105460000CBF002001207047C06880B2704700BFA9
:1054700001617047416170470AB94161704701613C
:10548000704700BFC160704741F480338361816120
:1054900083618369836970470023C4F2010310B4F8
:1054A0001C684FF680722240114341EA00101860D8
:1054B0005DF8044B704700BF1C23C4F22023186022
:1054C000704700BF30B4002300F44014C4F201035D
:1054D000B4F5401F5A6885B21AD0C40255BF430DB7
:1054E000C0F303431B0103244CBF04FA03F305FA82
:1054F00003F322EA030242F0706219B1400D000189
:1055000085402A430023C4F201035A6030BC70472F
:105510005C6822F0706224F070645C60EDE700BFAC
:1055200001F003039B000F229A4000FA03F301F0FD
:10553000FC0101F1804101F58031886820EA020216
:105540008A608A6813438B60704700BF08B54FF4C8
:10555000A843C4F20003984212D04FF4B043C4F2FF
:10556000000398420BD14FF48000012100F016FC9B
:10557000BDE808404FF48000002100F00FBC08BDDA
:105580004FF40010012100F009FCBDE808404FF481
:105590000010002100F002BCF0B587B004468688F8
:1055A00001A80D4600F066FB4DF683630399C4F233
:1055B0001B33A3FB012326F03F069F0C3604360C59
:1055C0001FFA87FC4CEA0606A6802388EA6823F0C7
:1055D000010348F2A0601B04C0F201001B0C8242D0
:1055E000238024D85300B1FBF3F39BB20CF1010CE0
:1055F000032B98BF0423A4F820C0A3832388EE883C
:105600009BB243F0010323802388288823F481631D
:1056100023F00203A9882A891B0430431B0C03438F
:105620000A439BB292B22380228107B0F0BD688802
:105630004BF6FF7398421DBF02EB820202EB82021F
:10564000B1FBF2F302EB42020BBFB1FBF2F39BB2F0
:105650009BB243F48043C3F30B020AB943F0010346
:105660004FF4967202FB07F744F6D352C1F262027E
:1056700082FB07129209013243F400432284BCE703
:10568000002310B44FF480414BF6FF7441F288328E
:1056900044800181C26003808380C3805DF8044B35
:1056A000704700BF038829B923F001031B041B0CBA
:1056B000038070479BB243F001030380704700BF33
:1056C000838829B923F400631B041B0C8380704773
:1056D0009BB243F400638380704700BF838829B97D
:1056E00023F480531B041B0C838070479BB243F44C
:1056F00080538380704700BF038829B923F48073E7
:105700001B041B0C038070479BB243F4807303801F
:10571000704700BF038829B923F400731B041B0CD6
:10572000038070479BB243F400730380704700BF4F
:10573000038829B923F480631B041B0C0380704782
:105740009BB243F480630380704700BF838901F0FC
:10575000FE0123F0FE031B041B0C0B4383817047E7
:10576000838929B923F001031B041B0C8381704733
:105770009BB243F001038381704700BF038829B9BE
:1057800023F040031B041B0C038070479BB243F0C3
:1057900040030380704700BF83889BB21AB923EA95
:1057A00001018180704719438180704701827047F1
:1057B000008AC0B2704700BF1AB901F0FE01018231
:1057C000704741F001010182704700BF82B0019033
:1057D000019BC85A80B202B0704700BF038819B954
:1057E000C3F30E03038070476FEA43436FEA5343EA
:1057F0009BB20380704700BF0388B1F5005F15BFFF
:1058000023F400539BB21B0443F4005318BF1B0C3A
:1058100003807047038829B923F480531B041B0CB1
:10582000038070479BB243F480530380704700BFEE
:105830000388B1F5006F15BF23F400639BB21B040E
:1058400043F4006318BF1B0C03807047038829B919
:1058500023F020031B041B0C038070479BB243F012
:1058600020030380704700BF008BC0F30720704700
:10587000038829B923F010031B041B0C0380704715
:105880009BB243F010030380704700BF038829B127
:1058900023F080031B041B0C038070479BB243F072
:1058A00080030380704700BF838BB1F5804F1BBF1F
:1058B00023F480431B049BB21B0C08BF43F48043BA
:1058C00083837047828A038B90B240EA034020F0C2
:1058D0007F407047828A038B90B240EA034020F0F9
:1058E0007F40431A58425841704700BF82B000239E
:1058F0000A0F0093019301900092009B21F07F41D9
:1059000053B1019B14330193019B1B6819420CBFD7
:105910000020012002B07047019B090C183301934D
:10592000F2E700BFC94389B2818270478388808AC9
:105930009BB280B2084006D001F0E06113EA114149
:105940000CBF002001207047C94389B28182704793
:105950004FF44053C4F20003186070474FF44053B3
:10596000C4F20003586070474FF44053C4F2000380
:10597000986070474FF44053C4F200034AF6AA22DD
:105980001A6070474FF44053C4F200034CF6CC4207
:105990001A6070474FF44053C4F20003DB681842AA
:1059A0000CBF00200120704708B54FF08050012146
:1059B00000F0F4F9BDE808404FF08050002100F0FD
:1059C000EDB900BF2023C4F20E231860704700BF5A
:1059D0001023C4F20E231860704700BF4FF4E04359
:1059E000C4F200031A6822F0E00210431860704706
:1059F000A023C4F20E231860704700BF4FF4E042AA
:105A0000C4F2000210B414684EF6105324F00304DC
:105A100020431060CEF200031A68012942F004020C
:105A20001A6003D020BF5DF8044B704730BF5DF8AB
:105A3000044B70474FF4E043C4F2000319684EF67C
:105A4000105241F0040119601968CEF2000241F0D1
:105A500002011960136843F00403136030BF7047FC
:105A60004FF4E043C4F200035B6818420CBF00200F
:105A7000012070474FF4E043C4F200031A6842EA81
:105A800080001860704700BF4FF48053C4F20203D7
:105A90001968002241F0010119605968CFF6FF0230
:105AA0000A405A601968002221F0847121F4803183
:105AB0001960196821F480211960596821F4FE01E8
:105AC00059609A60704700BF4FF48053C4F20203DC
:105AD0001A68B0F5803F22F480321A601A6822F406
