:020000040800F2
:100000000004002071380008B5350008B935000833
:10001000BD350008C1350008C535000800000000E6
:10002000000000000000000000000000C9350008CA
:10003000CD35000800000000D1350008D535000896
:10004000C5390008C5390008C5390008C539000898
:10005000C5390008C5390008C5390008C539000888
:10006000C5390008C5390008C5390008C539000878
:10007000C5390008C5390008C5390008C539000868
:10008000C5390008C5390008C5390008E935000838
:10009000ED350008C5390008C5390008C539000824
:1000A000C5390008C5390008C5390008C539000838
:1000B000F5350008C5390008C5390008C5390008FC
:1000C000C5390008C5390008C5390008C539000818
:1000D000C5390008C5390008C5390008C539000808
:1000E000C5390008C5390008C5390008C5390008F8
:1000F000C5390008C5390008C5390008C5390008E8
:10010000C5390008F1350008C5390008C5390008AF
:10011000C5390008C5390008C5390008C5390008C7
:10012000C5390008C5390008C5390008C5390008B7
:1001300000000000000000000000000000000000BF
:1001400000000000000000000000000000000000AF
:10015000000000000000000000000000000000009F
:10016000000000000000000000000000000000008F
:10017000000000000000000000000000000000007F
:10018000000000000000000000000000000000006F
:10019000000000000000000000000000000000005F
:1001A000000000000000000000000000000000004F
:1001B000000000000000000000000000000000003F
:1001C000000000000000000000000000000000002F
:1001D000000000000000000000000000000000001F
:0401E0005FF8E0F1F3
:1001E400074A02211068431C13604FF44060DB0788
:1001F400C4F2010001D405F0CFBB05F0CFBB00BFB2
:100204006002002000B5012183B0082006F05EF8EA
:1002140010214FF4406002228DF807100323C4F22A
:10022400010001A9ADF804208DF8063005F074FA38
:1002340003B000BD00B5012183B0102006F046F8DC
:1002440004214FF4805030228DF807100323C4F2A8
:10025400010001A9ADF804208DF8063005F05CFA20
:1002640003B000BD704700BF00B5012183B0082072
:1002740006F02CF810214FF4406001228DF807108D
:100284000323C4F2010001A9ADF804208DF806305F
:1002940005F042FA03B000BD00B5012183B004208B
:1002A40006F014F810214FF4006080228DF8071036
:1002B4000323C4F2010001A9ADF804208DF806302F
:1002C40005F02AFA03B000BD00B5012183B0042073
:1002D40005F0FCFF48214FF4006001228DF807105F
:1002E4000323C4F2010001A9ADF804208DF80630FF
:1002F40005F012FA03B000BD10B5012084B0014628
:1003040005F0F2FF092200236946ADF804204FF0FE
:1003140080404FF4E1521C46ADF80630ADF802308F
:10032400ADF8002006F074FC01214FF0804006F087
:100334007FFF01210A464FF0804006F097FF1C2002
:100344008DF80C00012303A88DF80D408DF80E40A4
:100354008DF80F3003F044FB04B010BD4FF400607F
:10036400C4F20100012105F003BB00BF01460129CD
:100374004FF44060C4F2010002D0012105F00EBB2D
:1003840005F00ABB01284FF40060C4F201004FF0ED
:10039400800101D005F002BB05F0FEBA40F27023E3
:1003A400C2F20003197842181A707047002008B589
:1003B40005F0E4FE4FF400000121BDE8084005F01B
:1003C40093BF00BF40F22853C2F2000303221A6015
:1003D400704700BF05490868837A1BB904490120A6
:1003E40008607047024B05221A6070470809002014
:1003F4002805002030B54FF4C06083B003F0E6FA5E
:100404000124142201A800258DF804208DF805404C
:100414008DF806408DF8074003F0E2FA01A8132195
:100424008DF804108DF805408DF806508DF80740BE
:1004340003F0D6FA312301A88DF804308DF8055065
:100444008DF806508DF8074003F0CAFA03B030BDAA
:1004540038B94FF40060C4F201004FF4806105F034
:100464009DBA4FF40060C4F201004FF4806105F0BE
:1004740093BA00BF092802D93730C0B27047303070
:10048400C0B2704770B501F001FC0A2001F02CFCE9
:1004940004460B2001F028FC05460C2001F024FC46
:1004A40006460D2001F020FC00EB062606EB054570
:1004B400364B05EB04645C60002C5CD0210F3020CB
:1004C4000929334B98BF0918C4F3036288BF373135
:1004D400C4F3035E092A9970C4F3034C94BF02F178
:1004E400300102F13701BEF1090F197183F83000B0
:1004F40094BF0EF130010EF1370183F82E00BCF1E8
:10050400090F83F82C0083F82A0083F8280083F865
:10051400260083F8240083F8220083F820009877CB
:10052400187798761876987518759874C4F303300C
:100534009971C4F3032294BF0CF130010CF137011B
:100544000928197294BF00F1300100F13701092A1A
:10055400997294BF02F1300102F13701C4F303121E
:10056400092A197308D904F00F043732092C9A7335
:1005740008D830341C7470BD04F00F043032092CD8
:100584009A73F6D937341C74F5E700BF7002002063
:10059400B000002003F0D4B84FF48070012105F0BE
:1005A40087BE00BF00B5012183B0042005F08EFE94
:1005B40003214FF400604FF480628DF8061010237D
:1005C400C4F2010001A9ADF804208DF8073005F04C
:1005D400A3F80020FFF73CFF03B000BD08B503F00B
:1005E400AFF8FFF7DFFFFFF725FEFFF73DFEFFF74C
:1005F40053FE4020012105F05BFEFFF77DFEFFF76F
:1006040063FEBDE8084000F057B800BF42780378A5
:1006140003EB022080B27047837890F803C04278DD
:1006240003EB0C21037802EB012003EB002070475D
:10063400F0B4C57990F806C00446280200260027C5
:100644001CEB000247EB060166790B02100243EA39
:10065400126C0027321847EB0C0120790B021602AA
:1006640043EA126C0027821947EB0C01E6780B026F
:10067400100243EA126C0027321847EB0C01A078F1
:100684000B02160243EA126C0027801947EB0C0197
:1006940066780A02030242EA106C0027F61847EB58
:1006A4000C0720783902320241EA166300218018CF
:1006B40041EB0301F0BC704710B440F290540022A7
:1006C400C2F20004227040F2802040F2F56140F250
:1006D400F96340F29454C2F20000C2F20001C2F283
:1006E4000003C2F2000404600A701A7010BC704760
:1006F40010B50B4A0B4C107914600B490B4A0023BC
:10070400012813700B7004D191F800C04CF008005C
:10071400087000F037FD064B0021197010BD00BFB2
:10072400800200209405002090050020F50600209A
:10073400F906002010B50B4A0B4C107914600B49D4
:100744000B4A0023012813700B7004D191F800C0E8
:100754004CF00800087000F015FD064B00211970DC
:1007640010BD00BF800200209405002090050020E9
:10077400F5060020F9060020012810B5044609D02A
:1007840002D302280DD010BD02201021BDE8104074
:1007940008F018BA02204FF48051BDE8104008F068
:1007A4002BBA102108F00EFA20464FF48051BDE810
:1007B400104008F021BA00BF08B5022008F002FC7E
:1007C40040F64053024640F65C50C2F20003C2F2C7
:1007D4000000D8211A80BDE8084008F061B900BFC4
:1007E400F8B5564D564C2B7813B9A360554B23607E
:1007F400022008F0E7FB2368C6B2D8211846324627
:1008040008F04EF9A26820682B78B1188219A1600B
:100814004B4822606BB1C3689E1B002EE66019DD55
:1008240002232B7002204FF44051BDE8F84008F039
:10083400E3B9444A537897780A33D17803EB072312
:10084400C36099B19E1B404A0421002E2970226086
:10085400E660E5DC11D1072028703C4B002193F8B9
:1008640000C0A1604CF001001870F8BD1079002898
:10087400E8D1B3F58D7FCFDBE4E710DA06222A70E6
:10088400324B304A93F800C0FF2151709170D170FF
:1008940011714CF001000021A1601870F8BD2A7894
:1008A400931E052B0ED801A151F823F02908000846
:1008B400DF080008D9080008DF08000885080008D8
:1008C4005F080008214800210378A16043F0010279
:1008D4000270F8BD05212970F8BDA3689BB9032AED
:1008E40025D006222A70E1681548CA1A002AE26057
:1008F4000CDD95F800C0BCF1030F11D0002AE8DA32
:1009040006232B70F8BDFF2BEDD1E2E7F6D195F865
:1009140000E00A4BBEF1030F0CD006201870F8BD9E
:100924000168C918054B016002201870E6E707202A
:100934002870D8E707221A70F8BD00BFF50600201A
:1009440080020020940500209E05002090050020D0
:1009540038B53E4C207809283CD00A2829D00828EC
:1009640000D038BD3A483B4D8278437843EA0222AE
:100974000A32B2F5977FEA6053DD4FF49771E9606C
:100984002860402232484FF48C7108F055F82A68E8
:10099400EB684032403BEB60022040212A6009238F
:1009A400237008F0B1FA0220302108F00BF9207806
:1009B40038BD294B0220197841F002021A70002236
:1009C400264B227003224FF440511A7008F014F998
:1009D400207838BD1F4DEA6828683F2A14DD40227C
:1009E4004FF48C7108F028F82A68EB684032403BD9
:1009F400022040212A60EB6008F086FA02203021B0
:100A040008F0E0F8207838BD92B24FF48C7108F009
:100A140013F8E8682A6881B213182B6002200A23AD
:100A2400BEE73F2A2860ACDC92B24FF48C7108F028
:100A340003F80A23A9890220237008F065FA02202A
:100A4400302108F0BFF8207838BD00BFF50600203B
:100A5400940500208002002090050020420D002013
:100A640010B52B4C2378DB071AD52A49087861384E
:100A7400112816D8DFE800F0181D241529151515BE
:100A840015152E33383D4215150900F019FE00F0F6
:100A940065FE2178204A01F0FE03082010702370BF
:100AA40010BD00F0BBFEF4E700F060FD00F07CFE3A
:100AB400EFE700F077FC812825D000F037FEE8E767
:100AC40000F092FC00F064FEE3E700F08FFC00F01D
:100AD40045FEDEE700F086FD00F088FED9E700F071
:100AE400E9FC00F061FED4E700F00CFD00F05CFED0
:100AF400CFE700F0BBFD00F031FECAE700F09AFC3E
:100B040000F014FEC5E700F0A1FA00F00FFEC0E704
:100B14009005002094050020F506002038B5374CD8
:100B240023781A0718D42178344CCA0613D500F058
:100B340095FE04223248982107F07EFF012004210B
:100B440008F0E2F90120302108F03CF894F800C0E4
:100B54000CF0EF02227038BD00F072FE2949087CC7
:100B640010BB27484578022D06D0032D2CD02078C1
:100B740000F0F7032370D6E722785307F7D52A4607
:100B8400982107F059FF0120294608F0BDF90120FA
:100B9400302108F017F8227802F0F701217020784C
:100BA40000F0FB032370BEE700F04AFE0222982106
:100BB400134807F041FF0120022108F0A5F90120A4
:100BC400302107F0FFFFD2E794F800C05FEA4C71D0
:100BD400CDD40222982107F02FFF0120022108F032
:100BE40093F90120302107F0EDFF227802F0F7019C
:100BF4002170207840F00403237094E790050020CE
:100C04008C05002080020020704700BF704700BFA1
:100C1400704700BF40F29053C2F2000393F800C043
:100C24004CF008011970187800F0FB021A7075E78F
:100C340008B5FFF715FF054B1B78082B02D00A2BCC
:100C440000D008BDBDE8084082E600BFF5060020DC
:100C540040F28023C2F200031871704740F28023EF
:100C6400C2F200031879704710B5164C002320789F
:100C7400637000F0F90222702178112201F0FE0065
:100C840063712070227100F085FA637960B143F0DA
:100C940002010020617103230A212022A071E17165
:100CA40023726272A07210BD23F0020300206371EC
:100CB4000A2103232022A071E17123726272A072BF
:100CC40010BD00BF9402002038B51E4C1E4B207985
:100CD400010903EB8105296C00F00F0253F822503F
:100CE400C801B0FBF5F010F0010101D00130012181
:100CF400400800F055FAD8B96079124B10F0100F83
:100D04001A78A07914BF42F0010202F0FE02FF2813
:100D14001A700FD00C3000F04BFAE379C3EB031CCC
:100D240005FB0CF52846E56000F044FA812038BD47
:100D34000A2038BD034A117811F0010F14BF0B20AB
:100D44000C20E8E794020020E0AF000808B500F0AA
:100D540021FA054B5A7918B142F00200587108BDC6
:100D640022F002025A7108BD9402002004290AD01C
:100D740005290AD003795A1D8A4204D006338B42CE
:100D840006D0002070470220704700790230704777
:100D9400815C881C704700BFF0B5244B0546587829
:100DA40083B00C4620B90E68002E2BD1012002E03E
:100DB400012802D0812003B0F0BD09680029FAD1CE
:100DC400BAB11E69511E377890422F7001F00101AB
:100DD4000DD021B1717802209042697007D0375C40
:100DE400411C2F54775C023090426F54F7D1B618EF
:100DF4001E615B690D499A4212D2981A48612260B9
:100E04008120D8E731462846FFF7B0FF01AB024600
:100E14003146284601F088FE019B81202360CAE701
:100E2400002223604A708120C5E700BF940200209D
:100E3400F8B5244C074623780E4613F0060F1546E2
:100E440002D00AB10820F8BD207810F0060F1CD09B
:100E5400812094F800C01CF0060F03D119490B78C7
:100E6400DB0729D494F800C00CF00602022A16D03D
:100E740094F800C00CF00602022AE4D111490B7860
:100E840013F0010F18BFF620F8BD0E4A1178CA07F7
:100E9400DED4384631462A46FFF77EFFD9E70949B2
:100EA4000B7894F800C013F0010F0CF0060208BF91
:100EB400F620022AC7D1E1E7384631462A46FFF731
:100EC4006BFFCFE794020020F6207047F6207047AE
:100ED400F620704740F2942CC2F2000CF0B49CF857
:100EE40008109CF804709CF805609CF806509CF867
:100EF40007409CF809209CF80A30077046708570FA
:100F0400C4700171427183710120F0BC704700BF4D
:100F14002DE9F0410129037818BF4FF0000890F83B
:100F240001C08778C578047906BF467990F80680B1
:100F340046462F4A181C18BF012052F8200010B949
:100F44000A20BDE8F081180952F82020002AF7D0C1
:100F540041B9BCF1000F07D0BCF1020F04D00B2043
:100F6400BDE8F081012913D09F2D05D91CF0100F85
:100F740002D00D20BDE8F08124B1032C02D00E2054
:100F8400BDE8F081B8F1000F0FD01020BDE8F0816A
:100F9400BCF1100FE8D0BCF1110FE5D0BCF1120F79
:100FA400E2D0BCF1130FDAD1DEE7DFF8488088F82D
:100FB400043088F805C000F0EDF898F8053088B9D9
:100FC40023F0020388F80530002288F8067088F8B8
:100FD400075088F8084088F8096088F80A20BDE8B6
:100FE400F04171E643F0020188F80510ECE700BF18
:100FF400E0AF0008940200204BF2A832C0F60002D1
:1010040010B50C461146132209F078FE1223236012
:1010140010BD00BF08B50B680022012B0A6001D087
:10102400812008BD90F800C0BCF1020FF8D1FFF791
:10103400E3FFF5E7044B1B7A23B108B900F0AEB81F
:101044001846FBE718467047940200202DE9F0018A
:1010540032480378002B5FD090F82BC090F82C8096
:101064002F490CEB080544788278002302354D7033
:101074008B70CB700B718C72CA72BCF1000F20D0D4
:10108400851C0346EA4305EB0C0713F8035FD419E8
:10109400BB420A4602F80C5F04F0010411D03CB1D3
:1010A400034613F8040F0A46BB4202F80D0F08D09A
:1010B4005E789D785C1C0233567095700232BB4298
:1010C400F6D1B8F1000F23D0164A0CF10C0C1346DC
:1010D40013F8014F02EB0805D04340196144AB42B9
:1010E40001F8014B00F0010012D030B1134613F89F
:1010F40002CFAB4201F801CB0AD0581C5B780A46F8
:10110400447802F8013B431C4C70511CAB42F4D1AF
:101114008120BDE8F00170470720FAE7340700207A
:10112400940500204A070020014B00221A707047E2
:10113400F90600200023094A0370137803F004031E
:1011440003701278920704D543F008030370FB2060
:101154007047002B14BFFB2081207047F906002044
:10116400064B1A781B78520701D5FB20704713F001
:10117400020F14BFFB208120704700BFF906002036
:10118400704700BF704700BF704700BF704700BF83
:10119400002070470020704700207047812070476E
:1011A40040F2F4730C3898428CBFFF200020704743
:1011B400704700BF704700BF024B1A7802F0F70275
:1011C4001A707047F9060020704700BF044A13786C
:1011D40003F0F703137013781B07FCD5704700BFA7
:1011E400F9060020F0B4074B074E1F78074D07F0AF
:1011F400EF07074A00241F70316028601460F0BCB8
:10120400704700BFF906002004070020FC060020F8
:1012140008070020704700BF024B1A7802F0FE0254
:101224001A707047F9060020014B1868704700BF18
:101234000807002030B4064B064C1D78064A05F01A
:10124400EF0501311D702160106030BC704700BF94
:10125400F90600200407002008070020014B186845
:10126400704700BF08070020014B1868704700BF93
:101274000807002030B4084A08481578084B05F0E0
:10128400F7050124032115700470197013781B07E6
:10129400FCD530BC704700BFF9060020F8060020DA
:1012A4000007002070B41C4C23782ABB03F0DF0332
:1012B4000529237027D02378184E03F0EF032370F9
:1012C4002578174B013005F0F705134A3060257077
:1012D400196005E013781D0705D41378D80602D4E5
:1012E4002378DE07F6D52378DB0709D470BC002900
:1012F4000CBF8120FE20704743F020032370DAE7FF
:10130400FD2070BC7047074A074B15781A78954240
:10131400D1D042781A70CEE7F906002004070020E5
:101324000807002000070020F8060020F0B4194C3C
:10133400D1F800C02378184F43F04003237023787A
:10134400164E03F0EF0323702278154B02F0F702D8
:1013540000252270C7F800C0224630601D6005E0F9
:1013640013781D0705D41378D80602D42378DE0732
:10137400F6D500230B602378064ADB0707D4F0BCBC
:10138400137813F0100F0CBFFE20FC207047FD20D3
:10139400F0BC7047F9060020FC060020040700207A
:1013A4000807002008B50E4B5A790AB1052008BD7C
:1013B400587858B9997849B9DA783AB91B792BB978
:1013C40008490878830603D5FF2008BD012008BD1D
:1013D40001F0D2FC002814BF8120FB2008BD00BF0F
:1013E40094050020900500208120704700B5104B23
:1013F40083B05A7912B1052003B000BD587848B9BA
:10140400997839B9DA782AB9187918B9D97919B122
:101414000720F1E70120EFE71A7A002AF8D15B7A76
:10142400002BF5D10DF10700FFF784FEE4E700BFC0
:101434009405002030B51D4C83B0637913B10520A9
:1014440003B030BDA1786078E27840EA01230093CC
:101454006AB922795AB90A33B3F58D7F07D2144D8C
:1014640095F800C05FEA8C6203D5FF20E8E701200D
:10147400E6E70DF10700FFF75DFE8128E0D1607A11
:10148400217A41EA002204F10A006946FFF7D0FC00
:101494002B7813F02003E8D18128D1D1009AE3708E
:1014A400110A6270A1702371CAE700BF940500207D
:1014B4009005002000B5124883B0437913B105208C
:1014C40003B000BD417849B982783AB9C3782BB9E1
:1014D400017919B9C2791AB10720F1E70120EFE7C0
:1014E400037A002BF8D1417A0029F5D10A30FFF7AD
:1014F4000FFD8128E4D10DF10700FFF71BFEDFE7A4
:101504009405002010B5184B82B05A7912B1052009
:1015140002B010BD587848B9997839B9DA782AB93F
:10152400187918B9D97919B10720F1E70120EFE743
:101534001A7A002AF8D15A7A002AF5D111249C7219
:101544000A245C73032403F10A001146DA721A7345
:101554009C73DA731A74FFF7DBFC8128D8D10DF180
:101564000700FFF7E7FDD3E79405002030B51C4BD7
:1015740083B05A7912B1052003B030BD987840B9D0
:10158400D97831B91A7922B95A78052A26D0072A86
:1015940001D00120F0E7DA79012A04D0052058703F
:1015A4000AB10720E8E71B7A0D4C0BB10820E3E7EA
:1015B400657A002DFAD182202070FFF7E9FD072219
:1015C400034601210DF10700E37125726270A570D5
:1015D400E57025716172FFF7ADFDCDE7DA79DFE7DC
:1015E4009405002030B51F4C83B0637913B10520F6
:1015F40003B030BDA1786078E27840EA012300931B
:101604004AB922793AB90A33B3F58D7F03D2E37923
:101614001BB10720ECE70120EAE7207A0028F8D183
:10162400617A0029F5D1104D2A78900601D5FF2062
:10163400DEE7694604F10A00FFF7ECFC95F800C008
:101644005FEA8C61F3D48128D2D1009A0023110A75
:101654000DF107006270A170E3702371FFF76AFD5A
:10166400C6E700BF940500209005002000B5134B89
:1016740083B05A7912B1052003B000BD587850B92F
:10168400997841B9DA7832B9187920B9D87901282A
:1016940003D90720F0E70120EEE7197A09B1082001
:1016A400EAE75B7A002BFAD1FFF7C4FC8128E3D187
:1016B4000DF10700FFF73EFDDEE700BF94050020B3
:1016C400174B5A790AB105207047587848B9997868
:1016D40039B9DA782AB9187918B9D97919B107203A
:1016E4007047012070471A7A002AF8D1587A0028E6
:1016F400F5D10C4A92F800C05FEA8C6101D4FF2056
:101704007047094899790378994201D0FF207047BE
:1017140092F800C081200CF0DF011170704700BF07
:101724009405002090050020F406002038B50A4CEA
:10173400802305462370FFF72BFD0023812DE071E4
:10174400237206D04030E0716370A370E37023719C
:1017540025720020607238BD9405002038B50B4C0A
:10176400812305462370FFF713FD0023812DE071CB
:10177400237206D04030E0716370A370E37023716C
:101784002572FFF709FD607238BD00BF9405002083
:1017940008B5FFF7E3FF40F29453C2F200030122BD
:1017A400DA715A7208BD00BF38B50F4C8223054662
:1017B4002370FFF7EDFC0023812DE071A370E3702B
:1017C4002371237204D04030E0716370257238BDF8
:1017D40004F10A00FFF77EFB607210B90521617005
:1017E40038BD0720607038BD9405002038B50A4C18
:1017F400832305462370FFF7CBFC0023812DE07182
:10180400237206D04030E0716370A370E3702371DB
:1018140025720020607238BD9405002038B540F26E
:101824009454C2F2000400256570A570E57025711A
:10183400FFF7AEFC4030E0712572657238BD00BF21
:1018440010B5054C50232370FFF7A2FC022818BFE3
:101854000320607010BD00BF8C05002040F2945C32
:10186400C2F2000C40F28C53C2F2000351229CF8E5
:1018740006001A700021812259709870DA7070473E
:1018840000230370037143804371704730B4D1B1B6
:1018940001234A1E8B4202EA0304027810DA2CB1B7
:1018A400447802238B4282EA040209DAC55C0133DC
:1018B400C45C013382EA050C8B428CEA0402F5DB3A
:1018C400104630BC70470A46FAE700BFF8B5044634
:1018D4004079227800F001018E01431C151D002778
:1018E40084F8077184F8086104F58570E11D84F8B3
:1018F4000921A571637109F001FA27780337FEB253
:101904000EB3721E02F00101012204F583739642A4
:1019140013F8010F13D031B113F801CF022296420C
:1019240080EA0C000BD0591C93F801E04D78023288
:1019340080EA0E0C4B1C96428CEA0500F3D1E419A4
:1019440084F80701F8BD3046F9E700BF4179002269
:1019540001F001031B01803BDBB2013180F8072158
:1019640080F80921042280F808318271417180F8DD
:101974000A31704770B582B0002202AB8179044607
:1019840000F5827043F8042D03304FF4807201F0A7
:10199400CBF8019D052D23D994F808319B0619D461
:1019A40004EB050E9EF804019EF805C106220CEB1B
:1019B4000026668016462179AA1A6318D81D04F5F4
:1019C400857109F09BF922796088AD18AE1B2671E8
:1019D40002B070BD04224AF2020161801646EAE7B1
:1019E4004AF201006080F3E7F8B50025044605716A
:1019F400FFF76CFF2046FFF7BDFF63884AF2010240
:101A0400934221D004274AF2020694F808C12046E2
:101A14005FEA8C6218D5627984F8075102F00101FB
:101A24000B01803BDBB2511C84F8083184F80A3185
:101A340084F80951A7716171FFF79CFF6388B34271
:101A4400E3D0B3F5104FE0D01846F8BD30B54BF2F3
:101A5400600185B00B2540F2AC242A46C2F2000492
:101A6400C0F6000101A809F049F9204600F8075B17
:101A740001A92A4609F042F9204605B0BDE83040E4
:101A8400B2E700BF70B540F2AC24C2F200041646BF
:101A940005220346002522702046CA226372E5719E
:101AA4002272A172E572FFF79FFF2379337070BD34
:101AB400F8B5064608460F4609F060FA40F2AC2431
:101AC400C2F2000404F10C0CC5B2002320223946F2
:101AD400803E60462570E572E37122726372A672DD
:101AE40009F0EEF9053520462570BDE8F8407BE79E
:101AF400F0B58026A1B0074632461149684640F247
:101B0400AC2409F0FBF8C2F20004872323702A23D3
:101B140023728623002569463246A37204F10D0020
:101B24008123E372E5716672257309F0E7F82046B4
:101B340084F88D50FFF758FF23793B7021B0F0BD36
:101B44006CB0000830B583B0FFF780FF0446002076
:101B5400B4F5104F01D003B030BD4F210DF1070291
:101B6400FFF790FFA042054601D00020F3E79DF85F
:101B74000730102BF9D15F2052210DF10702FFF736
:101B840081FFA8420446F0D19DF8071000200A29DD
:101B9400E1D1C4210DF10702FFF774FFA042E4D1A3
:101BA4009DF807200020072AD5D16E210DF10702E8
:101BB400FFF768FFB0F5104FD7D19DF807C000209C
:101BC400BCF1D90FC7D15E210DF10702FFF75AFF0F
:101BD400B0F5104FC9D19DF80740002CC5D16E2136
:101BE40020460DF10702FFF74DFFB0F5104F01D06D
:101BF4002046B0E79DF807E02046BEF1D90FAAD1F0
:101C04006E210DF10702FFF73DFFB0F5104FEFD144
:101C14009DF807302046D92B9DD16E210DF1070286
:101C2400FFF730FFB0F5104FE2D19DF80700D92837
:101C3400DED102200D49FFF73BFFB0F5104FD7D19D
:101C440001200A49FFF734FFB0F5104FD0D10DF150
:101C54000700FFF74DFFB0F5104F86D19DF8073010
:101C6400A3F123014A4242EB010074E7BCB300082C
:101C740008B5054B00221A701A715A805A7101F086
:101C840089F8FFF75FFFFEE7AC02002010B540F2D1
:101C9400AC23C2F20003002482B01C701C715C806F
:101CA4005C71FFF7D3FE20464F210DF10702FFF7C9
:101CB400E9FE9DF8070002B010BD00BF10B540F268
:101CC400AC23C2F20003002482B01C701C715C803F
:101CD4005C71FFF7BBFE20464F210DF10702FFF7B1
:101CE400D1FE204602B010BD40F2AC21C2F2000188
:101CF4000B18D879704700BF40F2AC230022C2F21F
:101D0400000310B504461A701A715A805A71FFF70D
:101D14009DFE03202146FFF7CBFEB0F5104018BF0F
:101D2400012010BD30B50B4C002583B02570257102
:101D340065806571FFF78AFEC42128460DF107020C
:101D4400FFF7A0FEB0F5104F0CBF607BFF2003B07F
:101D540030BD00BFAC02002070B50024CB070D4697
:101D6400064610D54FF46050C4F20100202105F05E
:101D740081FFB8B9012406E0AC421ED005F07AFF19
:101D8400013478B901344FF460502021C4F20100C9
:101D940005F070FF03464FF460502021C4F20100A7
:101DA400002BE9D0A5420AD04FF46050C4F20100E0
:101DB40005F0FCFE3070012070BD184670BD002097
:101DC40070BD00BF10B584B08DF807004FF46050AB
:101DD4009DF80710C4F2010005F0E4FE4FF46050D2
:101DE400C4F20100402105F045FFB8B942F2107475
:101DF40005E005F03FFF013C80B9013C2BD04FF4D6
:101E040060504021C4F2010005F034FF03464FF452
:101E14006050C4F201004021002BEAD001210DF1F1
:101E24000F00FFF799FF012806D09DF807304FF601
:101E3400FF7000B204B010BD9DF80FE09DF80700DC
:101E44001FFA8EF10FFA8EFC4FF6FF72604514BF35
:101E540008461046EDE74FF6FE70EAE700B510219C
:101E640083B04FF4406030228DF807100323C4F28E
:101E7400010001A9ADF804208DF8063003F04CFCF4
:101E840003B000BD10B54FF44064C4F20104204611
:101E9400102103F081FD20462021BDE8104003F00D
:101EA4007BBD00BF10B54FF44064C4F2010420466A
:101EB400102103F073FD20462021BDE8104003F0FB
:101EC4006DBD00BF10B50B4C01460120216001F02F
:101ED40037FB236823B1FEF7ABFE20680028FAD154
:101EE4006FF0010001F02CFB0020BDE8104001F070
:101EF40027BB00BF1405002038B5084D2860012019
:101F040001F01EFB2C68002CFCD16FF0010001F0E5
:101F140017FB2046BDE8384001F012BB1405002031
:101F240008B50146A8B94FF46050C4F2010005F0A9
:101F34005DFE4FF440601021C4F2010003F02EFD59
:101F44004FF44060C4F201002021BDE8084003F0D2
:101F540025BD4FF440601021C4F2010003F01CFDC4
:101F64004FF440602021C4F2010003F015FD4FF44A
:101F74006050C4F201000121BDE8084005F036BEFE
:101F84004FF44063C4F2010302460821184603F0EB
:101F940007BD00BF08B50020FFF7F2FF0020FFF7E0
:101FA400BFFF4FF46050C4F2010005F0A7FC082005
:101FB400002104F08BF94FF480400021BDE8084073
:101FC40004F084B908B5094B4FF460501978C4F291
:101FD400010005F0E7FD4FF46050C4F20100402118
:101FE40005F048FE0028F6D008BD00BFB804002064
:101FF40070B54FF460548AB0C4F20104054601A8D8
:10200400164604F0F3F8238B4BF2EC0C0498C0F65C
:10201400000CDAB205F00F015CF821105300B0FB9C
:10202400F3F201FB02F02D090CEB8503196C4FF45C
:10203400806CB0FBF1F206924FF48052002306A9A3
:102044002046ADF81C200C360C22ADF81E30ADF83D
:1020540020C0ADF82220ADF8243005F0ADFCF1B27B
:10206400204605F0ADFD0AB070BD00BF2DE9F0417A
:102074004FF460548CB000216846C4F201049D4DB5
:102084008DF82F1004F0B2F8402101222046278B4E
:10209400039E05F03DFDAB78BFB2DA0640F1A8809F
:1020A400E878112800F0A480DFF85082FF2288F835
:1020B400002098F80010204605F074FD4FF460509D
:1020C400C4F20100402105F0D5FD0028F6D00DF141
:1020D4002F004FF40041FFF73FFE012800F08B80F2
:1020E4000124112388F800304FF4605098F8001050
:1020F400C4F2010005F056FD4FF46050C4F2010033
:10210400402105F0B7FD0028F6D00DF12F004FF463
:102114000041FFF721FE012800F0E580E87888F807
:1021240000004FF4605098F80010C4F2010005F06C
:1021340039FD4FF46050C4F20100402105F09AFDCE
:102144000028F6D00DF12F004FF40041FFF704FEF4
:102154000128EB7800F0C18083F0EE0288F80020BB
:102164004FF4605098F80010C4F2010005F01AFD15
:102174004FF46050C4F20100402105F07BFD0028BB
:10218400F6D00DF12F004FF40041FFF7E5FD0128D3
:1021940000F099800DF12F004FF40041FFF7DCFDB2
:1021A400012800F08A8003240DF12F004FF4004130
:1021B400FFF7D2FD012878D04FF005080DF12F006C
:1021C4004FF40041FFF7C8FD012866D007244FF4FF
:1021D40000410DF12F00FFF7BFFD01284FF46050BF
:1021E400C4F201004FF040010CD0002205F090FC35
:1021F4000CB0BDE8F0819DF82F40FF2C14BF4024A3
:1022040001246EE7EB789DF82FC083F0EE0EF445C1
:10221400EBD1002205F07CFC012CE9D1354C364889
:10222400E278FFB202F00F0350F823507F00B6FBB0
:10223400F7F6110905FB06F500EB8104236C4FF456
:102244006050002409A94FF4006E4FF4807CC4F25E
:102254000100B5FBF3F5ADF824E0ADF82640ADF888
:102264002840ADF82AC005F009FC4FF480600C2129
:10227400ADF81C004FF460504FF48052ADF81E10BE
:10228400C4F2010005A90595ADF81820ADF81A406F
:10229400ADF8204005F090FBAAE7EC789DF82F20DC
:1022A40094420CBF4446062491E79DF82F00112860
:1022B4000CBFA0464FF0040880E79DF82F30FF2B99
:1022C40018BF022470E795F803E09DF82F108EF0F4
:1022D400EE08414518BF10245CE79DF82FC09C45CB
:1022E40018BF202438E79DF82F10112918BF302477
:1022F40014E700BF34070020ECB00008B804002045
:1023040030B5082089B0012103F0E0FF01214FF42A
:10231400804003F0DBFF01200146584D03F0D6FF57
:102324000420012103F062FB2C68012C67D04FF4D8
:1023340060500A21C4F2010005F04EFC4FF46050D5
:102344000121C4F2010005F03BFC4FF460504FF44E
:10235400807C002405A94FF40063C4F20100ADF8A9
:102364001AC0ADF81430ADF81640ADF8184005F0B9
:1023740085FB0C20ADF80E004FF480614FF46050E3
:102384004FF4805342F2CD52ADF80C10C4F2010068
:1023940001A9ADF808300192ADF80A40ADF810403B
:1023A40005F00AFB4FF4605028210122C4F2010019
:1023B40005F090FB4FF4605001226021C4F201004B
:1023C40005F088FB4FF460500121C4F2010005F0D0
:1023D40073FB4FF460500121C4F2010005F014FCBA
:1023E4004FF460500121C4F2010005F0FFFB2046C8
:1023F400FFF7C6FD2046FFF793FD09B030BD4FF44B
:1024040000604FF4807C18220323C4F2010007A962
:10241400ADF81CC08DF81F208DF81E3003F07CF938
:102424004FF440601C234022C4F2010007A98DF838
:102434001F30ADF81C2003F06FF94FF48070214673
:10244400C0F2300003F0D2FA4FF400702146C0F21B
:10245400300003F0CBFA4FF440601022C4F20100C4
:1024640007A908248DF81F20ADF81C4003F054F987
:10247400FFF7F4FC00232B6059E700BF080000209D
:102484002DE9F04F037887B004460E461546052B18
:1024940007D8DFE813F00E0041000600EF00A701A3
:1024A4000B000520207007B0BDE8F08FFFF772FD28
:1024B400F9E74D78002DF6D1FFF722FF0120FFF751
:1024C4002FFDC24B03F128015A1C5D700233557075
:1024D40000228B42F8D1BE4811460346054642709D
:1024E40003F8022F00F116005A1C5970023383427C
:1024F4005170F9D1B74B002103F114005A1C5970E3
:102504000233517000228342F8D1012185F82B2037
:1025140085F82C202170C6E74A78002AC3D1DFF859
:10252400B882DFF8BCB201239246052BBBD0032B43
:10253400B9D0DFF8A49288F801A02078431E042BB8
:1025440000F2958001A151F823F000BFFF25000897
:1025540079250008AB2400087326000865250008C7
:1025640000208DF816A0FFF70BFD0020FFF7D8FC24
:102574002378DAE7002506AEDFF8648206F8025D08
:102584000120FFF7FDFC2825474606E0FFF7E4FBA2
:1025940001281DD0013DEDB23DB34FF4004130465A
:1025A400FFF7DAFB84466A1EBCF1010F30464FF494
:1025B4000041D5B2EAD199F801209DF816E0531CE8
:1025C40007F801EB89F80130FFF7C6FB0128E1D1D8
:1025D40099F801209DF816E0013D511CEDB207F871
:1025E40001EB89F80110002DD7D198F800100029CB
:1025F4003FF457AF0320207055E706AE06F802AD4E
:10260400002506E0FFF7A8FB01281CD07D1C282D1F
:1026140025D04FF400413046FFF79EFB0746012FBB
:102624004FF40041304605F10107EBD198F8012041
:102634009DF816C0531C88F801300BF805C0FFF74D
:102644008BFB0128E2D198F801109DF816007D1C3F
:102654004B1C282D0BF8070088F80130D9D19BF8C2
:102664000010002940F053810223237063E7012303
:10267400237060E74A78002A7FF415AFDFF860B171
:10268400DFF84C819BF801A098F82B700AF0F00356
:10269400C3F30010C3F3401100EB010C4E480CEBE4
:1026A4000702D1B24278C3F38017CF19029207EB25
:1026B400D31C9BF8000002990AF00F075FFA8CFC08
:1026C400019788F82C7088F82D1088F8010088F894
:1026D40002A05FFA8AF788F82BC0BCF1000F23D060
:1026E400594608F1020311F8020FDA430CEB030612
:1026F400434603F8030F02EB060AB3420AF0010251
:1027040012D03AB1594611F803AF434603F804AF67
:10271400B34209D04A1C4D785078591C5D7002337D
:102724004870511CB342F5D108EB0C0A9AF802A088
:1027340039060AF00F03039340F1AE80D146A24656
:1027440008EB0C0084785FFA89F904F0F000C0F318
:102754008011C0F34013CF18C0F30012BC1814EB5F
:10276400D01726D01D480CF101035B440CEB000686
:1027740040F23474DA435878BE190CF1FF31C2F2D6
:102784000004091992190133087102F001000A1DAD
:10279400B3420ED028B113F8014F4A1DB3424C7115
:1027A40007D05D7899780233557091700232B34244
:1027B400F7D107EB0C0219F0800F5FFA82FC68D0A6
:1027C40008EB0C0999F80290BAE700BF0B07002048
:1027D400340700204A070020B80400200D07002019
:1027E4000C070020002422468DF816402146501C78
:1027F400A95402320023142A2954F8D14FF460500A
:10280400402101222B756B75C4F2010005F080F99B
:102814003078FFF7D7FA7078FFF7D4FAB078FFF77B
:10282400D1FAF078FFF7CEFA307900282ED1707EF5
:1028340060BB4FF46050C4F2010005F0B7F906AC78
:10284400002104F8011D20464FF40041FFF784FAEB
:10285400012800F015812B7D002B7FF424AE347900
:10286400002C5BD1737E002B71D00DF116074FF451
:1028740000413846FFF770FA012804BF9DF816108E
:102884002955707E01348442F1D362E0FFF79AFA4D
:10289400CFE7544688F82BC0019810B30CF101051A
:1028A40089490BEB050212F8016F0B46451803F832
:1028B400016FC8434019AB4200F0010011D030B1A0
:1028C40012F8010F0B4603F8020FAB4209D0511C5A
:1028D400567848785A1C5E70023350704A1CAB42DA
:1028E400F5D1019B0CF1020C0299634499420BD07F
:1028F40001981BF8031008EB0002431C0120D1755A
:1029040088F82C3088F82E0004232370CBE50320AC
:1029140020700120FFF734FB237806E61C4606EB03
:10292400040C9CF80500FFF74DFA37790134BC42DA
:10293400F5D34FF46050C4F2010005F037F94FF4B9
:102944006050C4F201004021002205F0E1F80DF1CD
:10295400160738464FF40041FFF7FEF9012800F04E
:102964008B8038464FF40041FFF7F6F9012800F058
:10297400838038464FF40041FFF7EEF901287BD0FD
:1029840038464FF40041FFF7E7F9012874D0384680
:102994004FF40041FFF7E0F901286DD038464FF4B9
:1029A4000041FFF7D9F9012866D038464FF40041B9
:1029B400FFF7D2F901285FD038464FF40041FFF702
:1029C400CBF9012858D038464FF40041FFF7C4F939
:1029D400012851D038464FF40041FFF7BDF90128D2
:1029E4004AD038464FF40041FFF7B6F901283FD0EA
:1029F40038464FF40041FFF7AFF9012838D0384684
:102A04004FF40041FFF7A8F9012831D038464FF4BC
:102A14000041FFF7A1F901282AD038464FF40041BC
:102A2400FFF79AF9012823D038464FF40041FFF705
:102A340093F901281CD038464FF40041FFF78CF974
:102A4400012815D038464FF40041FFF785F90128D5
:102A54000ED038464FF40041FFF77EF9012807D025
:102A640038464FF40041FFF777F901287FF41BAD96
:102A74009DF816306B7516E59DF816202A75B0E79B
:102A84009DF8173003F0F002602A02D0902A7FF4F8
:102A94000AAD7278D14381EA030010F0FE0F04D02E
:102AA40082EA030E1EF0FE0F01D12B70FBE42B759E
:102AB40020464FF40041FFF74FF901287FF4F3ACAF
:102AC4009DF817206A75EEE44A07002030B5144CCF
:102AD400002389B023708DF81F308DF804308DF8F1
:102AE40005308DF806308DF807308DF808300DF17B
:102AF4001F0001A90B4AFFF7C3FC9DF81F30052BEB
:102B040009D0042BF3D1012528462570FEF7A0F83F
:102B1400284609B030BDFFF73DFA0020F9E700BFB1
:102B2400340700206407002004292DE9F8430D46EA
:102B34000446994600F089800020FDF717FC45B350
:102B44002078FFF73FF96F1E013007F001071AD113
:102B54000126B5421DD97FB1A05DFFF733F90130DD
:102B640011D10226B54207D813E0E05DFFF72AF938
:102B7400013008D1B5420CD9A05DFFF723F9771CC9
:102B84007E1C0130F1D00120FDF7F0FB2120BDE8CF
:102B9400F8834FF46050C4F2010005F007F840F2E6
:102BA40005150023A522591CE2549E1C0333AB4295
:102BB4006254A255F7D10025294601262F46C1F2B9
:102BC400883140F205181BE06278635DD14381EAE5
:102BD400030010F0FE0F83EA020208D012F0FE0F89
:102BE40005D003F0F00CBCF1600F08BF03270021EF
:102BF400C1F28831002E18BF4FF40041013501366F
:102C04006019FFF7A9F801282B4611D1002DDBD05C
:102C1400012D0AD1032FEAD102232846C9F8003036
:102C2400FDF7A4FB3846BDE8F8834645DFD13346BB
:102C34000120C9F80030FDF799FBD9F8000058B914
:102C44000220C9F80000BDE8F8830378FF2B06D002
:102C54000020FDF78BFB73E70020BDE8F883407884
:102C64001128F5D1C9F800100020BDE8F88300BF91
:102C740040F23473C2F2000300221A70704700BF9E
:102C840030B53B48002583B0057003F0B1F94FF42B
:102C9400803003F0CDF903F0E7F9364B18711C7955
:102CA400012C3ED00120014603F010FB00214FF01F
:102CB400006000F0D7FE4FF4C06000F087FE0024EF
:102CC4001721012501A88DF804108DF805408DF811
:102CD40006408DF8075000F083FE252201A88DF8E8
:102CE40004208DF8055000F07BFE4EF2100C4FF6D8
:102CF4007F404FF46D43CEF2000CC0F20A00CEF2D6
:102D04000003F0210722CCF8040083F82310CCF848
:102D14000840CCF80020FFF7A1F8FFF7B3F803B0A0
:102D240030BD102001F03AFF022001F01FFF2846B9
:102D340003F0F2F9284603F007FA4FF4806003F039
:102D4400F7F94FF480304FF4801103F0BDF92046B9
:102D540003F0C8F9392003F003FB0028FAD002205D
:102D640003F0C6F903F0D0F90828FBD19AE700BFB5
:102D7400340700200800002008B5054B00221A7013
:102D8400FFF7A4FE10B1FFF771F9012008BD00BFE1
:102D94003407002008B5FFF773FF02E00120FFF7B6
:102DA400ABF8FFF793FE0028F8D0FFF75FF928206F
:102DB400FFF7A2F80120BDE80840FDF7D7BA00BF2D
:102DC40040F22853C2F2000304221A60704700BF85
:102DD400704700BF10B51F4906280A68137803F02E
:102DE4007F0303D0212B0DD0022010BD012BF9D17C
:102DF40050790028F8D19378222B29D0212BF3D1B4
:102E0400154B0DE003280AD0092810D00128EBD176
:102E140092F802C0BCF1030FE6D1104B00E0104B56
:102E240000249361548220469847204610BD91782F
:102E3400022903D0032906D0022010BD094C0A4BF5
:102E440020706170ECE7074C084B20706170E7E775
:102E5400074BE5E710090020152F0008A12E0008F4
:102E6400892E0008D8040020FD2E0008E52E000855
:102E7400212F000809B10220704701288CBF0220CD
:102E84000020704708B103487047034901220B68CA
:102E94001A827047BC0700201009002070B490B15A
:102EA4000B4E0C4D34460FCD0FC40FCD0FC40FCDB8
:102EB4000FC495E80F0084E80F00074802783046F5
:102EC400327070BC7047054940220B681A82F8E7DB
:102ED4001C0800205C080020640200201009002067
:102EE40008B103487047034940220B681A827047AF
:102EF4007C0700201009002008B1034870470349EB
:102F040001220B681A8270477C07002010090020F8
:102F140040F21001C2F2000105F014B9014905F0B4
:102F240011B900BF1800002005490B68DB78052B98
:102F340004D8044A52F8231005F004B9002070475D
:102F4400100900201801002040F22C13C2F20003E3
:102F5400196805F0F7B800BF40F23013C2F200035D
:102F6400196805F0EFB800BF70B540F6081C40F6CC
:102F7400101E4BF23824C2F2000CC2F2000EC0F64E
:102F84000004DEF80000DCF80060E57900244572F6
:102F9400B472C472204605F0DBFD20464FF4007184
:102FA40005F0F8FD40F234162021204605F00AFE13
:102FB400C2F200061821204605F06EFF3168204653
:102FC40091F82C1005F0C6FF5821204605F050FF5B
:102FD400204605F089FE204605F05EFE01204FF4F0
:102FE400C06105F0D7FD0120982105F041FF0120C3
:102FF400202105F0E7FD0120214605F0FDFD02201A
:10300400214605F0C7FD0220D82105F045FF3268AE
:10301400022092F82C1005F09DFF02204FF440513D
:1030240005F0EAFD02204FF48C7105F021FF3368AE
:10303400022093F82C1005F067FF0220302105F0E0
:10304400C1FD04204FF4C06105F0A4FD04204FF439
:10305400CE7105F00DFF0420214605F0CDFD0420BE
:10306400202105F0AFFD3568204695F82C1005F0B9
:1030740071FF204605F010FE204605F0CDFA45F21A
:10308400553640F2285040F6205140F6425240F264
:1030940000030125C2F20000C2F20001C4F242366C
:1030A400C2F20002C2F2000305600E6014701D60DB
:1030B40070BD00BF38B540F61014C2F20004FDF72D
:1030C400E1F925680024AC7207F08AFB45F6444513
:1030D40040F6141245F6404140F228534FF43F4065
:1030E400C4F20005C2F20002C4F20001C2F20003FD
:1030F4002C60108008601C6038BD00BFF0B4354CF3
:103104002378092B01D0F0BC704763780022022B8E
:10311400227018D0032B02D000236370F3E72E4AE9
:1031240010780028F8D12D4D2D4E13700FCE0FC5F9
:103134000FCE0FC50FCE0FC596E80F0085E80F0020
:1031440000236370DFE72648A17800784140CB076D
:103154000ED5244DD4E90223D5E90067B21A67EBF2
:103164000303B2F5FA7F73F100052FD3C4E90267B4
:103174008A070DD51B4ED4E90623C0CEB21A67EBDD
:103184000303B2F5FA7F73F100051AD3C4E90667A5
:103194004B0712D5134FD4E90A23D7E90067B21AB3
:1031A40067EB0303B2F5FA7F73F1000103D2094A16
:1031B400012182F83010C4E90A670023A07063700B
:1031C400A1E7044B012283F82020DFE701232374C5
:1031D400CCE700BFD8040020640200209C08002033
:1031E4007C0700206802002008B50B490868837A30
:1031F4008BB10A4A05211160012005F00FFE02205F
:1032040005F0FAFD022005F009FE042005F006FE93
:10321400034B00221A7008BD100900202805002065
:10322400420D0020084B1B68197801F07F02212A07
:1032340001D0022070470B2801D002207047DA78B1
:10324400024900200A60704710090020BC070020D2
:1032540008B103487047034901220B681A8270477A
:103264000C0500201009002040F61011C2F20001E4
:10327400086840F2BC73C278C2F200031A600020EE
:10328400704700BF40F22853C2F2000304221A60C0
:10329400704700BF704700BF704700BF09B10220EC
:1032A4007047002818BF0220704700BF08B10348C8
:1032B4007047034901220B681A82704710050020E9
:1032C4001009002005490B68DB78052B04D8044A53
:1032D40052F8231004F036BF002070471009002074
:1032E4001801002040F21813C2F20003596904F0D7
:1032F40029BF00BF40F21813C2F20003996904F019
:1033040021BF00BF054845F255330268C4F2423379
:103314009A4202D0022007F043BA7047200D0020E1
:1033240038B540F6101C40F6081E4BF23834C2F291
:10333400000EC2F2000CC0F60004DEF80010DCF847
:103344000000E579002445728C72204605F000FCEB
:1033540020464FF4007105F01DFC40F218152021A1
:10336400204605F02FFCC2F200051821204605F086
:1033740093FDEA69204692F82C1005F0EBFD5821E4
:10338400204605F075FD204605F0AEFC204605F00C
:1033940083FC0120214605F0FDFB0120982105F066
:1033A40067FD0120202105F00DFC0120214605F0D8
:1033B40023FC0220214605F0EDFB0220D82105F074
:1033C4006BFDEB69022093F82C1005F0C3FD02207D
:1033D4004FF4405105F010FC0220214605F0F2FBA9
:1033E400ED69204695F82C1005F0B4FD204605F053
:1033F40053FC204605F010F940F2285140F62052C3
:1034040045F2553040F64253C2F20001C2F20002C6
:10341400C4F24230C2F2000301250D6010601C703A
:1034240038BD00BF38B540F61014C2F20004FDF7F1
:1034340029F825680024AC7207F0D2F945F6444512
:1034440040F6141245F6404140F228534FF43F40F1
:10345400C4F20005C2F20002C4F20001C2F2000389
:103464002C60108008601C6038BD00BF10B50E4B86
:103474001B68197801F07F02212A01D0022010BDB7
:10348400FE28FBD15C88002CF8D15868B0F5803F49
:1034940001D0022010BD054A5C829A612046FFF7E4
:1034A40005FF204610BD00BF10090020B1320008FE
:1034B40010B5114B1B68197801F07F02212A01D045
:1034C400022010BDFF28FBD158880028F8D15C6881
:1034D4000CB1022010BD012005F0A0FC022005F073
:1034E4008BFC45F255330549054AC4F242330B605F
:1034F4001470204610BD00BF10090020200D0020CC
:10350400420D002008B508490868837A5BB1074A70
:1035140005211160012005F081FC022005F06CFCFE
:10352400034B00221A7008BD100900202805002052
:10353400420D00204EF21003CEF200035860704793
:103544004EF210030128CEF2000304D0023007D05B
:10355400002098607047186840F001021A607047B4
:103564001A6822F001011960704700BF4EF210037F
:10357400CEF200031A6818B922F0020018607047EE
:1035840042F002021A6070474EF21003CEF20003BA
:1035940098687047C1084EF21003CEF20003022966
:1035A4000CBF1B68DB6823FA00F000F001007047D1
:1035B400704700BFFEE700BFFEE700BFFEE700BFA5
:1035C400FEE700BF704700BF704700BF704700BFF1
:1035D400034B1A6812B11968481E1860704700BF7F
:1035E4001405002005F0E4B907F0AAB9704700BF3C
:1035F4002DE970434FF08040038ADB0745D5018AEB
:10360400234C244D21F0010109040122D4E900894D
:10361400090C00232E7818EB020849EB03090182F8
:10362400C4E90089002E30D016F0010F1A4ED6E9F5
:10363400002315D04FF4FA600021121843EB010364
:10364400904579EB030120D30020FCF79BFED4E9DD
:1036540000232978C6E900234B1E2B70BDE8708334
:103664004FF4FA7C002112EB0C0243EB010390456A
:1036740079EB030109D30120FCF784FED4E900238C
:103684002978C6E900234B1E2B70BDE8708300BF68
:10369400680200207002002078020020EFF3098005
:1036A400704700BF80F30988704700BFEFF30880BC
:1036B400704700BF80F30888704700BFEFF31280A3
:1036C400704700BF80F31188704700BFEFF310808C
:1036D400704700BF80F31088704700BFEFF313807A
:1036E400704700BF80F31388704700BF00BA70476B
:1036F40040BA7047C0BA704790FAA0F0704700BF54
:10370400D0E84F0FC0B27047D0E85F0F80B2704767
:1037140050E8000F704700BFC1E8400F704700BF7A
:10372400C1E8500F704700BF41E80000704700BF78
:10373400EFF31480704700BF80F31488704700BF14
:103744004FF48053C4F202031968002041F00102CF
:103754001A605968CFF6FF0001EA00025A6019683E
:10376400002221F0847C2CF480301860196882B027
:1037740021F4802119605968184621F4FE0159602A
:103784009A6000920192196841F480321A6003E051
:103794000099B1F5A06F09D0026802F400330193D7
:1037A40000994A1C0092019B002BF1D04FF4805CDD
:1037B400C4F2020CDCF8000010F4003305D001233D
:1037C4000193019A012A04D0FEE70193019A012A88
:1037D400FAD14FF40052C4F2020211684FF4805C33
:1037E40041F0100010601368C4F2020C23F00301CE
:1037F40011601068614640F002031360DCF80400B5
:10380400CCF80400DCF80420CCF80420DCF8043004
:1038140043F48060CCF80400DCF8042022F47C1328
:10382400CCF80430DCF8040040F48812CCF804200E
:10383400DCF8003043F08070CCF800000A684FF4E4
:1038440080539201C4F20203F8D55A68194622F053
:10385400030058605A6842F0020058604B6803F055
:103864000C0CBCF1080FF9D102B07047684620F087
:1038740007018D4679B500F0A5F8534880F3088810
:103884002349244CA14221D223480B46024652F834
:10389400046BCD4343F8046B6519A342C5F380055B
:1038A40014D23DB1156800F108021D6001F108034E
:1038B400A3420BD2114651F8045B1846526840F8F3
:1038C400045B5A60031D0A1DA342F3D3134A144830
:1038D400824216D200211346D44343F8041B041930
:1038E4008342C4F380040CD224B1196002F10803AA
:1038F400834206D21A4642F8041B5960131D8342C0
:10390400F8D307F0B5F8BDE879408546704700BFA5
:103914000000002060020020C4B300086002002000
:10392400A00D002070B42149214CA14221D221488C
:103934000B46024652F8046BCD4343F8046B6519F9
:10394400A342C5F3800514D23DB1156800F1080205
:103954001D6001F10803A3420BD2114651F8045B28
:103964001846526840F8045B5A60031D0A1DA342BE
:10397400F3D3114A1148824216D200211346D4438C
:1039840043F8041B04198342C4F380040CD224B109
:10399400196002F10803834206D21A4642F8041B56
:1039A4005960131D8342F8D370BC70470000002097
:1039B40060020020C4B3000860020020A00D0020B3
:1039C400FEE700BF704700000050002040F0BE61D9
:1039D4004FF46D4341F42020CEF20003D8607047C9
:1039E400C37830B47BB90378012003F01F0200FAD6
:1039F40002F059094FF46143CEF20003203143F839
:103A0400210030BC70474FF46D4CCEF2000CDCF852
:103A14000C504478EA43C2F302210F2323FA01F243
:103A2400C1F1040504FA05F48578017802EA050C6D
:103A34004CEA04034FF4614C1A01CEF2000C01EB82
:103A44000C03D2B283F800230278012102F01F0C88
:103A540001FA0CF14FF46140CEF20000520940F833
:103A64002210CEE721F0604C2CF07F024FF46D431E
:103A740042EA0001CEF20003996070474FF46D43AF
:103A8400CEF200031A6919B922EA000119617047DC
:103A940010431861704700BF4EF21003CEF20003CA
:103AA4001A6804280CBF42F0040222F004021A60CF
:103AB400704700BF08B54FF42053C4F20103984285
:103AC4000CD04FF47051C4F2010188421ED04FF45F
:103AD4001052C4F2010290420CD008BD01214FF4EF
:103AE400806002F00FFC4FF480600021BDE80840C4
:103AF40002F008BC01214FF4007002F003FC4FF403
:103B040000700021BDE8084002F0FCBB01214FF425
:103B1400004002F0F7FB4FF400400021BDE80840EC
:103B240002F0F0BB70B446680C6826F470250A797C
:103B340025F4807343EA040646EA02254560856855
:103B44008E68CC684FF2FD7CCFF6F17C4A7905EAA9
:103B54000C03344344EA030C4CEA420383600A7CBA
:103B6400C16A531E21F47002D9B242EA0153C362FE
:103B740070BC7047002101230160017141718160B3
:103B8400C1600374704700BF836819B923F0010151
:103B94008160704743F0010383607047836819B9FB
:103BA40023F480718160704743F4807383607047AD
:103BB400C9B243681AB923EA010242607047194343
:103BC40041607047816841F008038360704700BF1B
:103BD4008068C0F3C0007047816841F004038360CB
:103BE400704700BF8068C0F380007047836819B9CC
:103BF40023F4A0018160704743F4A00383607047FD
:103C04008068C0F3805070474368013923F46042F0
:103C140042EA413343607047436819B923F40061B1
:103C24004160704743F4006343607047092970B4EE
:103C340001EB41041FD91E3C072606FA04F603FAD9
:103C440004F4C568062A25EA060C4CEA0403C3609A
:103C54001ED90C2A02EB820229D9413A1F2404FA04
:103C640002F401FA02F2C16A21EA040C4CEA0203EA
:103C7400C36270BC7047072505FA04F603FA04F41E
:103C84000569062A25EA060C4CEA04030361E0D818
:103C9400013A02EB82031F2404FA03F401FA03F14C
:103CA400426B22EA040343EA01024263E1E7233A56
:103CB4001F2404FA02F401FA02F2016B21EA04035C
:103CC40043EA02010163D4E7836819B923F480113C
:103CD4008160704743F4801383607047C06C80B286
:103CE400704700BF42F24C43C4F2010318687047A6
:103CF400436819B923F480614160704743F48063D9
:103D040043607047436819B923F480514160704798
:103D140043F4805343607047836823F4E04241EAEC
:103D240002038360704700BF836819B923F400411C
:103D34008160704743F4004383607047836819B916
:103D440023F402118160704743F4021383607047C7
:103D54008068C0F340507047092970B401EB4104F6
:103D640020D8072505FA04F603FA04F4056925EAC0
:103D7400060C4CEA04030361836BC3F3015CCCEBD4
:103D84000204A21C5FFA82FC0CEB8C021F2404FACE
:103D940002F401FA02FC23EA040242EA0C01816300
:103DA40070BC70471E3C072606FA04F603FA04F4B6
:103DB400C56825EA060C4CEA0403C360DCE700BFCF
:103DC400836B013923F4401242EA01538363704741
:103DD400425070472830405880B27047436823F4FB
:103DE400400222F4007319434160704741628262C9
:103DF400704700BF436823F01F0241EA0203436097
:103E0400704700BF4FF41053C4F201039A6818B905
:103E140022F400009860704742F400029A607047F0
:103E2400036819420CBF002001207047C943016098
:103E3400704700BF4368006810EA112004D0C9B27B
:103E440019420CBF00200120704700BF6FEA112106
:103E540001607047012008B502F070FA0020BDE847
:103E6400084002F06BBA00BF48F20463C4F20D23A9
:103E7400186070474FF40643C4F20D23186070476E
:103E840048F28863C4F20D23186070474FF4D84396
:103E9400C4F20003B3F82CC02CF460710A04110CB2
:103EA40040EA01029A8570474FF4D843C4F20003F4
:103EB400B3F82CC02CF07F010A04110C40EA010273
:103EC4009A85704700F1804202F5D840018070471E
:103ED40000F1804202F5D841088880B2704700BFE3
:103EE40048F2A063C4F20D231868C0B2704700BF43
:103EF4004FF4D843C4F20003998E88B240F0010213
:103F04009A86704748F2A463C4F20D231868C0B2BD
:103F1400704700BF4FF4D843C4F20003998E88B2AF
:103F240040F002029A86704708B54FF4C843C4F2C1
:103F34000003984200D008BD01214FF0007002F048
:103F4400EFF94FF000700021BDE8084002F0E8B935
:103F540070B4026822F00203036002684FF6FF7334
:103F640042F00102026007E04268D20707D44268C7
:103F7400D20704D4033B02D04268D207F4D5436885
:103F840013F0010361D00D780468012D0CBF44F0D7
:103F9400800424F0800404604A780368012A0CBF7A
:103FA40043F0400323F04003036091F802C0066825
:103FB400BCF1010F0CBF46F0200626F02006066077
:103FC400CD780468012D0CBF44F0100424F01004D3
:103FD40004600A790368012A0CBF43F0080323F044
:103FE400080303604E790568012E0CBF45F00405F3
:103FF40025F0040505608C79CE790D7AA2074B89EA
:104004004C7A42EA066141EA054242EA045C591EDE
:104014004CEA0103C36102684FF6FF7322F0010109
:10402400016007E04168C90707D54168C90704D59D
:10403400033B02D04268D207F4D4406810F0010F69
:1040440014BF0020012070BC70471846FBE700BF76
:1040540070B40378012404FA03F44FF4C843C4F29F
:104064000003D3F80012E24341F00101C3F8001247
:10407400D3F81C121140C3F81C128178E9B9D3F8A3
:104084000C62458902EA0601C3F80C12B0F806C0B6
:1040940001784CEA0546483143F8316005780689D1
:1040A400818846F24063ED00C4F2000341EA064110
:1040B40005EB030CCCF804108178012947D0437830
:1040C400002B39D14FF4C84CC4F2000CDCF8043294
:1040D40002EA0301CCF80412838903BB4FF4C84CF1
:1040E400C4F2000CDCF814120A40CCF81422807BD1
:1040F400012808D14FF4C84CC4F2000CDCF81C228F
:104104001443CCF81C424FF4C843C4F20003D3F860
:10411400000220F00101C3F8001270BC7047012BAB
:10412400E5D14FF4C843C4F20003D3F8141244EAAF
:104134000102C3F81422DAE74FF4C84CC4F2000CAD
:10414400DCF8043244EA0301CCF80412C4E74FF467
:10415400C843C4F20003D3F80C62858844EA06011C
:10416400C3F80C12B0F806C001784CEA0546483191
:1041740043F8316005780689418946F2406CED00C8
:10418400C4F2000C41EA064105EB0C03596096E7C2
:104194000023037043708370C37003714371837190
:1041A400C3710322022101230272417243817047C9
:1041B40043691AB923EA0102426170471943416114
:1041C400704700BF2DE9F00182680346500153D4C3
:1041D4009868020166D5012505F1180422019F584B
:1041E400284607F001069E500E7A002E50D0D1F8D2
:1041F400048053F802C04F7A46EAC80646EA0C081F
:1042040048EA07079F508E7A240106F00F028A724B
:1042140003EB0408D8F8047003EB051527F00F0628
:10422400C8F80460D8F804708A7A05F5C4763A436D
:10423400C8F804204F7B91F80E8091F80BC03A0423
:1042440042EA08620F7B42EA0C0C4CEA0727C5F8E5
:1042540088714A7C8F7CCD7B1204097C42EA076218
:1042640042EA050C4CEA012171601A5942F001013D
:104274001951BDE8F00170470025284605F11804DE
:1042840022019F5807F001069E500E7A002EAED1EF
:104294004E7AD1F800C09F5846EA4C5848EA0706BF
:1042A4009E50B0E79A68D00002D502252846E5E77B
:1042B4000420DEE7012915D005D3022923D01A48AA
:1042C4000023C05C704782688368806802F0010143
:1042D40003F0020CC0F380624CEA810312481343DA
:1042E400C05C70478268816802F4807382689B09AD
:1042F40001F4007043EA1020C2F3C06140EA0103F4
:104304000948C05C70478268816802F4803382681F
:1043140001F4003C980B40EA1C40C2F300730343D1
:104324000148C05C704700BF80B3000801290CD06D
:1043340006D3022903D1826842F4000181607047E8
:10434400816841F0800383607047836843F40042CE
:1043540082607047202309B103617047C3607047CE
:1043640031B1012906BF006900F003000020704745
:10437400C06800F00300704701F11B0330B41C0156
:10438400055905F0040C5FFA8CF515720459002DDB
:1043940038D1640D14601B01C55800EB030C05F003
:1043A40002045472DCF8043000EB011403F00F052E
:1043B4009572DCF8043004F5DC7C1D0AD574D4F85D
:1043C400B831D372D4F8B8512B0A1373D4F8B85156
:1043D4002D0C5573D4F8B8311C0E9473DCF80430EA
:1043E400D373DCF80440230A1374DCF80440240C6F
:1043F4005474DCF804301B0E9374202329B1036138
:1044040030BC7047E5085560C5E7C360F8E700BFF6
:10441400036819B923F480310160704743F4803391
:1044240003607047036823F0030242F00201016055
:10443400436803F00302A2F10201484240EB010089
:10444400704700BF026822F00201016043689907C7
:104454000DD54FF6FF7307E04268910707D5416811
:104464008A0704D5033B02D041688A07F4D4406824
:1044740010F0020F14BF0020012070478369194215
:104484000CBF002001207047826922EA0103836186
:10449400704700BF20294BD010D9B1F5007F27D039
:1044A40017D9B1F5803F33D0B1F5003F2CD0B1F529
:1044B400806F13D18169C1F380007047062933D01E
:1044C4000ED9072918D0082908D1C068C0F30010F4
:1044D4007047402924D0B1F5807F1DD0002070475B
:1044E40004290DD00529F9D1806800F00100704736
:1044F4008069C0F3400070478268C2F3004070478F
:10450400C368C3F3C00070474268C2F30010704729
:104514004368C3F3C0007047836903F00100704728
:104524000269C2F3001070478168C1F3002070472C
:104534000169C1F3C0007047202947D011D9B1F5F2
:10454400007F25D017D9B1F5803F30D0B1F5003FB9
:104554002AD0B1F5806F13D1836923F004028261FC
:10456400704706292ED00CD9072916D0082907D15F
:104574001021C1607047402921D0B1F5807F19D046
:10458400704704290DD00529FAD1012383607047AF
:10459400816921F00203836170474FF480328260A5
:1045A40070470823C360704710224260E8E708217F
:1045B40041607047826922F00101816170471023D4
:1045C400036170474FF48071816070470822026173
:1045D400704700BF4FF44053C4F2020301229A60B3
:1045E400704700BF4FF44053C4F2020318601868C8
:1045F400704700BF30B4E9B101224FF4405450F881
:10460400045B4B1EC4F202048A42256003EA0203DF
:1046140010D02BB150F8043B02228A42236009D007
:10462400034653F8045B023225604568181D8A422C
:104634002560F5D14FF44050C4F20200006830BC4C
:10464400704700BF4FF44053C4F202031868704728
:104654004FF44053C4F20203187170474FF44053AF
:10466400C4F2020318797047012108B54FF00050D5
:1046740001F056FE4FF000500021BDE8084001F063
:104684004FBE00BF8A68CB6830B491E830002C4339
:1046940044EA020140F6FE7541EA030405FA00F516
:1046A40004FA00F14FF4E844C4F20004226822EA58
:1046B400050343EA0100206030BC70470023036017
:1046C40043608360C3607047012303FA00F04FF432
:1046D400E843C4F200031A6819B922EA0001196018
:1046E40070471043186070474FF4805303FA00F08A
:1046F4004FF4E843C4F200031A6819B922EA00012E
:104704001960704710431860704700BF0123000907
:1047140003FA00F04FF4E843C4F200035A6819B9ED
:1047240022EA00025A60704740EA02015960704769
:104734004FF4E843C4F200035A6818B922F00300A6
:104744005860704742F003025A6070474FF4E843E0
:1047540001FA00F1C4F2000322B91A6822EA010046
:10476400186070471A6811431960704747F208438C
:10477400C4F20003C150704747F21443C4F200036B
:10478400C1507047082847F220430CBF42EA012178
:1047940042EA0141C4F20003C150704747F22C437E
:1047A4008108C4F20003C85880B270474FF4005324
:1047B400CEF204031868000C704700BF4FF4005396
:1047C400CEF2040319680805000D70474FF4005336
:1047D400CEF204035A6819B922EA000159607047FD
:1047E40010435860704700BF01686C22C4F2020293
:1047F400002321F001019042016003604360836063
:10480400C36000F0A38023D940F21C41C4F202012A
:10481400884253D034D940F24443C4F2020398424C
:1048240070D04FF48B61C4F2020188425FD04FF420
:104834008662C4F2020290422DD14FF4806CC4F21D
:10484400020CDCF8041041F47060CCF804007047EA
:104854003022C4F20202904270D01DD94422C4F224
:104864000202904233D05823C4F20203984212D178
:104874000021C4F202014B6843F470224A6070477D
:104884008022C4F20202904250D04FF4816CC4F2F0
:10489400020C60453FD070470823C4F202039842DB
:1048A4001DD01C21C4F202018842F4D10020C4F2BC
:1048B4000200436843F0F002426070474FF48063A3
:1048C400C4F202035A6842F0F001596070470023B1
:1048D400C4F20203586840F47041596070470023E1
:1048E400C4F20203596841F00F00586070474FF456
:1048F400806CC4F2020CDCF8042042F47021CCF881
:104904000410C8E74FF48063C4F20203586840F40B
:1049140070425A6070474FF4806CC4F2020CDCF8A9
:10492400040040F00F02CCF8042070470023C4F2C6
:104934000203596841F07060586070470020C4F267
:104944000200426842F47061416070470021C4F281
:1049540002014A6842F47000486070478B68F0B402
:104964000E6A0D694F6946EA03042C438B69CE69CC
:1049740044EA07024D6A076842EA030C4CEA060659
:104984008A6A46EA050327F4FE47CE680D6843EABF
:10499400020C27F0F0074A684CEA070303604660FC
:1049A4008560C260F0BC704700230360436083608D
:1049B400C360036143618361C361036243628362D1
:1049C400704700BF036819B923F001010160704703
:1049D40043F001030360704703681AB923EA010234
:1049E4000260704719430160704700BF406880B29D
:1049F400704700BFC1004CBF4FF480610021C4F276
:104A040002010B6803420CBF00200120704700BF65
:104A1400C2004CBF4FF480630023C4F20203586009
:104A2400704700BFC1004CBF4FF480630023C4F241
:104A340002031B6803420CBF00200120704700BF23
:104A4400C3004CBF4FF480630023C4F202035860D8
:104A5400704700BF4FF480634FF6FF71C4F2010347
:104A64000022C0F207011A605A609A60DA60596144
:104A7400704700BF837930B453B34FF48063C4F2FA
:104A8400010301681A68CC4304EA02051D605A68F0
:104A940090F804C014400CF180455C6005F5823246
:104AA400156844792943116002689868D143084025
:104AB4009860D868102C01EA0001D96014D004F180
:104AC400804C0CF58234206840EA0203236009E03C
:104AD4000279016802F1804C0CF58233186820EAEF
:104AE40001021A6030BC7047996841EA020098607C
:104AF400D96841EA0200D860F4E700BF00230C2221
:104B04000360037142718371704700BF4FF4806387
:104B1400C4F20103196940EA01021A61704700BF37
:104B24004FF48061C4F201014B6918420CBF0020AC
:104B3400012070474FF48063C4F201035861704749
:104B44004FF48061C4F201010A684B69034004D048
:104B540010420CBF0020012070471846704700BF68
:104B64004FF48063C4F20103586170474FF400535B
:104B7400C4F202031A6802F0380140EA01021A6022
:104B8400704700BF4FF40053C4F202031A6822F0C6
:104B9400080119601A681043186070474FF40053F5
:104BA400C4F202031A6822F0100119601A68104353
:104BB400186070474FF4005340F2231148F6AB12CB
:104BC400C4F20203C4F26751CCF6EF5259605A6042
:104BD400704700BF4FF40053C4F20203186940F059
:104BE40080021A61704700BF4FF40053C4F20203FD
:104BF400D8698008704700BF4FF40053C4F2020321
:104C0400186A70474FF40053C4F20203D869C0F322
:104C1400400070474FF40053C4F202031868C0F315
:104C2400401070474FF40053C4F202031A6919B9D3
:104C340022EA00011961704710431861704700BFF0
:104C44004FF400530128C4F2020305D0DB68184274
:104C54000CBF002001207047D86900F001007047A4
:104C64004FF40053C4F20203D86070474FF400536A
:104C7400C4F20203DA68D1070BD4D868420701D51D
:104C840002207047DB6813F0100F0CBF04200320D0
:104C940070470120704700BF70B582B00446FFF72B
:104CA400E5FF012816D194B10026FF250196019550
:104CB400019B2BB1019A511E019101980028F9D151
:104CC400FFF7D4FF013C012804D1002CEED10520CC
:104CD40002B070BD002C08BF0520F9E7F8B54FF409
:104CE400005440F2231548F6AB13C4F20204C4F294
:104CF4006755CCF6EF53A5600546A3600F200E461A
:104D04001746FFF7C9FF042800D0F8BD206945F015
:104D1400F8052E434FF4784140F01002C1F6FF71BC
:104D2400374322610F204F80FFF7B6FF0128ECD0F4
:104D3400226941F6EF7102EA01032361F8BD00BF65
:104D440038B5054640F6FF70FFF7A6FF042800D0EB
:104D540038BD4FF4005440F2231148F6AB10C4F2AE
:104D64000204C4F26751CCF6EF50A160A06023693D
:104D740040F6FF7043F020022261216941F04003B4
:104D84002361FFF789FF042808D00128E0D02369B4
:104D940041F6DF7E03EA0E02226138BD226941F644
:104DA400DF7102EA01002061236943F010024FF42D
:104DB40078432261C1F6FF73A5B9A521198040F695
:104DC400FF70FFF769FF0128C2D04FF4005CC4F202
:104DD400020CDCF8101041F6EF7301EA0302CCF880
:104DE400102038BD00201880E9E700BF38B505461B
:104DF4000F20FFF751FF0428044601D0204638BD98
:104E04004FF4005340F2231148F6AB12C4F20203EC
:104E1400C4F26751CCF6EF5299609A601869ED4379
:104E2400EAB240F01001FF2A196119D04FF4784C0E
:104E3400C1F6FF7C0F20ACF80820FFF72DFF0428F3
:104E44000ED00446012CD9D04FF40053C4F202030F
:104E5400196941F6EF7001EA00021A61204638BD73
:104E6400C5F30723FF2B0AD04FF4784EC1F6FF7E1B
:104E74000F20AEF80A30FFF70FFF0428E1D1C5F385
:104E84000743FF2B09D04FF47840C1F6FF708381AC
:104E94000F20FFF701FF0428D3D12D0EFF2DD3D00F
:104EA4004FF47844C1F6FF74E5810F20FFF7F4FE58
:104EB4000446C7E770B504460F200E46FFF7ECFE24
:104EC400042800D070BD4FF4005540F2231248F678
:104ED400AB10C4F20205C4F26752CCF6EF50AA60DC
:104EE400A86029690F2041F010032B612680FFF789
:104EF400D3FE0128E6D02A6941F6EF7102EA0103E4
:104F04002B6170BD70B504460F200D46FFF7C4FE3B
:104F1400042800D070BD4FF40056C4F20206316973
:104F24000F2041F0010333612580FFF7B5FE01280E
:104F3400F0D0336941F6FE7C03EA0C02326170BDA5
:104F440070B504460F200D46FFF7A6FE042800D0D6
:104F540070BD4FF40056C4F202063069ABB240F0A3
:104F6400010232610F202380FFF796FE042808D047
:104F74000128EDD0336941F6FE7103EA0102326182
:104F840070BD2D0C0F206580FFF786FE0128DFD051
:104F9400336941F6FE7C03EA0C01316170BD00BF48
:104FA40010B540F6FF70FFF777FE042800D010BD5F
:104FB4004FF4005440F2231148F6AB10C4F202043B
:104FC400C4F26751CCF6EF50A160A060236940F6AB
:104FD400FF7043F020022261216941F04003236104
:104FE400FFF75AFE042808D00128E0D0226941F6D0
:104FF400EF7102EA0103236110BD226941F6DF7EED
:1050040002EA0E01216120694FF4784C40F010034C
:10501400A522C1F6FF7C23610F20ACF80020FFF726
:105024003BFE0128C3D0226941F6EF7102EA010375
:10503400236110BD10B540F6FF70FFF72DFE042864
:1050440000D010BD4FF40054C4F20204236940F6AA
:10505400FF7043F004022261216941F0400323619F
:10506400FFF71AFE0128ECD0226941F6FB7C02EA24
:105074000C01216110BD00BF38B5054640F6FF7034
:10508400FFF70AFE042800D038BD4FF40054C4F2E0
:105094000204236940F6FF7043F002022261656155
:1050A400216941F040032361FFF7F6FD0128EBD0AD
:1050B400226941F6FD7C02EA0C01216138BD00BF82
:1050C40010B4A0B143F2D2014FF0204444F82010B0
:1050D4004FF4827C6FF07042441CCAF2000C4FF013
:1050E400204343F824204CF8202010BC704743F29E
:1050F400DB024FF020431A60EAE700BF10280BD010
:105104008023CAF200034FF0FC32182040211860BB
:1051140059609A60DA6070476023F2E7A023CAF20C
:1051240000034FF0FC3218200021186059609A6087
:10513400DA601A61704700BF83684268F0B4C768D8
:10514400046943EA020141EA0705466945EA040C99
:1051540082694CEA0607C16947EA0204066A44EA1E
:105164000105426A45EA060C816AC46A4CEA0207F0
:1051740047EA0106026846EA0405082B4FF020447A
:1051840044F8225023D0036B541C9F6993E86010A9
:105194003D4345EA0615DF681E6945EA0C255B694F
:1051A40045EA074C4CEA065545EA03654FF0204CA6
:1051B400B1F5804F4CF8245010D04FF4827CCAF2E1
:1051C400000C6FF070414CF82210F0BC704754F89A
:1051D400226046F0400344F82230D4E7436B4FF496
:1051E40082711C689D6958689E68254345EA0015CC
:1051F4001C69586945EA062343EA045C4CEA0060EA
:10520400CAF2000141F82200DFE700BF2DE9F007F0
:10521400C269036A41688568976841EA0504996828
:1052240044F00809C6685468D3F804A00904056961
:105234004FEA074C49EA060817681E684CEA042C32
:10524400D0F81490D46841EA0A22D968036848EA7D
:105254000508856948EA49284CEA07073243102BB8
:1052640048EA453547EA046742EA016208D08023E8
:10527400CAF200031D609F60DA60BDE8F007704762
:105284006020CAF2000005608760C260F5E700BFD5
:1052940070B490E81A0041F0100C4CEA4325A023A6
:1052A400C268CAF2000345EA44361E60946892E874
:1052B4006000210441EA062CD4684CEA0505026921
:1052C40045EA04669E60946892E860002104D4680C
:1052D40041EA062242EA050141EA04654269DD60C9
:1052E400946892E821002404D16844EA052C4CEA2D
:1052F400000040EA01621A6170BC704770B4022673
:105304004660046B416B4FF48056066200230F2203
:10531400FF254FF4005603608360C360036143615B
:105324008361C36146628362C36222606260A56076
:10533400E26022616261A3610A604A608D60CA60B2
:105344000A614A618B6170BC704700BF30B4016A66
:10535400C469FC2300221025056042608260C2609B
:1053640002614261826123606360A360E3600B6059
:105374004B608B60CB6030BC704700BF30B40169B8
:10538400C4684269FC23002505604560856023608C
:105394006360A360E3600B604B608B60CB60136061
:1053A40053609360D36030BC704700BF61B94FF065
:1053B400204C5CF820104FF6FE73C0F20F0301EA94
:1053C40003024CF8202070474FF0204353F820107C
:1053D40041F0010243F82020704700BF49B1102872
:1053E40015D08023CAF200031A6842F00401196040
:1053F4007047102813D08022CAF2000211684FF6B9
:10540400FB7CC0F20F0C01EA0C00106070476023B3
:10541400CAF20003186840F004021A607047602260
:10542400EAE700BF58B9A022CAF2000213684FF697
:10543400FB7CC0F20F0C03EA0C0111607047A0233F
:10544400CAF20003186840F004021A60704700BFF3
:1054540049B1102815D08023CAF200031A6842F01B
:10546400400119607047102813D08022CAF200024C
:1054740011684FF6BF7CC0F20F0C01EA0C001060FB
:1054840070476023CAF20003186840F040021A60B3
:1054940070476022EAE700BF102804D08020CAF2D7
:1054A4000000406970476023CAF2000358697047DE
:1054B4005AB110281ED0B0F5807F22D0A020CAF2A5
:1054C4000000436819434160704710280AD0B0F5C2
:1054D400807F1ED0A023CAF20003586820EA01018D
:1054E400596070476020CAF20000436823EA010251
:1054F400426070476023CAF200035A68114359603E
:1055040070478023CAF200035A6841EA02005860D7
:1055140070478020CAF20000426822EA010141601B
:10552400704700BF10280BD0B0F5807F11D0A022A7
:10553400CAF2000253680B420CBF002001207047DE
:105544006023CAF200035B680B420CBF00200120F9
:1055540070478020CAF2000043680B420CBF002051
:105564000120704710280AD0B0F5807F0FD0A0200A
:10557400CAF20000436823EA0101416070476023D6
:10558400CAF200035A6822EA010159607047802375
:10559400CAF200035A6822EA01005860704700BF4B
:1055A40010280FD0B0F5807F11D0A022CAF20002DB
:1055B400536813EA010004D013EAD1010CBF0020A0
:1055C400012070476023CAF200035B68F1E7802082
:1055D400CAF200004368ECE710280AD0B0F5807FD7
:1055E4000FD0A020CAF20000436823EAD101416031
:1055F40070476023CAF200035A6822EAD101596055
:1056040070478023CAF200035A6822EAD100586026
:10561400704700BF08B54FF4A053C4F20103984289
:1056240063D012D84FF44061C4F20101884252D0D1
:105634004FF48052C4F20102904242D04FF4006C05
:10564400C4F2010C604532D008BD4FF4E053C4F2FB
:105654000103984221D04FF40051C4F20101884261
:105664000FD04FF4C052C4F201029042ECD140205A
:10567400012100F047FE40200021BDE8084000F071
:1056840041BE01214FF4807000F03CFE4FF4807065
:105694000021BDE8084000F035BE8020012100F063
:1056A40031FE80200021BDE8084000F02BBE04201C
:1056B400012100F027FE04200021BDE8084000F08D
:1056C40021BE1020012100F01DFE10200021BDE8A4
:1056D400084000F017BE0820012100F013FE082046
:1056E4000021BDE8084000F00DBE2020012100F09B
:1056F40009FE20200021BDE8084000F003BE00BFE1
:105704000120014608B500F0FDFD01200021BDE89F
:10571400084000F0F7BD00BFCB7830B4DA0648BFCC
:105724008A7803F00F0448BF14430A8812F0FF0F6D
:1057340029D002F001050168002D40F0DD8002F05F
:105744000205002D40F0C28002F00405002D40F057
:10575400C88002F00805002D40F08C8002F010058E
:10576400002D40F0928002F02005002D40F098803A
:1057740002F04005002D40F09E8002F08005002DCF
:1057840040F0C5800160FF2A20D902F48075416889
:10579400002D26D102F40075002D2DD102F4806570
:1057A400002D34D102F40065002D3BD102F4805564
:1057B400002D41D102F40055002D47D102F480455B
:1057C400002D4DD102F4004212B9416030BC704743
:1057D400282B64F31F7100F0B080482B08BF0261CE
:1057E400F3E721F00F0C282B44EA0C0100F0A3800E
:1057F400482BCFD10561CDE721F0F001282B41EAF8
:10580400041100F09680482BC8D10561C6E721F445
:10581400706C282B4CEA042100F08980482BC1D1FC
:105824000561BFE721F47041282B41EA04317CD0A3
:10583400482BBBD10561B9E721F4702C282B4CEA25
:10584400044170D0482BB5D10561B3E721F4700150
:10585400282B41EA045164D0482BAFD10561ADE750
:1058640021F0706C282B4CEA046158D0482BA9D144
:105874000561A7E721F4704C282B4CEA043168D069
:10588400482B7FF46BAF056168E721F47021282B66
:1058940041EA04415BD0482B7FF465AF056162E7C0
:1058A40021F4700C282B4CEA045156D0482B7FF479
:1058B4005FAF05615CE721F07061282B41EA046168
:1058C40049D0482B7FF459AF056156E721F0F00C1D
:1058D400282B4CEA041138D0482B7FF435AF0561EE
:1058E40032E721F47061282B41EA04212BD0482BA4
:1058F4007FF42FAF05612CE721F00F01282B44EA38
:1059040001011CD0482B7FF41AAF056117E7282B3F
:1059140064F31F7115D0482B08BF056132E7456158
:1059240050E745614AE7456144E745613EE7456123
:1059340038E7456132E745612CE7426145E7456157
:10594400FDE645611EE7456103E74561FCE6456107
:1059540009E7456102E745610FE7456108E700BFD4
:105964004FF6FF720221042302808170C3707047D6
:10597400836819420CBF002001207047806880B200
:10598400704700BFC36819420CBF00200120704754
:10599400C06880B2704700BF0161704741617047C1
:1059A4000AB9416170470161704700BFC160704727
:1059B40041F48033836181618361836983697047C2
:1059C40010B40023C4F201031A684FF6807C02EA83
:1059D4000C0441EA001004431C6010BC704700BF73
:1059E4001C23C4F220231860704700BF30B4002386
:1059F40000F44014C4F20103B4F5401F5A6885B2A0
:105A04001FD0C30214D5C0F3034C032404FA0CF3CF
:105A140022EA030242F0706221B1410D080105FA45
:105A240000F52A430023C4F201035A6030BC7047D6
:105A3400430D1B0105FA03F322EA030242F07062EC
:105A4400EAE75C6822F0706224F070645C60E3E76B
:105A540001F0030310B40F229C0002FA04F200FACE
:105A640004FC89080024C4F20104023154F82130F2
:105A740023EA020044F8210054F821204CEA0203EE
:105A840044F8213010BC704708B54FF4A843C4F261
:105A94000003984206D04FF4B041C4F2000188429A
:105AA4000CD008BD01214FF4001000F039FC4FF474
:105AB40000100021BDE8084000F032BC01214FF481
:105AC400800000F02DFC4FF480000021BDE8084068
